:020000040800F2
:1000000000300020DD4B0008114C0008114C0008A6
:10001000114C0008114C0008114C000800000000B1
:10002000000000000000000000000000A14A0008DD
:10003000114C000800000000474B0008A74B0008C7
:10004000114C0008114C0008114C0008114C00081C
:10005000114C0008114C0008114C0008114C00080C
:10006000114C0008114C0008114C0008114C0008FC
:10007000114C0008114C0008114C0008114C0008EC
:10008000114C0008114C0008114C0008B91F000861
:10009000BD1F0008114C0008B91E0008114C0008D3
:1000A000114C0008114C0008114C0008114C0008BC
:1000B000114C0008114C000800000000114C000811
:1000C000114C00080000000000000000114C000866
:1000D00000000000114C0008114C0008114C0008F1
:1000E000114C0008114C0008000000000000000046
:1000F0000000000000000000000000000000000000
:1001000000000000000000000000000000000000EF
:100110000000000000000000114C0008114C000815
:1001200000000000000000000000000000000000CF
:1001300000000000000000000000000000000000BF
:10014000114C0008114C00080000000000000000E5
:10015000000000000000000000000000000000009F
:10016000000000000000000000000000000000008F
:10017000000000000000000000000000000000007F
:1001800000000000114C000810B5054C237833B96D
:10019000044B13B10448AFF300800123237010BD5A
:1001A00020020020000000007C5500080C4B43B1E9
:1001B0000C480D4910B5AFF300800C48036823B913
:1001C00010BD0A48036833B97047094B002BF7D0BC
:1001D000BDE810401847064B002BF5D0184700BF6C
:1001E000000000007C550008240200201C020020B2
:1001F0000000000038B51C2204460D46002104F022
:10020000D1FE2046294600F0DAF9204638BD00002C
:1002100010B5094A0023072B0CD040FA03F111F066
:10022000010F52F8231014BF8C68CC680968216054
:100230000133F0E710BD00BF3C02002070B51C2068
:10024000C0B004F0C5FB344C344E00210546FFF726
:10025000D1FF1C20256004F0BBFB01210546FFF700
:10026000C9FF1C20656004F0B3FB03210546FFF7BE
:10027000C1FF1C20A56004F0ABFB04210546FFF77D
:10028000B9FF1C20E56004F0A3FB50210546FFF7F1
:10029000B1FF1C20256104F09BFB11210546FFF7EF
:1002A000A9FF1C20656104F093FB07210546FFF7B9
:1002B000A1FF1C22002103A8A56104F073FE1421F4
:1002C00003A800F069F9162217210AA804F05CF9C6
:1002D000134B01220AA901A800F0DBF8052101A8AF
:1002E00000F048F801252C462046FFF791FF2146F3
:1002F00001A800F048F8304604F04CFA049B1A6854
:10030000039B1A4204D1002CEED16D426DB2EBE793
:100310002C44E4B2F7E700BF3C020020CDCCCC3D3A
:10032000555585407FB504AC002604F8041D0546EC
:100330000096224601235A21006804F07DF90096B8
:10034000012322465A21286804F097F99DF80C00F1
:1003500004B070BD1FB5002300938DF80C108DF80C
:100360000D20022303AAB421006804F065F905B04A
:100370005DF804FB0A460179914203D00271012124
:10038000FFF7E8BF704738B504460D460521FFF773
:10039000F1FF2A4620460221BDE83840FFF7DABFC8
:1003A00010B52DED028B08EE101A1A210446FFF746
:1003B000B9FF60F07F02D2B220461A21FFF7CAFFD0
:1003C0001A212046FFF7AEFFB6EE007AFEEE007A65
:1003D000E8EE077A1A21B2EE047A67EE877AFCEE2D
:1003E000E77A17EE902A02F01F020243D2B22046AB
:1003F000FFF7B0FF1D212046FFF794FF40F00402F5
:10040000D2B220461D21FFF7A5FF1D212046FFF790
:1004100089FFBDEC028B00F0FE021D212046BDE8E5
:100420001040FFF797BF10B52DED028B08EE101AA4
:100430001A210446FFF776FF1A2100F07F022046BA
:10044000FFF788FF1A212046FFF76CFFF7EE007ACE
:1004500038EE678AF1EE047A28EE278A1A21FCEE3C
:10046000C87A17EE902A02F01F020243D2B2204649
:10047000FFF770FF1D212046FFF754FFBDEC028BF4
:1004800040F02002D2B220461D21BDE81040FFF707
:1004900061BF70B50446016000211D461646FFF796
:1004A00041FF00212046FFF765FF00220221204680
:1004B000FFF750FF1D212046FFF734FF40F00802F0
:1004C000D2B21D212046FFF745FF0122042120461C
:1004D000FFF740FF002205212046FFF73BFF0022E7
:1004E0000D212046FFF736FF00220E212046FFF7A0
:1004F00031FF00220F212046FFF72CFF00221021A0
:100500002046FFF727FF132120466422FFF722FF32
:10051000294620461EB1FFF743FF204670BDFFF776
:1005200082FFFAE70748084A08B5121A002104F0CA
:1005300039FD04F0FDF904F001FD04F000FA04F0C7
:100540003BFA00BF20020020BC17002070B50E4609
:100550000446154601F056FC013609D0204600211C
:1005600001F076FC29462046BDE8704001F06CBCE5
:1005700070BD38B504460D4603685AB182681360F1
:100580002046012101F064FC29462046BDE83840A0
:1005900001F05ABCC268F2E70022FFF7D7BF70B57E
:1005A0000E460446154601F02DFC013606D02A46BB
:1005B00020460021BDE87040FFF7DBBF70BD002280
:1005C000FFF7EDBF014800F003B800BF5852000824
:1005D000036870B5DB680446984763685A68236807
:1005E0001AB99B68BDE8704018475B681568984762
:1005F0006368281A00285A6807DC916859601B68EC
:10060000002BEAD050689847E7E7236810681B6919
:10061000BDE870401847000010B5044601300DD108
:1006200010BD9C4209D12046896801F0CFFF2046C9
:100630000021BDE8104002F04BB80C31B1F9003098
:100640005A1CEED10248BDE8104000F057B800BF78
:10065000A5520008884208B508D0431C06D00131D5
:1006600006D0044800F04AF84FF0FF31084608BDB4
:100670000146FBE774520008B1F900305A1C01D161
:1006800018467047834201D1486870470C31F3E740
:10069000421C10B5044607D0FFF7EEFF431C04468A
:1006A00002D1024800F02AF8204610BD8552000809
:1006B000EFF31080C04300F00100704708B5FFF76A
:1006C000F7FF72B6064B1A6822B980F00100054A9E
:1006D000C0B210701A681A6801321A6008BD00BFF3
:1006E000640200206002002008B5FFF7E7FF9620B3
:1006F00004F05EF8962004F05BF8F8E70FB40120F0
:1007000008B504F059F901F0CCBB000008B5024C63
:1007100023689847FCE700BF8C01002008B50B4810
:1007200000F09CFD0A4B18600A4800F097FD0A4B48
:1007300018600A4800F092FD094B186004F0FEFBB7
:1007400000210846BDE8084004F0F9B80453000849
:10075000C41100200053000870020020FC52000861
:1007600068020020FFF7D2BF10B5044600F0E4FC99
:1007700021460246BDE810400148FFF7BFBF00BF59
:10078000C452000804F036B90B4A0C4B0C4830B484
:100790001A60C2F1005303F54053B3F5E07F1946E8
:1007A00028BF4FF4E071074D074C01605B1A1A44F3
:1007B0002A60236030BC7047BC170020000F002067
:1007C0007402002078020020FC0E002000F01AFEC7
:1007D000FFF7DAFF0348002100F0C8FD00F02EFC0F
:1007E000FEE7000090010020024B4FF0FF31186837
:1007F00000F052BD70020020014B186800F074BD7B
:100800007002002030B502788C784368013AD2B289
:1008100013B19D78A54207D2022A4B60416006D8E9
:1008200003B19960886030BD18465B68F0E700232B
:100830008B6030BD02784368013A59684160022AF2
:100840004FF0000205D809B188605A609A601846D6
:1008500070475A60FBE70000034B5A684260002271
:1008600082605860704700BFB8160020104BDA68ED
:1008700010B58AB19A8ADC688A420CD3C460D86009
:10088000C468036104B12061521A92B28282998ACB
:100890008A1A9A8210BD3CB900248A1AC460D860B2
:1008A00003619A82848210BDA38A1A442346E2E738
:1008B000D01600202DE9F041174DEB6853B1AB8AFB
:1008C000164FDFF85C80013BAB820026AA8A0AB98A
:1008D000EC680CB9BDE8F081A36833B16168596078
:1008E000616809B18B606260A66021463846FFF7F7
:1008F00089FFA38AAB826378042B01BFD8F800304C
:10090000E28A9B18A38201236370E368EB600BB15A
:100910001D61E6602661D9E7D0160020B8160020D8
:100920004C17002083682BB142685A6042685AB164
:1009300093607047054B5A68904202D142685A60F2
:1009400070471346002AF6D1704700BFB816002042
:1009500010B5846801462CB94378012B0DD1074CA2
:1009600003E0A4682378002BFBD00846FFF7DAFFEA
:100970002046BDE81040FFF745BF10BDB816002067
:10098000036910B563B1C268DA60C2684AB1998A76
:10099000848A2144998213610023C3600023036188
:1009A00010BD9A82FAE7000070B4114BDD78EFF3C6
:1009B0001086EFF3108272B69A78954211D90132FF
:1009C0009A701A78541CA54208BF00241C7006B9FE
:1009D00062B6954207D903EBC20370BC58609960B8
:1009E0007047002EF4D0022070BCFFF7BDBE00BFE0
:1009F0003C110020836A9B0804BF224B1B88F0B582
:100A0000056B08BF9B0805EB8302540748BF043AF7
:100A10004FF0807602E94200A2F14004A2F14406C0
:100A2000A2F10C074FF0000E46F804EFBE42FBD1D6
:100A3000C66942F8206C41631249C4620968C90062
:100A400017D5112B15D9103B6FF007015B084B43ED
:100A5000A3F138010A444FF0CC30214691420BD12A
:100A600008331C44231F9D423CBF4FF0CC3344F855
:100A7000043C054B2B60F0BD41F8040C41F8080D17
:100A8000ECE700BF0C530008A52E5AE290F8252091
:100A9000C36A12B16033196070472033FBE710B5A9
:100AA00090F82540C36A1CB1603383E8060010BD8E
:100AB0002033FAE7054B1B7823B9054B4FF08052E2
:100AC0001A607047034B01221A707047CC0A00204D
:100AD00004ED00E0CD0A002038B51A4B1A4C186816
:100AE00001234370FFF7B8FE6578A3783BB9174838
:100AF0006570FFF79FFEBDE8384000F05DBD04EB78
:100B0000C503586802789AB9198900F0BBF9E378EF
:100B100001359D4208BF0025EFF31083EFF31082EB
:100B200072B6A278013AA270002BDED162B6DCE781
:100B3000012A03D1996800F033F9E8E701F044F89D
:100B4000E5E700BF041700203C110020B816002084
:100B5000084B1A68084B1A6000225A60072243F8B3
:100B6000042C064A136843F07F4313604FF0FF30B4
:100B7000704700BF2453000814E000E020ED00E0BF
:100B80007047000008B50B4B186801234370FFF74E
:100B900063FE00F0ADF9084A136801331360FFF7F4
:100BA00089FE00F091FC0548FFF744FEBDE80840CF
:100BB00000F002BD041700204C170020B8160020DA
:100BC000064B1A68136BD26A934203D81A68044B17
:100BD0009A4202D00120FFF7C7BD704704170020DA
:100BE000A52E5AE2002ABBBF22F000420732033290
:100BF00022F00702A8BF22F0030210B5B4BF1023F1
:100C00000C2392B1D4188C420FD8014403445442AF
:100C100041600360826021449818814202D30051F0
:100C20000346F9E70020186010BD012010BDEFF366
:100C3000108372B6026803F001030AB11168016003
:100C400003B962B61046704781420DD3436899429A
:100C50000AD2EFF3108372B602680A60016013F0E3
:100C6000010003D162B67047012070470020704731
:100C70000123103903708908002343708370436097
:100C8000038143818381C1817047000070B58589EC
:100C900004461646002D38D043891A1D013350F8FA
:100CA00022200A60C2899BB29A42438104BF00237A
:100CB00043814368F3B14378022B1BD1FFF7BAFDA0
:100CC00000210546FFF7E2FE2389E9691A1D013379
:100CD00044F82210E2899BB29A42238108BF002384
:100CE000284608BF2381FFF74BFE284600F07EFC14
:100CF000002070BDEFF31080EFF3108372B6013D5A
:100D0000A5810028F4D162B670BD4AB14268094B92
:100D100042B11968FFF776FD0821304600F08AFCE1
:100D2000012070BD1B6843605A60986001234370C6
:100D3000F2E700BF04170020C2898089101A7047AB
:100D400008B5FFF731FEBDE80840FFF7B3BE838961
:100D500010B504460BB34389043350F823300B60BD
:100D60004378022B04D10021FFF71EFEFFF7A2FEFD
:100D7000EFF31083EFF3108272B6A289013AA281D9
:100D800003B962B66389E28901339BB29A426381F7
:100D900001D100236381042010BD184610BD00005E
:100DA000436870B504460E46002B4BD04578022DA3
:100DB00020D0032D0AD0012D61D1FFF73BFD044661
:100DC00032461021FFF76BFE65700EE00846FFF714
:100DD0002EFF0546002852D02046FFF72BFD29465E
:100DE0000446FFF753FE012363702046FFF7C8FD5A
:100DF000214622E0FFF71EFD00210546FFF746FED3
:100E00002389E9691A1D44F82210EFF31082EFF3E9
:100E1000108172B6A1890131A18102B962B6E2895D
:100E200001339BB29A42238104BF00232381012313
:100E30006B702846FFF7A4FD29461148BDE87040B5
:100E4000FFF7E0BC8089E189884213D223891A1D0B
:100E500044F82260EFF31082EFF3108572B6013090
:100E6000A08102B962B601339BB2994208BF002348
:100E7000238170BD0320BDE87040FFF775BC70BDD5
:100E8000B816002010B5038B42781943062A044691
:100E90000183438B15D133EA010219D121EA030101
:100EA00021832046FFF76CFD012320466370628B8F
:100EB0000821FFF7F4FD21460648BDE81040FFF782
:100EC000A1BC052A04D111EA030201D04283E5E75F
:100ED00010BD00BFB8160020034B00221A60034A61
:100EE0001268DA80704700BFF0160020085300082F
:100EF00008B50E4B5A680E4B196891420D4905D042
:100F00001A60DA880868013A02449A8098880A8848
:100F100090420AD1002205481A60FFF78BFCBDE819
:100F2000084001460148FFF76DBC08BDB816002017
:100F3000F01600204C1700200B4A136830B500242F
:100F400043B90360816013B19D68691A996044B127
:100F5000206030BD9D68A942F3D31C46491B1B6825
:100F6000EEE7106030BD00BF00170020C0B1431C89
:100F700011D00C4B984211D80B4B1B684FF47A716F
:100F80005A1E01FB0020B0FBF3F34FF6FE708342C4
:100F900006D898B270474FF6FF7070474FF6FE7054
:100FA000704700BF00093D00C052000838B18307F8
:100FB00004D10378002B18BF002070470020704731
:100FC000B0B50E4D287800AFA8B90D4C236893F842
:100FD000241000F051FB2368DA78FF2A03D1DA6A83
:100FE000203282F3098862680AB984E80C0000F0B4
:100FF000FBFC01232B700020B0BD00BFFD160020BC
:1010000004170020014B1878704700BFFD16002020
:1010100010B5EFF3108434B9EFF305841CB9EFF386
:101020001484E40702D4034B187810BDDFF808C01D
:1010300000DF10BDFD1600200510000890B589B036
:1010400000AFEFF31083002B37D1EFF30583002BB4
:1010500033D1FFF7DDFF28B9194C246814B1646857
:1010600004B1A047EFF3148404F00304022C18D059
:10107000032C1CD0012C1ED007F1200484F3098816
:10108000104C2478E40710D5022484F31488BFF3AD
:101090004F8FBFF36F8FDFF830C000DF2437BD46BE
:1010A00090BD084C2478E407F5D40324EDE7054C03
:1010B0002478E407EFD5FF20F0E78220EEE700BFB9
:1010C000EC160020EE520008C10F000870B50B4668
:1010D0001646024610B90024204670BD006800285C
:1010E000F9D0B2F90440E51CADB2062DF3D8D168B1
:1010F000C1B11269043444EA012100F0FBFA00286E
:10110000E9D00A4B0A4A013853F82040E36A5A638F
:10111000084B1B6843B19B6833B13146E078984770
:10112000E063D9E70A46E5E7E663D5E7201100204A
:10113000B9120008EC16002008B500F095FA18B1B5
:101140000138024B53F8200008BD00BF20110020D9
:1011500010B5FFF72BFF044670B1084B1B681BB19D
:10116000DB680BB1C06B9847E07800F019FBFF28F3
:101170000CBF8120002010BD802010BDEC16002087
:1011800008B528B1FFF7F2FE00F01AFD402008BDB7
:1011900008BD000010B5EFF3108434B9EFF30584F7
:1011A0001CB9DFF80CC000DF10BD822010BD0000AC
:1011B00081110008830705D138B1436901691B68B3
:1011C0001846704700231946FAE70346FBE700007C
:1011D00010B504460846DFF80CC000DF84E80300C1
:1011E000204610BDB511000810B548B1046824B1FF
:1011F000237823B9204600F03DFC204610BD002096
:1012000010BD70B510F0030405460E4611D180B133
:101210000378032B0DD10846FFF7A8FE01462846A8
:1012200000F0A0FC012806D1002E14BFC1208120AF
:1012300070BD802070BD204670BD820708B50AD100
:1012400048B10378032B06D100F01CFCFF280CBF2B
:101250008120002008BD802008BD000070B5054633
:10126000EFF3108494B9EFF305867EB9EFF314849D
:10127000E40706D4064C24781CB9BDE87040FFF79B
:10128000B3BF2846DFF80CC000DF70BD002070BD82
:10129000FD160020E911000810B5EFF3108434B9F1
:1012A000EFF305841CB9DFF80CC000DF10BD82200D
:1012B00010BD000003120008084808B54FF0FF31C8
:1012C0000068FFF7E9FFDFF818C000DF0446FFF70A
:1012D00059FA2046DFF80CC000DFFEE7F8160020C0
:1012E000391100085111000810B5EFF3108434B91A
:1012F000EFF305841CB9DFF80CC000DF10BD8220BD
:1013000010BD00003B1200082DE9F04180460F4659
:101310001646EFF3108404BBEFF30583D3B9EFF364
:101320001483DB0706D40E4B1B781BB9BDE8F041D4
:10133000FFF7CCBE0B4D4FF0FF312868FFF7ACFF35
:10134000404639463246DFF820C000DF04462868B0
:10135000FFF7CAFF2046BDE8F0810024FAE700BF8E
:10136000FD160020F8160020CD1000080022FFF71F
:10137000CBBF10B5044660B1016851B1406848B1B7
:10138000037833B90431890089B2FFF771FC6068D2
:1013900010BD002010BD000038B5114C23780BB9EA
:1013A00000F0A8FA0F4B25781B68FF229A708DB9C0
:1013B00029460D48FFF7DDFF0C4B2A4618602946E9
:1013C0000B48FFF783FE0B4B18600B48FFF746FFF7
:1013D0000A4B186001232370094B0020187038BD98
:1013E000FC16002004170020F4520008C011002051
:1013F00010530008B416002028530008F8160020E7
:10140000FD16002010B5EFF3108474B9EFF30584D6
:101410005CB9EFF31484E40703D4BDE81040FFF790
:10142000BBBFDFF80CC000DF10BD822010BD000084
:10143000991300082DE9FF410C46804618B3037844
:10144000012B25D10846FFF791FD02A9024640462F
:10145000FFF71CFC012811D10020002C0246034696
:1014600018BF4020029904460D4616461F462046E6
:10147000294632463B4604B0BDE8F08100200246D2
:1014800003461020EEE78024054606460746EEE7B1
:10149000002580242E462F46E9E770B50E461446F7
:1014A000054660B15AB90378012B08D1FFF744FC17
:1014B00038B128463146FFF743FC204670BD8020F6
:1014C00070BD812070BD0000F8B5114E34682CB19C
:1014D000A368104F013BA360A26802B1F8BD256864
:1014E000386835602146FFF7D8FF10B10420FFF7B8
:1014F0003BF96379012B07D1E1682046FFF71CFD1A
:10150000002DEBD02C46E7E701232371F8E700BF5D
:1015100000170020C01100207FB50446164608467B
:1015200001B122B180232360204604B070BD0B7846
:10153000012BF7D102A9FFF70AFC042808BF1023EA
:1015400001AD14BF0196019395E8070084E80700F8
:10155000EAE7000038B504461546EFF3108010B9ED
:10156000EFF3058028B12A462046FFF7D5FF204635
:1015700038BD08461146DFF80CC000DF84E80700DC
:10158000F5E70000351400087FB50A4C21684FF0DC
:10159000FF3203A8FFF7DEFF039B102BF6D104995F
:1015A00001A8FFF715FE019B002BEFD0029898478A
:1015B000ECE700BFC0110020054B586002234370C8
:1015C000044B1B681BB11B690BB1C06B18477047FC
:1015D00004170020EC16002008B50348FFF72AF98D
:1015E000BDE80840FFF7E8BFB816002070B5044614
:1015F00018B9BDE87040FFF7EFBF0C4EA278306815
:1016000083789A424FF0010508D9FFF725F933682E
:101610005D702046BDE87040FFF7CEBF6570214683
:101620000348BDE87040FFF7EDB800BF0417002085
:10163000B816002038B50D46014680B14FF6FF734D
:101640009842074C02D02068FFF710F9236805483C
:101650005D70FFF7EFF8BDE83840FFF7ADBF38BD6C
:1016600004170020B8160020024B186800B1C0789B
:10167000704700BF0417002010B5A8B9194B1B68AC
:10168000997083F82410184843689B788B4201D8DE
:10169000002010BD134C2168FFF7B4F82368012225
:1016A0005A70FFF799FFF3E7104B1B88984217D841
:1016B00001380F4B53F8204094B10A4BA1701B68BE
:1016C00084F824109C42DED02046FFF741F963786D
:1016D000012BDDD10448FFF7ADF8FFF787FFD7E70F
:1016E000FF2010BD04170020B8160020F05200089B
:1016F000201100202DE9F04711F0FF0F0D46804624
:10170000234816469A4608BF0135FFF790FA04466B
:1017100020B94FF000094846BDE8F0871D4B06632D
:101720001B881D4E280AA06200218B4201F101098D
:10173000EFD006EB89020F4652F8042C4946002AE6
:10174000F3D1EDB2012384F80390C4F81CA0C4F8CF
:1017500038A022706370A57084F824506260A26083
:10176000E26022612262A282E2822283628384F8A2
:10177000252018B90948FFF75AFA20632046414648
:10178000FFF738F9204646F82740FFF72FFFC2E75A
:10179000E8140020F052000820110020100F002053
:1017A0002DE9F84F4D4D18B12B68DB78984241D1A7
:1017B0002C68DFF83C810023637003F046F9E06297
:1017C000FFF7FEF92B681C6A0127A4B92A6844496F
:1017D000D3784448013B41F82340116BFFF734FABA
:1017E000296841480C63FFF72FFA2C60FFF7F4FEDD
:1017F0002046BDE8F88F6368B3B12046FFF71AF8BA
:1018000000210646FFF742F93046FFF7B9F8777036
:1018100031464046FEF7F6FFE368326A6780A6600D
:10182000E26034621C46D0E7E2686380A360E36054
:101830001446CAE72D4B1B8898424DD8284B471EAB
:10184000994653F82760002E46D03046FFF76AF8D5
:101850003046FFF795F8DFF898B0346A4FF0010A88
:10186000B4B9316B1F4849F82740FFF7EDF931460D
:1018700034631D48FFF7E8F91D48296843689A78E2
:101880008B789A42B4D901234B70FEF7BBFFADE7CA
:101890006368DBB12046FEF7CDFF00218046FFF7ED
:1018A000F5F84046FFF76CF888F801A04146584625
:1018B000FEF7A8FFE368D8F82020A4F802A0C4F837
:1018C0000880E260C8F820401C46C9E7E2686380EF
:1018D000A360E3601446C3E7FF2489E704170020F0
:1018E00020110020100F0020E8140020F052000802
:1018F000B816002038B52C4B2C491A8800231846FE
:1019000093424DD32A4B2B4819882B4C4022FFF78A
:1019100069F92A4B2A481A882A4B42F00042196872
:10192000FFF760F9284B1988284B08221868FFF741
:1019300059F9FF230025E3702148A5620123637054
:101940002570A57084F824506560A560E560256168
:101950002562A582E5822583658384F82550FFF7FB
:1019600066F91B4920632046FFF744F8194B04220F
:101970001A705D60184B1A70DD601D619D82174BF7
:1019800020461C6002236370FFF716FE144A154BB5
:1019900012781D705D70DA70BDE83840FFF79CBAB0
:1019A00041F823000133ABE7F0520008201100207A
:1019B000BC520008E81400200C1700200C5300084B
:1019C000100F0020B8520008BE5200086C02002020
:1019D00065070008B8160020D01600200417002064
:1019E000ED5200083C11002008B51E4B1A6842F465
:1019F0007F021A601B681B0203F07F43DB43B3FACC
:101A000083F3194A194812680168DBB2C3F108036D
:101A1000C2F30222934298BF531C6FF0807202FA05
:101A200003F303F07F4321F07F4213430360FFF78A
:101A30008FF80F4B0028186012DB00F1604000F5B2
:101A40006440FF2202701A6853099B0003F160434F
:101A500003F5614302F01F02012101FA02F21A604C
:101A600008BD00BF20ED00E00CED00E01CED00E043
:101A7000E816002003230370002343804360836043
:101A8000C36070472DE9F84343880546002B63D0B7
:101A9000324F81683A6891425ED1013B9BB24380EC
:101AA0001BB100242046BDE8F8830B6A984229D177
:101AB000C3680B6291F824300C6A5CBB8B706A6857
:101AC000DFF89C80002A3BD02846FEF7B3FE214673
:101AD0000646FEF7DBFF3046FEF752FF336AEB6047
:101AE0004FF001093968D8F80430A5F80290AE60CB
:101AF00035628A789B789A4214D33046FFF776FD98
:101B0000D0E71346002BD5D0DA689542F9D1EA68C0
:101B1000DA60CFE762681AB19278934238BF134611
:101B2000E468CAE74046FEF76DFE31464046FEF7E0
:101B300069FE3B6883F8019086F801902046DDE756
:101B4000D8F8042092789A42ABD94046FEF75AFE64
:101B50003B6801225A70F1E7FF24A3E70417002035
:101B6000B8160020438870B504460E46134D43B99D
:101B70002A688260116AC1601062013363800020AC
:101B800070BD80682A689042F7D081B193788278DE
:101B90009A4202D28370FEF7DBFE62684AB129687E
:101BA0002046FEF72FFE09213046FFF743FD0120B6
:101BB00070BD2B6863605A609C60F4E704170020D6
:101BC0000321FFF737BD0000426810B57AB1FEF778
:101BD00031FE0446FEF7D4FE012161702046FEF777
:101BE00055FF21460448BDE81040FEF70BBE428871
:101BF0000132428010BD00BFB816002070B5134CF2
:101C000023681A69950707D5DA68900704D56FF03D
:101C100002021A61FEF7D6FC23681A69510713D530
:101C2000DA68520710D56FF00402094E1A615D6A36
:101C30003368EB1AB3F57A7F06D302F0FBFB236817
:101C400005F57A729A63356070BD00BF50170020A9
:101C5000E00A002030B589B001A903A802F022FBF8
:101C600002F0F0FA244B0190DA69244C42F00102B0
:101C7000DA61DA6902F001020292029A1A6942F00C
:101C800001021A611A6922F001021A61069A4FF0E4
:101C9000804323604FF0FF33E360194B4ABBB0FB36
:101CA000F3F001380025606014482561A560656186
:101CB00002F062FB13491C2000F01EFF124B0F487C
:101CC0004FF080521A60294602F09EFB04210B4817
:101CD00002F09AFB23680D4A596A1160126802F5F6
:101CE0007A729A63DA68284642F00402DA6009B030
:101CF00030BD4000D3E700BF001002405017002065
:101D000040420F00FD1B000800E100E0E00A002057
:101D10004FF08043034A1360DA6822F00402DA606D
:101D2000704700BF501700204FF08043034A1360F4
:101D3000DA6842F00402DA60704700BF50170020F2
:101D40007FB5052843D8DFE800F003121E2A42368B
:101D5000214B5A6942F400325A615B6903F4003343
:101D60000193019B4FF0904007B05DF804FB1A4BC4
:101D70001A485A6942F480225A615B6903F480234D
:101D80000293029BF0E7144B15485A6942F4002273
:101D90005A615B6903F400230393039BE4E70E4B52
:101DA00010485A6942F480125A615B6903F4801347
:101DB0000493049BD8E7084B0B485A6942F480020D
:101DC0005A615B6903F480030593059BCCE70748E0
:101DD000FEF794FC0020C7E7001002400004004812
:101DE00000080048000C0048001400482C5300086C
:101DF00010B50021044604F00F0400F0E7FB0120B9
:101E0000A04010BD70B504464B1C0E46218218D070
:101E1000C1F30310FFF794FF05463046FFF7E8FFD4
:101E2000238A084A656103F00F03206052F82330CB
:101E3000A36105F11003636005F118032835A36061
:101E4000E56070BD50530008B0F9100000F040BCD0
:101E500010B58369446971B9216893FAA3F2B2FAA3
:101E600082F20320520000FA02F221EA020293FAFF
:101E7000A3F3226010BD226893FAA3F1B1FA81F1B5
:101E800093FAA3F30320490000FA01F1B3FA83F3B4
:101E900022EA01025B00012101FA03F313432360EC
:101EA00010BD08B5FFF734FF0121002000F044FE0B
:101EB000BDE80840FFF738BF384B5A692DE9F041BB
:101EC000374CD20723602AD59868364F9968364E2A
:101ED0009A68364D3840B84201EA060104BF01272E
:101EE0009F60B14208BF2D4B02EA050204BF4FF4C8
:101EF00080769E60AA4202BF284B4FF480359D60D9
:101F0000284B984205D0284B994202D0274B9A4241
:101F100005D1274B274A1B68106801219847236881
:101F2000DA685B69970707D09E0705D5204B214AE1
:101F30001B68106800219847236899695A695B6992
:101F40008D0709D5900507D5190405D5184B194AF1
:101F50001B6810680521984722689669556952697F
:101F600016F0040605F4806508D03DB1120405D5CD
:101F70000F4B104A1B6810680721984723685B695C
:101F800056B14DB11B0407D5094B0A4A1B681068AE
:101F90000221BDE8F0411847BDE8F081006400402F
:101FA000E40A0020030000040003000800000310FE
:101FB000280B0020240B0020FFF77EBFFFF77CBF1B
:101FC000054B186838B901221A60044B4FF0804263
:101FD0001A60FFF73FBE70472C0B002050170020FF
:101FE00008B5044B1B680BB9FFF7EAFF4FF08043BD
:101FF000586A08BD2C0B00204FF08043034A136041
:102000005863DA6842F00202DA6070475017002025
:102010004FF08043034A1360DA6822F00202DA606C
:10202000704700BF50170020034A4FF080431360F1
:102030006FF002021A6170475017002010B5054B6F
:102040001C68204600F0A8FF2046BDE8104001F0C3
:102050007ABB00BF300B0020F8B590F95C4090F9D6
:102060005D5006460F46204600F046FD394628469C
:1020700000F042FD96F86C30002B0CBF02230123C8
:10208000002CA8BF04F160424FEA0313AFBF02F572
:102090006142144A04F00F00D9B2AABFD9B2115458
:1020A00082F80013002DADBF05F1604205F00F016D
:1020B0000C4A02F56142B5BFDBB2DBB2535482F881
:1020C000003361090123084A04F01F0403FA04F4F1
:1020D00042F82140690905F01F0503FA05F542F8A9
:1020E0002150F8BD14ED00E000E100E010B590F9DA
:1020F0005D4090F95C0002F0E1F92046BDE8104037
:1021000002F0DCB990F85030044A011D002B04485D
:1021100042F8231018BF0020704700BF300B00208A
:102120003D2000080D4B02681B68416DB3FBF1F1C7
:10213000142342604B439169090401D5013BFAD154
:10214000074B9A4209D103F5DE331A6942F40012B3
:102150001A611A6922F400121A617047A401002062
:1021600000540040F8B52B4B0D461A68436DB2FB86
:10217000F3F114234B4341680446061D88690004AB
:1021800001D5013BFAD1244B9A42244B32D1244A47
:10219000954207D09D422BD0224B234A954218BF2F
:1021A000002300E0214BA3601C4B214F9D4206D130
:1021B0002368BB4203D14FF4801001F035FB236844
:1021C000BB4201BF1B4A136B43F010031363002192
:1021D000304601F002FB0123236100236361236287
:1021E0006362E360A361304600F066FD6565F8BD9B
:1021F000114BD8E711498A420AD1094A954203D0C6
:102200009D4203D00E4BC8E70E4BCCE70E4BCAE7FE
:102210000023C8E7A40100200090D00340420F0033
:10222000801A0600B47DB110A08601006321E2008F
:1022300000540040001002401E0DA00000A24A04FD
:10224000CB8DD2107125F300240DC000F7B50E46DA
:1022500004462B4930461546FEF71AFA2949074627
:102260002846FEF715FAA4F858600146A4F85A501B
:102270003846FEF7EFF9244B2060984225D1002321
:1022800084F8503003F1804303F504331C49DA69C4
:1022900042F40012DA61DB6903F400130193304663
:1022A000019BFEF7B9F917492846FEF7B5F9032156
:1022B000304600F00DFA0321284600F009FA1F23EA
:1022C00084F85C30202384F85D30636D0BB90F4BCC
:1022D00063652046FFF726FF616D2046FFF742FF4A
:1022E00000234FF0007284F86D3084F86C3084F86D
:1022F0006E30226684F86430A36603B0F0BD00BF80
:10230000CC530008A853000800540040A0860100E8
:102310002DE9F341044690460898261D1D468FB2CC
:1023200003B16AB90A2301223946304600F015FD8F
:1023300000284FD06FF00105284602B0BDE8F081BB
:10234000236EB3F1007F39D118B14FF000732366CB
:1023500000E02066002384F864302046FFF7D2FEB8
:1023600001462046FFF778FE236E00934246ABB24B
:102370003946304600F0BCFD0028DBD1164B1E6804
:10238000636DB6FBF3F31E2605FB06665E4394F809
:10239000643013F01E0F01D1013E17D12046FFF724
:1023A000A5FE1EB194F86430082BC5D0B4F95A20AC
:1023B000B4F958102046FFF749FFBBE733F08073AC
:1023C000C8D10028C1D14FF08073C0E7012002F0CE
:1023D000C9F9DCE70546AFE7A40100202DE9F34188
:1023E000044690460898261D1D468FB203B16AB96F
:1023F0000A2301223946304600F0AFFC00284FD0B6
:102400006FF00105284602B0BDE8F081236EB3F1FC
:10241000007F39D118B14FF00073236600E02066C9
:10242000002384F864302046FFF76CFE0146204606
:10243000FFF712FE236E00934246ABB23946304698
:1024400000F016FD0028DBD1164B1E68636DB6FB4D
:10245000F3F31E2605FB06665E4394F8643013F022
:102460001E0F01D1013E17D12046FFF73FFE1EB1DE
:1024700094F86430082BC5D0B4F95A20B4F9581038
:102480002046FFF7E3FEBBE733F08073C8D1002896
:10249000C1D14FF08073C0E7012002F063F9DCE79F
:1024A0000546AFE7A4010020836F07B5BBB1D0F8A4
:1024B0008830A3B190F8702072B14FF00072C265FD
:1024C000C26DB0F86C1000929BB2D0F8842000F07E
:1024D0000FFD03B05DF804FB4FF08072EFE70823B7
:1024E00080F86030F5E7082380F86030704738B531
:1024F000051D0446C260284600F0DEFB2046FFF7BB
:1025000001FE01462046FFF7A7FD2846BDE83840FA
:1025100000F02EBD70B590F868500446061F05B156
:102520008568B4F95620B4F954103046FFF78EFE92
:1025300045B1012384F8683000232A461946304605
:10254000FFF7D5FF022384F8603070BD012902D166
:1025500080F86910704711B9012380F86A3070471C
:10256000002380F869307047002380F86A30704794
:1025700000F0FEBC10B5044650F80429136823F09F
:10258000FE031360FFF7B2FD022384F8603010BD34
:1025900030B5C36891FAA1F4B4FA84F491FAA1F1C8
:1025A0000325B1FA81F1640005FA04F4490023EA35
:1025B000040302FA01F11943C16030BD012A02D0BF
:1025C000022A18BF0022FFF7E3BF00002DE9F04107
:1025D0003E4B00F00F08C0F303100E4601F0070554
:1025E00053F82840FFF7ACFB826894FAA4F3B3FADF
:1025F00083F394FAA4F103275B00B1FA81F107FA9F
:1026000003F322EA03034A0007FA02F21343022DFE
:10261000836028D0BD4241D0012D3FD00023026805
:1026200094FAA4F7B7FA87F794FAA4F14FF0030EDF
:10263000B1FA81F17F000EFA07F7490022EA07029A
:102640008B40013D1343012D036005D843683207D9
:102650004CBF2343A3434360C6F301122146BDE8A8
:10266000F041FFF7ABBFB8F1070FC6F3032717D947
:10267000426A230A93FAA3F1B1FA81F193FAA3F320
:102680004FF00F0EB3FA83F389000EFA01F19B00AD
:1026900022EA010207FA03F3134343622B46BEE723
:1026A000026A94FAA4F3B3FA83F394FAA4F14FF014
:1026B0000F0EB1FA81F19B000EFA03F3890022EAB2
:1026C000030207FA01F313430362E7E750530008DC
:1026D00000F00F021C4B70B5C0F303100D4653F809
:1026E0002240FFF72DFB066894FAA4F1B1FA81F3BA
:1026F00094FAA4F259000323B2FA82F28B403340D9
:102700005200D340013B012B05D8EB1E022B43683E
:1027100009D823434360032D08D101222146BDE897
:102720007040FFF74BBF23EA04034360012DF4D050
:10273000052D01D0022D01D10222EFE72146002212
:10274000BDE87040FFF724BF5053000843681849A4
:1027500070225A4310B58B1804688C5082685A60F6
:10276000C2689A600269DA6042691A61C2699A6154
:102770000022A3F85220A3F85020A3F85A20A3F86F
:102780005820B0F91A2001320AD108225A6118469D
:1027900001F0BFF958B10748BDE81040FDF7AEBFE2
:1027A000B0F9182001320CBF04220C22EEE710BD54
:1027B000480B002090530008F0B50E4685B0044643
:1027C000494930461546FDF763FF48490746284604
:1027D000FDF75EFF01463846FDF73CFF444B2060A5
:1027E000984251D103F55843DA6842F48042DA60E6
:1027F000DA6822F48042DA609A6942F480429A618F
:102800009A6902F480420192019A1A6B22F0030243
:1028100042F001021A630023636033493046FDF73A
:10282000FBFE32492846FDF7F7FE721C03D001215A
:102830003046FFF74DFF6B1C03D001212846FFF700
:1028400047FF4FF41653A3600023E36023616361E5
:10285000E361268365832046FFF778FF2268254BD6
:102860009A420FD1244B01221A60244B04F1200517
:10287000206861681A4603C20834AC421346F7D197
:102880002068106005B0F0BD1A4B984214D103F5D2
:10289000E6331A6942F400321A611A6922F40032EE
:1028A0001A61DA6942F40032DA61DB6903F4003359
:1028B0000293029B0123AFE7114B9842ADD103F580
:1028C000E4331A6942F480221A611A6922F48022E0
:1028D0001A61DA6942F48022DA61DB6903F4802349
:1028E0000393039B022397E738540008F053000832
:1028F0000038014000440040440B002090170020A5
:10290000004800408160FFF721BF0000426870234B
:102910005343034AD358D869C0F34010704700BFEF
:10292000480B002010B5446801460846FFF7EEFF4B
:102930000028FAD07023054AC9686343D358988C9D
:1029400009B9C0B210BDC0F3080010BD480B00208B
:10295000426870235343034AD358D869C0F3C01068
:10296000704700BF480B002038B545680446204634
:10297000FFF7EEFF0028FAD07023054AE0686B43AA
:10298000D35810B9C9B2198538BDC1F30801FAE7A7
:10299000480B002008B500F005F8BDE8084001F03C
:1029A00037BD0000144A1549536803F00C03042B8B
:1029B00010B501D0082B0AD0114B0B605368114A97
:1029C000C3F30313D25C0B68D3400B6010BD536894
:1029D0005068C00349BFD06A0B48094C00F00F0093
:1029E000C3F3834348BF013003F1020348BFB4FB84
:1029F000F0F04343E1E700BF00100240A4010020D3
:102A000000127A008054000800093D0030B591B0F2
:102A10000323069301230A93102300240B9302251A
:102A20004FF4601306A807940D950E940F9301F0D0
:102A3000A3F880B90F23019303904FF480630590AE
:102A4000294601A80295049301F03AFBB0FA80F000
:102A5000400911B030BD2046FBE708B5FFF7D6FFAF
:102A600000B9FEE708BD00001D4AD2F8883010B555
:102A700043F470031B4CC2F88830236843F0010311
:102A800023606168184B0B406360236823F08473F4
:102A900023F480332360236823F480232360636856
:102AA00023F4FE036360E36A23F00F03E362216B08
:102AB0000E4B0B4023630023A3604FF00063936031
:102AC0000B4B0C4A1A6001F0A3FCFFF7C6FF236909
:102AD00043F001032361236923F00103236110BD47
:102AE00000ED00E0001002400CC07FF8CCFC00FFBD
:102AF000A401002000127A0030B50C4CA268A46832
:102B0000B4F1006F13460CD1131F094C094A53F856
:102B1000045F42F8045FA242F9D1044A4FF0005327
:102B20009360103043F8201030BD00BF00ED00E08E
:102B300084010020FCFFFF1F064A1369012923F0CE
:102B40000403136101D130BF704740BF20BF20BFD5
:102B5000704700BF00ED00E003689A69910744BF29
:102B600000229A629A69D2075EBF9A6942F0010216
:102B70009A61704730B50568039C686820F07F70E3
:102B800020F45930C1F30901234320F47F70194325
:102B900020F0030041EA02410143696030BD0000BA
:102BA000184B30B5446B9C4201F0120201F0040353
:102BB00002D0154DAC4213D1002B01F011010CBF16
:102BC0000023B823112908BF43F09003122A01D132
:102BD00043F06003026811680B431360002030BDAE
:102BE000002B0CBF0023B823CC0748BF43F0F203EF
:102BF000890748BF43F0F403122A08BF43F02003BB
:102C0000E8E700BF813600083D34000811F00103F9
:102C100007D090F8413003F02803282B0CBF422343
:102C2000F2238A0709D590F8412002F02802282AC9
:102C30000CBF43F0440343F0F4034A0701F01102D0
:102C400048BF43F0B80301F01201112A08BF43F056
:102C50009003122901680A6808BF43F0600322EA62
:102C600003030B60002070472DE9F041069F0446E6
:102C7000884616461D462268936938EA03030CBF4E
:102C800001230023B34202D00020BDE8F0816B1C79
:102C9000F2D055B9202384F84130002384F8423023
:102CA00084F840300320BDE8F08101F0CBFBC01B6D
:102CB0008542E0D2EEE7704710B5044600284AD0BE
:102CC00090F8413003F0FF021BB980F84020FFF775
:102CD000F2FF242384F841302368E1681A6822F067
:102CE00001021A60626822F070621A619A68012912
:102CF00022F400429A60A26824D142F400429A6011
:102D00005A68616942F0007242F400425A60DA681F
:102D100022F40042DA6022690A43A16942EA0122F0
:102D2000DA60216AE2690A431A601A6842F0010215
:102D30001A6000202023606484F84130206384F806
:102D4000420010BD42F4044202299A6004BF4FF4CD
:102D500000625A60D4E7012010BD2DE9FF471D46EF
:102D60000023039390F84130202B044690467CD1F9
:102D700003689B6913F4004377D190F84020012A3F
:102D800073D0012280F84020C1F30906242280F884
:102D9000412046F420594364E3682268012B06BFB2
:102DA00046F0007343F400534B46536001F04AFB76
:102DB000074623689A69910612D59A6912F01002A3
:102DC0002AD100972B4620212046FFF74DFFC8B19E
:102DD00003201EE001F036FBC01B8542E9D20AE069
:102DE0009A69D206E9D494F84120A02AE5D0681C5B
:102DF000E0D0002DEED1202384F84130002384F868
:102E00004030E5E722682023D36184F8413084F81C
:102E1000400004B0BDE8F087002200972B46202137
:102E20002046FFF721FF02460028D1D12368102158
:102E30004FF0200AD961C3F81CA00399481C4145F2
:102E400003900ED1596841F48041596020460097A3
:102E50002B465146FFF708FF0028B9D12368C3F875
:102E60001CA0039B984597D8C5E70220D1E7000036
:102E700037B5044690F84100202834D194F840003A
:102E8000012830D0012084F84000212084F841003E
:102E9000102084F84200002060646385069B626213
:102EA00023F08073E362114B6363638D9BB2FF2B4E
:102EB0008BBFFF23638D238523854FF400508CBF88
:102EC0004FF08073E36A94F8282000900025204694
:102ED000FFF750FE84F8405001212046FFF760FEC6
:102EE000284603B030BD0220FBE700BF6335000871
:102EF00037B5044690F84100202834D194F84000BA
:102F0000012830D0012084F84000222084F84100BC
:102F1000102084F84200002060646385069B626292
:102F200023F08073E362114B6363638D9BB2FF2BCD
:102F30008BBFFF23638D238523854FF410508CBFF7
:102F40004FF08073E36A94F8282000900025204613
:102F5000FFF710FE84F8405002212046FFF720FEC4
:102F6000284603B030BD0220FBE700BF63350008F0
:102F700090F84120202A08B509D1282280F8412064
:102F8000044A42630421FFF70BFE002008BD022023
:102F900008BD00BF8D3200080268436B916912685A
:102FA00003B11847704738B5002580F8425090F8B3
:102FB0004130212B4FF02003044680F841300BD1E3
:102FC0001123036345630121FFF720FE84F840507D
:102FD0002046FFF769FA38BD1223036345630221D7
:102FE000FFF714FE84F840502046FFF77CFA38BD06
:102FF00038B5002580F8425090F84130292B04461E
:103000000DD1282380F84130212303630121FFF7EC
:10301000FDFD84F840502046FFF7A2FA38BD90F835
:1030200041302A2B0CD1282380F84130222303631E
:103030000221FFF7EBFD84F840502046FFF794FA99
:1030400038BD0000164B10B52022C3620023036375
:10305000436380F8412080F842304B07044611D585
:10306000436A5A1C42620268526A1A70038D4BB15D
:10307000013B0385438D013B9BB24385436C43F089
:103080000403436407212046FFF7C0FD2368102294
:10309000DA61002384F840302046FFF769FA10BD5A
:1030A0000000FFFF704770470023354A10B580F8D5
:1030B0004230C2624385436C1943416490F8413009
:1030C000282B044607D090F84130292B03D090F8E4
:1030D00041302A2B22D103212046FFF797FD2823D8
:1030E00084F8413000232363264B63632368196807
:1030F0001A6811F480411ED022F48042A06B1A603D
:10310000214B4363002384F8403001F0A1F90028EB
:1031100034D0A06B436BBDE8104018470721FFF780
:1031200075FD94F84130602B1CBF202384F841309A
:1031300000232363D9E712F400420DD01A68E06B34
:1031400022F400421A60104B436384F8401001F0EF
:103150007FF998B1E06BDDE794F84130602B08D13E
:10316000202384F8413084F840202046FFF702FAFB
:1031700010BD84F840202046FFF7CCF910BD00BFF9
:103180000000FFFF8D320008A937000838B503683A
:1031900020220446DA610822DA610D460721FFF792
:1031A00035FD23685A6842F400425A605A6822F09A
:1031B000FF7222F48B3222F4FF7222F001025A6075
:1031C0002046FFF7C9FC22681368580402D413682C
:1031D000190409D594F84130212B0CBFA36BE36B84
:1031E0001B685B689BB26385638D9BB21BB1636C8C
:1031F00043F0040363646B0710D5636A526A591C79
:1032000061621A70238D4BB1013B2385638D013BB5
:103210009BB26385636C43F0040363640023236300
:1032200084F842306363636C6BB1616C2046FFF7D6
:103230003BFF94F84130282B24D129462046BDE895
:103240003840FFF7FFBEE26A12F5803F0AD00E4A0F
:10325000E262202284F8412084F840302046FFF7C3
:1032600087F938BD94F8412084F84030222A4FF085
:10327000200284F84120204602D1FFF775F938BDBD
:10328000FFF76EF938BD00BF0000FFFF2DE9F843DE
:1032900090F84030012B04460E46174600F0CB80D4
:1032A0000123CD0680F840303ED5D0063CD5638D55
:1032B0009BB28BBBE36AB3F1007F03D0E36AB3F147
:1032C000007F14D194F84130282B10D1314620468C
:1032D000FFF7B8FEB20605D5BB0603D5314620463A
:1032E000FFF754FF002084F84000BDE8F883E36A4C
:1032F00013F5803F23680CD094F84120292A08D187
:103300001022DA612046FFF727FC2046FFF770FE07
:10331000E0E71022DA61DDE723681022DA61636CEE
:1033200043F004036364D5E771071AD57A0718D50B
:10333000638D9BB263B1636A5A1C62622268526AEF
:103340001A70238D013B2385638D013B9BB26385FE
:10335000638D9BB2002BBDD1E36A13F5803FD4D1BE
:10336000B8E7330746D53D0744D594F8413003F01C
:103370002803282B236837D19A69E1689D690229BF
:103380004FEA1545C2F3004805F0FE059A68D3F8E8
:103390000C9020D1C2F3090285EAD21515F006057A
:1033A0000FD1A16C0131A164A16C022992D1082135
:1033B000A564D96184F8405041462046FFF7C6F81D
:1033C00088E704212046FFF721FC002384F84030E1
:1033D00009F0FE02F0E704212046FFF717FC002366
:1033E00084F840302A46E7E70822DA61002384F8AF
:1033F00040306FE7B0077FF56DAFB9077FF56AAF73
:10340000638D9BB26BB1636A2268591C61621B7841
:103410009362638D013B9BB26385238D013B2385C2
:1034200058E7E36AB3F1807F3FF46FAFE36A002BA4
:103430003FF46BAF4EE70220BDE8F88390F84030D0
:10344000012B10B504462ED0012380F84030C80669
:1034500019D5D30617D594F841302268212B0CBF1B
:10346000A36BE36B1B685B68B3FA83F310215B0902
:10347000D1611BB1002084F8400010BD636C43F0A3
:1034800004036364F6E7080705D5130703D523682B
:103490000822DA61EEE78806ECD59306EAD52046E5
:1034A000FFF774FEE6E7022010BD0368202210B586
:1034B000DA615A6822F0FF7222F48B3222F4FF7232
:1034C00022F001025A60002202634263A2F58032B8
:1034D000C262CA06044605D51022DA61436C43F085
:1034E000040343642046FFF737FB03212046FFF720
:1034F0008DFB636C1BB994F84120602A05D1616C87
:103500002046BDE81040FFF7CFBD94F84120212AA6
:1035100011D1202284F8412094F8422084F84030D0
:10352000402A84F84230204602D1FFF7BBFD10BD8F
:10353000FEF7BAFF10BD94F84120222A10D12022B4
:1035400084F8412094F8422084F84030402A84F8DE
:103550004230204602D1FFF7A6FD10BDFEF7C3FFA3
:1035600010BD90F84030012B73B504460D46164649
:1035700000F084800123CA0680F8403017D5F30696
:1035800015D503681022DA61436C43F004034364E9
:10359000FFF7E2FAAA0605D5B30603D52946204669
:1035A000FFF783FF002084F8400002B070BD680779
:1035B0000FD571070DD5636A5A1C62622268526A80
:1035C0001A70238D013B2385638D013B9BB263857C
:1035D000E0E7AA0708D5B30706D5636A2268591C35
:1035E00061621B789362ECE7280632D5710630D50C
:1035F000208D226808BB638D9BB2F3B15168638D47
:103600009BB2FF2BC1F3090108D9FF22228500904C
:103610004FF080732046FFF7ADFABBE7628DE36A97
:1036200092B213F5803F2285D2B202D0E36A0090B5
:10363000F0E700904FF00073ECE753689A0103D471
:103640002046FFF7B0FCA5E740212046FFF72CFD00
:10365000A0E76B069ED570069CD5638D9BB2002BB0
:10366000F2D123685A68910194D4E26A12F5803F3E
:10367000E6D15A6842F480425A608BE7022094E710
:1036800090F84030012B13B504465AD0012380F83E
:103690004030CB0613D5D30611D503681022DA616A
:1036A000436C43F0040343641221FFF779FA204688
:1036B000FFF752FA002084F8400002B010BD08065F
:1036C00037D5530635D523681A6822F040021A60B0
:1036D000628D92B242B35968638D9BB2FF2B8BBF50
:1036E000FF23638D238523854FF000008CBF4FF0AF
:1036F00080734FF0007394F828200090C1F3090103
:103700002046FFF737FA638D228D9B1A9BB26385A3
:1037100094F84130222B23681A680CBF42F400420F
:1037200042F480421A60C5E740212046FFF7BCFC06
:10373000C0E78806BED59306BCD52046FFF7B5FE88
:10374000B8E70220B9E7036899691A6810B4CC0594
:1037500008D5140606D5446C44F0010444644FF4C3
:103760008074DC614C0508D5140606D5446C44F021
:10377000080444644FF48064DC61890508D51206AE
:1037800006D5426C42F0020242644FF40072DA61E4
:10379000436C13F00B0F04D0416C5DF8044BFFF742
:1037A00083BC5DF8044B7047406A026808B55368F3
:1037B00043F400435360826B00235363C26B536333
:1037C00090F84130602B05D1202380F84130FEF77E
:1037D000D1FE08BDFEF79EFE08BD90F84120D2B292
:1037E000202A10B51DD190F84030012B19D0242388
:1037F00080F8413003681C6824F001041C601C68D8
:1038000024F480541C601C6821431960196841F03D
:1038100001011960002380F8412080F840301846EB
:1038200010BD022010BD0000084B9A6942F0010251
:103830009A619B69064A82B003F001030193019BE0
:1038400013681843106002B0704700BF00100240B8
:10385000000001407047000038B504460568216942
:10386000A368C26928680B4361690B434949134344
:1038700001400B432B606B68E168206A23F44053DE
:103880000B436B60A968A36921F4306103430B43C8
:10389000AB60414B9D4212D103F558433F491B6B2E
:1038A00003F00303B2F5004FCB5C3BD1082B36D8B5
:1038B000DFE803F00F2124352D3535353000384B46
:1038C0009D4203D003F580639D425ED1B2F5004F67
:1038D00031D100F0B7FC61684A0802EB4003B3FB4A
:1038E000F1F39BB2002023F00F022168C3F34203DF
:1038F0001343CB6038BD00F0BDFCECE760684308C3
:1039000003F5740303F51053B3FBF0F3E9E700F09C
:10391000A5FBE0E76068430803F58033F4E7012086
:103920000023E0E7082B33D8DFE803F005101B3253
:10393000273232322A0000F085FC636800EB530026
:10394000B0FBF3F080B2E860002038BD00F092FCDC
:10395000636800EB5300B0FBF3F00F4B80B2D8600C
:10396000F2E76268530803F5F40303F59053B3FBE1
:10397000F2F3094A9BB2D360E6E700F06FFBE7E79A
:103980006268530803F50043F1E7B2F5004FC6D073
:10399000012038BDF369FFEF00380140985400085A
:1039A00000440040436ADA0710B506D50168846A0E
:1039B0004A6822F4003222434A609C0706D5016817
:1039C000C46A4A6822F4803222434A60590706D505
:1039D0000168046B4A6822F4802222434A601A0775
:1039E00006D50168446B4A6822F4004222434A60CB
:1039F000DC0606D50168846B8A6822F48052224373
:103A00008A60990606D50168C46B8A6822F4005260
:103A100022438A605A060FD50168046C4A6822F472
:103A200080122243B4F5801F4A6005D14A68446C75
:103A300022F4C00222434A601B0606D50268816C4C
:103A4000536823F400230B43536010BD2DE9F0416C
:103A5000069D04460F46164698462168CA6937EA0D
:103A600002030CBF01220022B24202D00020BDE8B6
:103A7000F0816B1CF2D09DB923681A6822F4D072D1
:103A80001A609A6822F001029A60202384F8693053
:103A900084F86A30002384F868300320BDE8F081A0
:103AA00000F0D0FCA0EB08008542D6D2E4E773B565
:103AB00004460026C66600F0C5FC23681B681A078A
:103AC000054617D423681B685B070AD56FF07E4351
:103AD000009300222B464FF480012046FFF7B6FFEB
:103AE000A0B92023002084F8693084F8680084F8A5
:103AF0006A300CE06FF07E430093324603464FF489
:103B000000112046FFF7A2FF0028DBD0032002B0FF
:103B100070BD10B5044660B390F8693003F0FF0241
:103B20001BB980F86820FFF795FE2268242384F8EB
:103B30006930136823F0010313602046FFF78CFE01
:103B4000012816D0636A13B12046FFF72BFF2368C4
:103B50005A6822F490425A609A6822F02A029A60C7
:103B60001A6842F0010220461A60BDE81040FFF7D3
:103B70009EBF012010BD00000368DA072DE9F3475E
:103B8000054611D42B689B0700F188802B681C0721
:103B900000F1F8802B68580700F14181EA69002A9A
:103BA00040F0D781002021E0BA4C636803F00C0399
:103BB000042B07D0636803F00C03082B19D163684A
:103BC000DF0316D54FF4003393FAA3F2216893FA7A
:103BD000A3F3B3FA83F303F01F03012202FA03F302
:103BE0000B42CFD06B68002BCCD1012002B0BDE8D6
:103BF000F0876A68B2F5803F25D1236843F48033AB
:103C00002360E36AA96823F00F030B43E36252B316
:103C100000F018FC4FF400368046012796FAA6F310
:103C2000226896FAA6F3B3FA83F303F01F0307FAA8
:103C300003F31342A6D100F005FCA0EB08006428B2
:103C4000ECD90320D2E7236832B923F48033236010
:103C5000236823F48023D3E7B2F5A02FF5D143F4F2
:103C600080232360C9E700F0EDFB4FF40036804667
:103C7000012796FAA6F3226896FAA6F3B3FA83F31D
:103C800003F01F0307FA03F313423FF47BAF00F086
:103C9000D9FBA0EB08006428EBD9D2E77D4C636820
:103CA00013F00C0F07D0636803F00C03082B21D12D
:103CB0006368DE031ED4022393FAA3F2216893FA09
:103CC000A3F3B3FA83F303F01F03012202FA03F311
:103CD0000B4202D02B69934287D12168F82393FAD3
:103CE000A3F3B3FA83F26B69934021F0F802134314
:103CF00023604BE72A6901260AB396FAA6F3B3FAC2
:103D000083F303F1845303F584139B0002271E60A1
:103D100000F098FB804697FAA7F3226897FAA7F37A
:103D2000B3FA83F303F01F0306FA03F31342D4D16B
:103D300000F088FBA0EB08000228ECD981E796FA96
:103D4000A6F3B3FA83F303F1845303F584139B00C2
:103D500002271A6000F076FB804697FAA7F32268E4
:103D600097FAA7F3B3FA83F303F01F0306FA03F3FA
:103D700013423FF40BAF00F065FBA0EB08000228F4
:103D8000EBD95EE7AA69434E434901241AB394FA7A
:103D9000A4F3B3FA83F30B449B0002271C6000F0EA
:103DA00051FB804697FAA7F397FAA7F397FAA7F380
:103DB000726A97FAA7F3B3FA83F303F01F0304FAC6
:103DC00003F313427FF4E6AE00F03CFBA0EB0800E7
:103DD0000228E7D935E794FAA4F3B3FA83F30B4446
:103DE0009B0002271A6000F02DFB804697FAA7F38C
:103DF00097FAA7F397FAA7F3726A97FAA7F3B3FAB9
:103E000083F303F01F0304FA03F313423FF4C2AE3B
:103E100000F018FBA0EB08000228E7D911E71D4CC1
:103E2000E369D90034D4E36943F08053E361E36983
:103E300003F080530193019B0126184F3B68DA057C
:103E40002ED5EB68012B3CD1236A43F0010323629A
:103E500000F0F8FA02278246B9464FF0010897FAB7
:103E6000A7F397FAA7F3002B6BD0226A99FAA9F36C
:103E7000B3FA83F303F01F0308FA03F3134257D096
:103E8000002E3FF48BAEE36923F08053E36185E6B7
:103E90000026D2E700100240208190100070004000
:103EA0003B6843F480733B6000F0CCFA80463B688B
:103EB000DB05C6D400F0C6FAA0EB08006428F6D9EA
:103EC000BFE63BBB236A23F001032362236A23F08E
:103ED0000403236200F0B6FA02278246B9464FF087
:103EE000010897FAA7F397FAA7F373B3226A99FA2E
:103EF000A9F3B3FA83F303F01F0308FA03F31342A1
:103F0000BED000F09FFA41F28833A0EB0A0098423D
:103F1000E7D996E6052B236A03D143F00403236215
:103F200092E723F001032362236A23F004038EE760
:103F300000F088FA41F28833A0EB0A0098428ED94B
:103F40007FE697FAA7F3626A90E797FAA7F3626AA7
:103F5000CDE7414C636803F00C03082B3FF445AEFA
:103F6000022A4FF0807352D193FAA3F3B3FA83F38A
:103F700003F1845303F584139B0000221A6000F0C0
:103F800061FA4FF000778046012697FAA7F322687E
:103F900097FAA7F3B3FA83F303F01F0306FA03F3C8
:103FA00013422DD162686B6A296A22F474120B43A2
:103FB000134363604FF0807393FAA3F3B3FA83F370
:103FC00003F1845303F584139B004FF000751E60CA
:103FD00000F038FA0126074695FAA5F3226895FA0B
:103FE000A5F3B3FA83F303F01F0306FA03F31342B6
:103FF0007FF4D8AD00F026FAC01B0228ECD920E6E9
:1040000000F020FAA0EB08000228BED919E693FAC6
:10401000A3F3B3FA83F303F1845303F584139B00F2
:1040200000221A6000F00EFA4FF0007507460126D4
:1040300095FAA5F3226895FAA5F3B3FA83F303F092
:104040001F0306FA03F313423FF4ACAD00F0FAF994
:10405000C01B0228ECD9F4E50010024010B5134C47
:10406000616801F00C03082B1ED14FF4701393FA12
:10407000A3F301F47012B3FA83F322FA03F30C4AA8
:10408000D05CE36A0F2292FAA2F2B2FA82F203F053
:104090000F03D340074AD25CCB034ABF064B074B02
:1040A000B3FBF2F3584310BD034810BD00100240AB
:1040B0009C540008AC54000800127A0000093D002E
:1040C0005C4A136803F007038B422DE9F041064672
:1040D0000D4630D3326891073AD4D20740D4554ABE
:1040E000136803F007039D42C0F092803268524C7F
:1040F00012F0040F40F09780130706D56368326909
:1041000023F4605343EAC2036360FFF7A7FF6368C9
:10411000F02292FAA2F2B2FA82F203F0F003D34054
:10412000464AD35CD840464B18600F20FDF792FDFD
:104130000020BDE8F081136823F007030B431360F0
:10414000136803F007039942C4D00120BDE8F08151
:104150003949B0684B6823F0F00303434B60BCE778
:104160007268354C012A28D14FF4003393FAA3F139
:10417000216893FAA3F3B3FA83F303F01F0302FA5F
:1041800003F30B42E1D0636823F003031A43626038
:1041900000F058F97368012B074641F288381FD1A7
:1041A000636803F00C03042B99D000F04BF9C01B9B
:1041B0004045F5D90320BDE8F081022A0CBF4FF03D
:1041C0000073022393FAA3F1206893FAA3F3B3FADE
:1041D00083F303F01F03012101FA03F30342D1E744
:1041E000022B10D1636803F00C03082B3FF477AF68
:1041F00000F028F9C01B4045F4D9DBE700F022F9B4
:10420000C01B4045D6D8636813F00C0FF6D166E7A3
:10421000136823F007032B431360136803F00703AD
:104220009D4292D162E76368F16823F4E0630B4337
:10423000636061E7002002400010024080540008E3
:10424000A4010020084B4FF4E0625B6892FAA2F2EE
:10425000B2FA82F203F4E063D340044AD35C044A26
:104260001068D840704700BF00100240905400080A
:10427000A4010020084B4FF460525B6892FAA2F24E
:10428000B2FA82F203F46053D340044AD35C044A86
:104290001068D840704700BF0010024090540008DA
:1042A000A40100200F2303600B4B5A6802F00302A5
:1042B00042605A6802F0F00282605A6802F4E062DA
:1042C000C2605B68DB0803F4E0630361034B1B68B7
:1042D00003F007030B60704700100240002002400B
:1042E00070470000214A0368904210B505D0B0F134
:1042F000804F02D01E4CA0420CD14C6823F07003BA
:10430000904243EA040310D0B0F1804F0DD0184A18
:1043100090420AD0174A904207D002F5806290423C
:1043200003D002F58062904203D1CA6823F440733F
:1043300013434A6923F08003134303608B68C3620D
:104340000B688362094B98420BD003F5A053984247
:1043500007D003F58063984203D003F58063984249
:1043600001D10B6903630123436110BD002C01409F
:10437000000400400040014010B50446A0B190F890
:104380003D3003F0FF021BB980F83C20FFF7A8FF87
:10439000022384F83D302068211DFFF7A3FF01238D
:1043A00084F83D30002010BD012010BD036A10B517
:1043B00001248C4023EA04030362036A8A401A43FF
:1043C000026210BD10B5044601220068FFF7EEFF3F
:1043D00023680C4A93420BD002F5A052934207D0B7
:1043E00002F58062934203D002F58062934203D1CA
:1043F0005A6C42F400425A641A6842F001021A6090
:10440000002010BD002C0140FFF7DCBF704700000A
:10441000074A08B5136843F010031360032000F047
:104420003BF80F20FDF716FCFFF7F0FF002008BD5A
:1044300000200240024A136801331360704700BF36
:10444000B4170020014B1868704700BFB417002054
:1044500090F82120022A10B503D0042282630120A3
:1044600010BD0268C46B1168436B21F00E0111602E
:10447000116821F001011160026C012101FA02F2C0
:104480006260002480F8211080F8204013B1984722
:10449000204610BD184610BD074AD36823F4E063D8
:1044A0001B041B0C43F0BF63000243F4003300F411
:1044B000E0600343D360704700ED00E04309012250
:1044C00000F01F0002FA00F02033044A42F82300F3
:1044D000BFF34F8FBFF36F8F704700BF00E100E065
:1044E00010B480B1146853680CB9DA070BD513F017
:1044F000010F4FEA63031CBFC258145918442346E6
:104500005DF8044B18475DF8044B704770B50D4CCF
:1045100023687BB90C4D4FF0FF312868FCF7BCFED7
:10452000236823B9261D304600F06EFA26602868FD
:10453000FCF7DAFE20684FF0FF31BDE8704000F074
:104540007BBA00BF780D0020C411002070B50C4C60
:1045500023687BB90B4D4FF0FF312868FCF79CFEB8
:10456000236823B9261D304600F04EFA26602868DD
:10457000FCF7BAFE2068BDE8704000F060BA00BFEA
:10458000780D0020C4110020F7B51A4B03600023FA
:104590000E460093019302A903610446174600F1F9
:1045A000180211E9030082E803001349216248F26E
:1045B00007016162E362A4622263104A6263BFF38F
:1045C0006F8FBFF34F8F04F13C0584F838301946E4
:1045D0009822284600F0E6FC094BC4F8D43028465F
:1045E0003A463146FDF732FE064B20461C6003B0CA
:1045F000F0BD00BFC454000801A090E8E1440008E9
:10460000A0860100940D0020036870B5094D1B6859
:10461000044698472B689C4206D0D4F8D41004F185
:104620003C00FDF79FFD2C60236820465B68BDE8D9
:1046300070401847940D0020F7B51D4603680446E6
:104640001B680E46174698472046FFF7DDFF9DF88A
:10465000203083F00103314600933A462B4604F1A3
:104660003C00FDF7BBFE236806465B682046984782
:10467000A81B18BF012003B0F0BDF7B51D460368A5
:1046800004461B680E46174698472046FFF7BCFFB6
:104690009DF8203083F00103314600933A462B46C3
:1046A00004F13C00FDF734FE236806465B682046B3
:1046B0009847A81B18BF012003B0F0BDC36810B510
:1046C00004460BB19B689847204610BD10B5044BBB
:1046D000044640F8043BFFF7F1FF204610BD00BF41
:1046E000C454000810B50446FFF7F0FF204600F060
:1046F0007FF9204610BD38B5044648B15830A04275
:1047000006D0A0F12C051438FFF7D8FF2846F6E7AD
:10471000204638BD70B50E4C20460025282632466E
:10472000294640F8045B00F03DFC3246294604F17E
:104730003000E56200F036FCA5652046E565054AD7
:1047400084F860500449BDE8704000F033B900BF00
:10475000980D002088010020F746000800F078BC82
:1047600000F028BC70B50546FDF73AFC4FF47A74AA
:1047700095FBF4F4002C064602DDFBF799FF28B9FF
:10478000FDF72EFC801BA842FAD370BD204600F036
:1047900039F9F5E707EE100ADFED047A67EE277ABC
:1047A000FDEEE77A17EE900AFFF7DCBF00247449AC
:1047B0004FF47A735843FFF7D5BF000008B5084B94
:1047C0001B685BB9022107480F22FDF7F5FF4FF484
:1047D00016510448BDE80840FEF794B808BD00BF74
:1047E000440B002090170020022810B5044601DC7D
:1047F000002010BD00F00EFA09230360033C094BB2
:1048000053F82400002243F8242040B103681B69B8
:104810009847041EECDA00F0FDF9644204604FF0A2
:10482000FF3010BDFC0D0020F8B505460E461446BD
:1048300000F0F0F90923022D03600FDC124B1B6816
:104840000BB9FFF7BBFF35463719104EBD4215D0E7
:1048500015F8011B3046FEF787F8F7E7033D0C4BD0
:1048600053F8250060B103682246DB68314698475B
:10487000041E03DA00F0CEF9634203602046F8BD5F
:104880004FF0FF34FAE700BF440B002090170020E0
:10489000FC0D002070B504460D46164600F0BAF92E
:1048A0000923022C03600BDC0F4B1B680BB9FFF7CD
:1048B00085FF0E48FEF736F801242870204670BDAB
:1048C000033C0B4B53F8240058B1036832469B68F5
:1048D00029469847041EF1DA00F09CF96342036010
:1048E000ECE74FF0FF34E9E7440B0020901700207D
:1048F000FC0D002070B504460D46164600F08AF9FE
:104900000923022C03600BDD033C084B53F8240001
:1049100040B1036832462946DB69BDE8704018475C
:10492000002070BD4FF0FF3070BD00BFFC0D0020B7
:1049300008B5FEF72FF8FBF749FF08BD704708B52B
:10494000FFF7FCFFBDE80840FBF778BC0C4A136892
:1049500010B51844EFF30881884205D3094B0C22A7
:104960001A604FF0FF3010BD07490C6824B10749A9
:10497000096821448842F1D21060184610BD00BF7A
:10498000A8010020B8170020FC0E0020000F002016
:10499000074C08B523680546986800F0F3F92368CA
:1049A000D86800F0EFF90DB1FBF79EFEFEE700BFFF
:1049B000AC0100200120704708B5FFF7E9FF08B5FA
:1049C000FBF712FF08BD08B5FBF716FF08BD000096
:1049D00010B500F0D7FA044610B90248FBF78EFE76
:1049E000204610BDD454000808B100F0D3BA704777
:1049F000FFF7FABF024B1B6803B11847704700BFAF
:104A0000040F0020FCF7C6BB38B500F108050446CA
:104A100010220021284600F0C5FA204640F8045F25
:104A2000FCF71CFC206010B90248FBF767FE20462B
:104A300038BD00BFF15400080068FCF72DBC0068C9
:104A4000FCF752BC80F309887047EFF30980704788
:104A5000684680F309885A480078C00714BF0220CE
:104A6000032080F314887047DFF858C1EFF3058303
:104A70001B0618BF6047EFF31483DB0708BF6047CE
:104A800000DF7047DFF840C1EFF305831B0618BF56
:104A90006047EFF31483DB0708BF604700DF704710
:104AA000EFF30980816911F8021CE1BB90E80F1057
:104AB00010B5E047BDE81040EFF3098C8CE8070023
:104AC000424B93E80600914208BF704741B91EF07F
:104AD000100F16D13E49086820F00100086010E070
:104AE0001EF0100F06BF2CED108A0120002081F867
:104AF00025002CE9F00FC1F82CC00CB4FCF760F8CD
:104B00000CBC1A60D2F82CC0BCE8F00F92F825005B
:104B100000280EBF6FF0020E6FF0120EBCEC108A70
:104B20008CF30988704710B52A4A1268914209D857
:104B3000294C54F8214090E80F10A047EFF3098C5E
:104B40008CE80F0010BD10B5FBF7C6FFBDE81040A4
:104B50001E4B93E80600914208BF7047EFF3098CA3
:104B60001EF0100F06BF2CED108A0120002081F8E6
:104B700025002CE9F00FC1F82CC00CB4FCF720F88C
:104B80000CBC1A60D2F82CC0BCE8F00F92F82500DB
:104B900000280EBF6FF0020E6FF0120EBCEC108AF0
:104BA0008CF30988704710B5FBF7ECFFFFF7CEBF19
:104BB00010B5FBF7E5FFFBF7E5FFFFF7C7BF000008
:104BC000EE5200082F0C0008490C000804170020C2
:104BD00034EF00E000000000FCFFFFFFDFF820D012
:104BE000002103E0074B5B58435004310648074B54
:104BF00042189A42F6D3FDF737FFFBF793FCFEE726
:104C00000030002088550008880100202002002084
:104C1000FEE70000014B1868704700BFAC010020A0
:104C20008A892DE9F041054610070C465AD44B6895
:104C3000002B05DC0B6C002B02DC0020BDE8F081B2
:104C4000E66A002EF9D0002312F480522F682B6000
:104C500033D0606DA3895A0705D56368C01A636BAA
:104C60000BB1236CC01A00230246E66A216A28466B
:104C7000B047431CA38906D129681D294BD82B4A6C
:104C8000CA40D60747D500226260D9042269226053
:104C900004D5421C01D12B6803B96065616B2F609C
:104CA0000029CAD004F14403994202D02846FFF7F4
:104CB00057FD00206063BDE8F081216A012328468A
:104CC000B047411CC6D12B68002BC3D01D2B01D08F
:104CD000162B01D12F60B0E7A38943F04003A381D5
:104CE000BDE8F0810F69002FA7D093070E6808BFB9
:104CF0004B690F6018BF0023A6EB07088B60B8F163
:104D0000000F9ADD43463A46216AA66A2846B04714
:104D1000002807DCA38943F04003A3814FF0FF3054
:104D2000BDE8F0810744A8EB0008E8E70100402057
:104D300038B50B6905460C46DBB118B183690BB970
:104D400000F072F80C4B9C4209D16C68B4F90C303D
:104D50007BB121462846BDE83840FFF761BF074BCD
:104D60009C4201D1AC68F1E7054B9C4208BFEC685E
:104D7000ECE7002038BD00BF385500085855000842
:104D800018550008014620B9044B0549186800F081
:104D9000B7B8044B1868FFF7CBBF00BF78550008C1
:104DA000314D0008AC010020014900F0A9B800BF56
:104DB000314D0008002310B5044603604360836052
:104DC00081814366C2810361436183611946082280
:104DD0005C3000F0E7F8054B6362054BA362054BBE
:104DE000E362054B2462236310BD00BF2D51000810
:104DF0004F51000887510008AB51000870B54A1E9A
:104E0000682555430E4605F17401FFF7A7FC0446DB
:104E100040B1002180E842000C30A06005F168023A
:104E200000F0C0F8204670BD836910B5044633BB5E
:104E30008364C3640365124B124A1B688262984202
:104E400004BF0123836100F01FF86060204600F07A
:104E50001BF8A060204600F017F80022E060042153
:104E60006068FFF7A7FF01220921A068FFF7A2FFF2
:104E700002221221E068FFF79DFF0123A36110BD0C
:104E800078550008A94D0008F8B51C4B1E68B36999
:104E9000074613B93046FFF7C7FF4836B468736852
:104EA000013B03D5336833B13668F7E7B4F90C50EA
:104EB0006DB16834F4E704213846FFF79FFF306096
:104EC0000028F1D10C233B6004462046F8BD4FF684
:104ED000FF73E3810123A38165662560A56065609A
:104EE00025616561A5610822294604F15C0000F096
:104EF00059F86563A563A564E564E6E7785500089D
:104F00002DE9F8438046894600F14804002614B98B
:104F10003046BDE8F883A5686768013F01D524687D
:104F2000F5E7AB89012B07D9B5F90E30013303D072
:104F300029464046C84706436835EEE770B50D4E32
:104F40000D4CA41BA4100025A54209D10B4E0C4CFE
:104F500000F076F9A41BA4100025A54205D170BD70
:104F600056F8253098470135EEE756F82530984732
:104F70000135F2E71002002010020020100200208C
:104F800018020020024B01461868FFF7E7BB00BF7C
:104F9000AC010020024B01461868FFF7E1BB00BFDF
:104FA000AC01002002440346934200D1704703F84D
:104FB000011BF9E738B50546002945D051F8043CF6
:104FC0000C1F002BB8BFE418FFF7F9FC1F4A136849
:104FD000104633B9636014602846BDE83840FFF7D7
:104FE000F2BCA3420CD921686218934204BF1A682C
:104FF0005B68636004BF521822600460ECE71346EC
:105000005A680AB1A242FAD919685818A0420BD1BD
:1050100020680144581882421960DDD11068526836
:105020005A6001441960D7E702D90C232B60D3E7FB
:10503000206821188A4204BF11685268626004BF68
:10504000091821605C60C7E738BD00BF080F002069
:1050500070B5CD1C25F0030508350C2D38BF0C2587
:10506000002D064601DBA94203D90C233360002042
:1050700070BDFFF7A4FC234A1468214691B9224C65
:1050800023681BB9304600F041F8206029463046BD
:1050900000F03CF8431C26D10C2333603046FFF768
:1050A00092FCE4E70B685B1B1AD40B2B0FD90B6047
:1050B000CD50CC183046FFF786FC04F10B00231DC1
:1050C00020F00700C31A1BD05A42E25070BD8C4238
:1050D0000DBF63684B686360136018BF0C46E9E757
:1050E0000C464968CAE7C41C24F00304A04205D05A
:1050F000211A304600F00AF80130CDD02560D9E7FA
:1051000070BD00BF080F00200C0F002038B5064C02
:105110000023054608462360FFF718FC431C02D114
:10512000236803B12B6038BDB817002010B50C46BA
:10513000B1F90E1000F072F80028ABBF636DA389BF
:105140001B1823F48053ACBF6365A38110BD2DE908
:10515000F0411F468B89DB0505460C46164605D5F2
:1051600002230022B1F90E1000F046F8A389B4F929
:105170000E1023F48053A38132463B462846BDE8F7
:10518000F04100F017B810B50C46B1F90E1000F060
:1051900033F8431CA38915BF606523F4805343F49F
:1051A0008053A38118BFA38110BDB1F90E1000F088
:1051B00013B8000038B5074C0546084611460022D2
:1051C00022601A46FFF730FB431C02D1236803B16B
:1051D0002B6038BDB817002038B5064C00230546B3
:1051E00008462360FFF700FB431C02D1236803B18C
:1051F0002B6038BDB817002038B5074C0546084667
:105200001146002222601A46FFF774FB431C02D1AC
:10521000236803B12B6038BDB817002038B5074CA0
:10522000054608461146002222601A46FFF732FB67
:10523000431C02D1236803B12B6038BDB81700208E
:10524000F8B500BFF8BC08BC9E467047F8B500BF73
:10525000F8BC08BC9E467047605200085802002007
:10526000C11F0008E11F00081120000829200008C4
:10527000F91F000870696E6D6170206D69732D6D86
:10528000617463680070696E6D6170206E6F742068
:10529000666F756E6420666F7220706572697068E3
:1052A0006572616C00636F756C64206E6F74207042
:1052B000696E6F757400000010020000CC010000E0
:1052C000E8030000525458206572726F7220636FB9
:1052D00064653A203078253038582C207461736B1F
:1052E0002049443A203078253038580A001001000F
:1052F00007000000040000007C0200209C02002047
:10530000AC020020BC0200200500010000020001E8
:1053100089150008020000000100000020030000C1
:10532000C8110020FFF90000D00A002050696E6DFE
:105330006170206572726F723A2077726F6E6720AB
:10534000706F7274206E756D6265722E00000000C1
:10535000010000000200000004000000080000003E
:10536000100000002000000040000000800000004D
:10537000000100000002000000040000000800001E
:10538000001000000020000000400000008000002D
:1053900043616E6E6F7420696E697469616C697ABD
:1053A0006520554152540A000F000000005400408F
:1053B0000A04000016000000005400400A04000027
:1053C000FFFF0000FFFFFFFF000000000E000000D5
:1053D000005400400A040000170000000054004080
:1053E0000A040000FFFF0000FFFFFFFF00000000B5
:1053F0000300000000440040120700000A00000003
:1054000000380140120700000F0000000044004077
:1054100012070000140000000044004012070000C2
:10542000170000000038014012070000FFFF0000D5
:10543000FFFFFFFF000000000200000000440040EA
:1054400012070000090000000038014012070000A8
:105450000E0000000044004012070000130000008E
:105460000044004012070000160000000038014010
:1054700012070000FFFF0000FFFFFFFF0000000019
:1054800000000000000000000102030406070809F4
:1054900000000000010203040004080202030405E6
:1054A000060708090A0B0C0D0E0F10100102030469
:1054B00005060708090A0B0C0D0E0F10000000006E
:1054C000000000000D4500084D450008CD460008CD
:1054D000E54600084F70657261746F72206E6577E3
:1054E000206F7574206F66206D656D6F72790D0A7F
:1054F000004572726F7220696E697469616C697AB5
:10550000696E6720746865206D75746578206F62B8
:105510006A6563740A0000000000000000000000DB
:10552000000000000000000000000000000000007B
:10553000000000000000000000000000000000006B
:10554000000000000000000000000000000000005B
:10555000000000000000000000000000000000004B
:10556000000000000000000000000000000000003B
:105570000000000000000000B0010020000000005A
:08558000C4F4FF7F01000000EC
:1055880000000000070700081D07000800000000D1
:105598000100000000080000CC02002000A24A041C
:1055A800BC170020B001002000000000385500089A
:1055B80058550008185500080000000000000000B9
:1055C80000000000000000000000000000000000D3
:1055D80000000000000000000000000000000000C3
:1055E80000000000000000000000000000000000B3
:1055F80000000000000000000000000000000000A3
:105608000000000000000000AD0100081547000878
:085618008901000800000000F8
:0400000508004BDDC7
:00000001FF
