:020000040800F2
:1000000000300020E547000819480008194800089A
:1000100019480008194800081948000800000000A5
:10002000000000000000000000000000A9460008D9
:1000300019480008000000004F470008AF470008BB
:10004000194800081948000819480008194800080C
:1000500019480008194800081948000819480008FC
:1000600019480008194800081948000819480008EC
:1000700019480008194800081948000819480008DC
:10008000194800081948000819480008E525000823
:10009000E925000819480008E52400081948000867
:1000A00019480008194800081948000819480008AC
:1000B0001948000819480008000000001948000805
:1000C000194800080000000000000000194800085E
:1000D00000000000194800081948000819480008E5
:1000E000194800081948000800000000000000003E
:1000F0000000000000000000000000000000000000
:1001000000000000000000000000000000000000EF
:10011000000000000000000019480008194800080D
:1001200000000000000000000000000000000000CF
:1001300000000000000000000000000000000000BF
:1001400019480008194800080000000000000000DD
:10015000000000000000000000000000000000009F
:10016000000000000000000000000000000000008F
:10017000000000000000000000000000000000007F
:10018000000000001948000810B5054C237833B969
:10019000044B13B10448AFF300800123237010BD5A
:1001A000B003002000000000DC7100080C4B43B1DC
:1001B0000C480D4910B5AFF300800C48036823B913
:1001C00010BD0A48036833B97047094B002BF7D0BC
:1001D000BDE810401847064B002BF5D0184700BF6C
:1001E00000000000DC710008B4030020AC03002014
:1001F00000000000F0B5B1F5007FADF5037D0646C7
:100200000D4614461F4620DA0A4602A8002104F0D3
:10021000EBFE21463A4602A805F02EFF8542044631
:100220000BDA00902B46252209490A4800F008FD08
:10023000002420460DF5037DF0BD0028F9DD0246BF
:1002400002A9304600F07EFAF3E74FF0FF34F0E702
:100250002C6A0008546A000870B50546094B45F839
:10026000283B06465DB100F14804AC4207D0103C83
:10027000E368002BF9D09B6820469847F5E73046A5
:1002800070BD00BFF46E0008084B10B5036020334A
:100290000446C364603004F0D1F904F14C0003F06B
:1002A00077FC2046FFF7D8FF204610BDB06D000850
:1002B000A0F14C00E8E700BF10B50446FFF7CCFF03
:1002C000204604F0B6F8204610BD000010B50C4CD6
:1002D0000C49206800F03EF918B10B49206800F085
:1002E000FBF94DF23D23094A0949206800F032F933
:1002F00028B120680449BDE8104000F0EDB910BDF8
:10030000CC0300208E6A00089A6A00089D6A0008E3
:10031000A76A000873B5384C3848E36822681A6049
:100320004FF4E13103F090FD35493648364E03F085
:1003300041FC4FF07E5003F0FDFEA36822681A6076
:100340004FF0804003F0F6FE942004F04DF80025B5
:1003500004230A2209218DE828004FF48073044603
:1003600000F04CFA3020346004F03EF8336803604B
:1003700004464FF480706562A562E562606004F037
:100380003FF84FF4FA53E360204B2361636184F834
:10039000205002231E4DA0604FF4E1313068A3616C
:1003A000E3612C6003F050FD1A49286800F0D2F890
:1003B000E0B11949286800F08FF9B8B117492868E9
:1003C00000F0C8F818B11449286800F085F9FFF763
:1003D0007DFF20B9124A13490A4803F0EBFB12498A
:1003E000084802B0BDE8704003F0E4BB0F4905487F
:1003F00003F0E0FBE2E700BF4C040020D403002040
:10040000BD6A000820040020D00300208B6A000889
:10041000CC030020E86A00089A6A0008EB6A00082A
:100420008C010020F06A00080F6B0008366B000892
:1004300008B5FFF76FFFFEE710B50446FFF724FF8E
:10044000204603F0F6FF204610BDA0F14C00F3E774
:1004500013B50E4C4FF4165300930F2200230221C4
:10046000204603F0D1FA2046094C0A4A0A4903F013
:10047000ABFF1C220021204604F0B6FD00212046DF
:1004800002B0BDE8104000F021BB00BFD403002043
:100490004C040020880100208902000830B585B096
:1004A000044668460D4603F00BFB684603F0C6FAA7
:1004B000206803685B69984730B120680368294663
:1004C000DB69984705B030BD684603F0E3FAE3689E
:1004D0009842EDDD4FF0FF30F4E71FB50446684663
:1004E00003F0EEFA684603F0A9FA206803681B6976
:1004F000984728B1206803689B69984704B010BDED
:10050000684603F0C7FAE3689842EEDD4FF0FF302B
:10051000F4E738B50546806805F0AEFD002815DB28
:100520000024AB68195D51B90C466B69195D79B14E
:100530002846FFF7B3FF002808DB0134F5E728461B
:10054000FFF7ACFF002801DB0134EAE7002038BDEB
:10055000012038BD0EB403B503AA52F8041B019262
:10056000FFF7D7FF02B05DF804EB03B07047C36834
:1005700010B504460BB19B689847204610BDC36870
:100580001B6818472DE9F04F87B004468946029250
:1005900099F80030002B00F098800025CA462F46BD
:1005A0001AF8016BD4F80880EEB1A269216901370D
:1005B000B81A484404F0E4FCA8B1252E05F1010363
:1005C0000DD19AF80020252A09D02A2A07D008F848
:1005D0000560A2684FF02A010235D154E0E708F81F
:1005E00005601D46DCE7252308F80530A3682B4489
:1005F0006E225A70A3682B4405F1030800259D70F4
:100600002046FFF76AFF002803DA002007B0BDE8A4
:10061000F08FA3682B4405F1010A03F8080008EBEA
:100620000A0BA3684FF0000203F80B20666AA36A66
:10063000284A9B1BDB10534301930023019A9342EA
:1006400011D03268924542D1A16870680393524636
:10065000414404F095FC039B002838D106F10800C2
:10066000FFF78DFF94E706AAA1684FF0FF3342F829
:10067000043D01EB080005F0F5FA059B9A450FD102
:1006800049463A46A06804F08AFCA3680022DA557D
:10069000A168029A01EB080005F01CFDB94477E758
:1006A00063680235A3EB08039D420CDAA069A368D6
:1006B0002169ABEB0000184405F043FB002814BF90
:1006C000554600259CE700259AE701209EE7013367
:1006D0001836B3E7ABAAAAAA0EB403B503AA52F818
:1006E000041B0192FFF74EFF02B05DF804EB03B06C
:1006F0007047026D406D101A18BF0120704701202D
:100700007047034610B107C983E807007047704778
:1007100042688168036812F0010F4FEA62021CBF51
:100720008858C358881818470EB403B503ABC16E78
:1007300053F8042B0193FFF75DFD02B05DF804EB65
:1007400003B0704703689B6A1847F8B500EB0214C2
:1007500074348C4205460E4617460ED02046FFF7ED
:1007600006FF54B1F3681BB15B68314620469847D9
:1007700005EB0715F368C5F88030F8BD7FB5184B59
:10078000036000252A4669460446039503F0BEFB34
:100790006846FFF7ECFE012269462046039503F008
:1007A000B5FB6846FFF7E3FE14F1740608D004F1C8
:1007B0009405B54204D0103D2846FFF7D8FEF8E76F
:1007C00004F15C0000F021F904F14C0000F01DF987
:1007D000044B23602046FFF73FFD204604B070BD68
:1007E0005C6B0008DC6E000810B50446FFF7C6FF1E
:1007F000204603F01EFE204610BD00007FB50446D3
:100800001D464FF41653089E03F00AFB2046114B79
:1008100040F84C3B294600F007F906FB05F104F1CE
:100820005C0000F001F900220B4BC4F88020C4F8F2
:10083000902000936946094B01922046039302944D
:1008400003F064FB6846FFF792FE2046E5662667E4
:1008500004B070BD5C6B00084B090008486B0008D1
:1008600010B5826801680346885CBFF34F8F9968B2
:10087000DA680131013AB1FBF2F402FB14129A601A
:1008800010BD08B54C30FFF7EBFF08BD7FB504463F
:10089000051D00F15C06284602F07CF9E0B1226EED
:1008A000636E9A4207D03046FFF7DAFF01462846CA
:1008B00002F07CF9EFE7002301226946204603930A
:1008C00003F024FB6846FFF752FED4F890301BB1CA
:1008D00004F18400FFF753FE04B070BD30B5044648
:1008E00085B0043002F056F9D0B1012269460025E6
:1008F0002046039503F00AFB6846FFF738FE2046C2
:10090000FFF7C4FF074B02948DE828002046064BF2
:1009100003930122694603F0F9FA6846FFF727FEC0
:1009200005B030BD8D080008486B000843680268B8
:10093000D154BFF34F8F4268C3680132013BB2FB11
:10094000F3F103FB11234360704738B5051D0446DE
:10095000284602F0FDF870B1284602F005F9C1B250
:1009600004F14C00FFF7E2FFD4F880301BB104F132
:100970007400FFF704FE38BD38B505460C465C3000
:10098000C9B2FFF7D3FF2846FFF7A8FF204638BDBE
:100990002DE9F04107460C46B1B10D4600F15C0867
:1009A0002E4616F8011B21B14046FFF7BFFF354622
:1009B000F6E70A214046FFF7B9FF2C1B3846FFF740
:1009C0008DFF601CBDE8F0810846BDE8F0812DE98F
:1009D000F04107460D4691B1A2B18C180E4600F1C8
:1009E0005C08B44205D016F8011B4046FFF79EFF95
:1009F000F7E73846FFF772FF601BBDE8F081084655
:100A0000BDE8F0811046BDE8F08110B504460068ED
:100A100008B103F001FD204610BD00214160C2680D
:100A20008160006804F0E0BA38B5044608460D4617
:100A300003F0E6FCE56020602046FFF7EEFF20466D
:100A400038BD00000748084A08B5121A002104F012
:100A5000CBFA03F076FC04F0ABF903F079FC03F079
:100A6000B5FC00BFB0030020EC190020022801DD16
:100A700003F01ABC0120704708B5012003F0A6FC62
:100A800008B5FFF7F9FF38B504460D4603685AB1BB
:100A9000826813602046012101F0F0FC29462046BF
:100AA000BDE8384001F0E6BCC268F2E770B50E461A
:100AB0000446154601F0BCFC013606D02A46204605
:100AC0000021BDE87040FFF7DEBF70BD0022FFF7D8
:100AD000EDBF0000004870478C6B0008014800F033
:100AE00003B800BF8C6B0008036870B5DB68044670
:100AF000984763685A6823681AB99B68BDE87040D4
:100B000018475B68156898476368281A00285A6870
:100B100007DC916859601B68002BEAD05068984741
:100B2000E7E7236810681B69BDE870401847036851
:100B30005B68184710B5044601300DD110BD9C42CA
:100B400009D12046896801F0ADFD20460021BDE8AD
:100B5000104001F029BE0C31B1F900305A1CEED121
:100B60000248BDE8104000F06BB800BFD96B000828
:100B7000884208B508D0431C06D0013106D004488D
:100B800000F05EF84FF0FF31084608BD0146FBE774
:100B9000A86B0008B1F900305A1C01D11846704703
:100BA000834201D1486870470C31F3E7421C10B50D
:100BB000044607D0FFF7EEFF431C044602D102486B
:100BC00000F03EF8204610BDB96B0008EFF310802E
:100BD000C04300F00100704708B5FFF7F7FF72B699
:100BE000064B1A6822B980F00100054AC0B21070A5
:100BF0001A681A6801321A6008BD00BF7404002028
:100C00007004002008B5074B1A6852B1FFF7DEFFE9
:100C10001A68013A1A601B681BB9034B1B7803B9A9
:100C200062B608BD740400207004002008B5FFF708
:100C3000D3FF962003F08CFA962003F089FAF8E7A8
:100C40000FB4012008B503F0C1FB01F040BC000067
:100C500008B5024C23689847FCE700BFAC010020B0
:100C600008B50B4800F0AAFD0A4B18600A4800F0CE
:100C7000A5FD0A4B18600A4800F0A0FD094B18605A
:100C800004F096F800210846BDE8084003F060BB78
:100C9000386C0008F4130020346C00088004002035
:100CA000306C000878040020FFF7D2BF10B504466E
:100CB00000F0E4FC21460246BDE810400148FFF781
:100CC000BFBF00BFF86B000803F090BC0B4A0C4B91
:100CD0000C4830B41A60C2F1005303F54053B3F529
:100CE000E07F194628BF4FF4E071074D074C0160C3
:100CF0005B1A1A442A60236030BC7047EC1900204C
:100D00003011002084040020880400202C110020D1
:100D100000F038FEFFF7DAFF0348002100F0D6FDAF
:100D200000F02EFCFEE70000B0010020024B4FF067
:100D3000FF31186800F060BD80040020014B186886
:100D400000F082BD8004002030B502788C784368C2
:100D5000013AD2B213B19D78A54207D2022A4B6064
:100D6000416006D803B19960886030BD18465B6861
:100D7000F0E700238B6030BD02784368013A596880
:100D80004160022A4FF0000205D809B188605A601C
:100D90009A60184670475A60FBE70000034B5A6898
:100DA0004260002282605860704700BFE81800204F
:100DB000104BDA6810B58AB19A8ADC688A420CD383
:100DC000C460D860C468036104B12061521A92B251
:100DD0008282998A8A1A9A8210BD3CB900248A1AA2
:100DE000C460D86003619A82848210BDA38A1A44C9
:100DF0002346E2E7001900202DE9F041174DEB688A
:100E000053B1AB8A164FDFF85C80013BAB82002602
:100E1000AA8A0AB9EC680CB9BDE8F081A36833B1BD
:100E200061685960616809B18B606260A6602146A3
:100E30003846FFF789FFA38AAB826378042B01BF92
:100E4000D8F80030E28A9B18A38201236370E3681C
:100E5000EB600BB11D61E6602661D9E70019002047
:100E6000E81800207C19002083682BB142685A6082
:100E700042685AB193607047054B5A68904202D15C
:100E800042685A6070471346002AF6D1704700BF87
:100E9000E818002010B5846801462CB94378012B6E
:100EA0000DD1074C03E0A4682378002BFBD0084643
:100EB000FFF7DAFF2046BDE81040FFF745BF10BD41
:100EC000E8180020036910B563B1C268DA60C2682F
:100ED0004AB1998A848A2144998213610023C360AC
:100EE0000023036110BD9A82FAE7000070B4114B31
:100EF000DD78EFF31086EFF3108272B69A789542A0
:100F000011D901329A701A78541CA54208BF0024E6
:100F10001C7006B962B6954207D903EBC20370BCD8
:100F2000586099607047002EF4D0022070BCFFF723
:100F3000BDBE00BF6C130020836A9B0804BF224B18
:100F40001B88F0B5056B08BF9B0805EB83025407AF
:100F500048BF043A4FF0807602E94200A2F1400413
:100F6000A2F14406A2F10C074FF0000E46F804EF80
:100F7000BE42FBD1C66942F8206C41631249C4628B
:100F80000968C90017D5112B15D9103B6FF007015F
:100F90005B084B43A3F138010A444FF0CC302146A3
:100FA00091420BD108331C44231F9D423CBF4FF09C
:100FB000CC3344F8043C054B2B60F0BD41F8040CE5
:100FC00041F8080DECE700BF406C0008A52E5AE27E
:100FD00090F82520C36A12B160331960704720333E
:100FE000FBE710B590F82540C36A1CB1603383E875
:100FF000060010BD2033FAE7054B1B7823B9054BDB
:101000004FF080521A607047034B01221A707047EC
:10101000DC0C002004ED00E0DD0C002038B51A4B9C
:101020001A4C186801234370FFF7B8FE6578A3785F
:101030003BB917486570FFF79FFEBDE8384000F0E8
:101040007BBD04EBC503586802789AB9198900F092
:10105000BBF9E37801359D4208BF0025EFF310830B
:10106000EFF3108272B6A278013AA270002BDED1A3
:1010700062B6DCE7012A03D1996800F033F9E8E7AA
:1010800001F0B8F8E5E700BF341900206C13002028
:10109000E8180020084B1A68084B1A6000225A60B2
:1010A000072243F8042C064A136843F07F43136079
:1010B0004FF0FF30704700BF586C000814E000E0AC
:1010C00020ED00E07047000008B50B4B18680123C5
:1010D0004370FFF763FE00F0ADF9084A136801336F
:1010E0001360FFF789FE00F0AFFC0548FFF744FEF0
:1010F000BDE8084000F020BD341900207C19002014
:10110000E8180020064B1A68136BD26A934203D882
:101110001A68044B9A4202D00120FFF7C7BD7047FE
:1011200034190020A52E5AE2002ABBBF22F000424B
:101130000732033222F00702A8BF22F0030210B5E3
:10114000B4BF10230C2392B1D4188C420FD80144A1
:1011500003445442416003608260214498188142F4
:1011600002D300510346F9E70020186010BD0120AA
:1011700010BDEFF3108372B6026803F001030AB1E9
:101180001168016003B962B61046704781420DD301
:10119000436899420AD2EFF3108372B602680A607C
:1011A000016013F0010003D162B67047012070475F
:1011B0000020704701231039037089080023437011
:1011C00083704360038143818381C1817047000044
:1011D00070B5858904461646002D38D043891A1DFE
:1011E000013350F822200A60C2899BB29A4243819F
:1011F00004BF002343814368F3B14378022B1BD122
:10120000FFF7BAFD00210546FFF7E2FE2389E969F1
:101210001A1D013344F82210E2899BB29A422381BD
:1012200008BF0023284608BF2381FFF74BFE28464E
:1012300000F09CFC002070BDEFF31080EFF31083F2
:1012400072B6013DA5810028F4D162B670BD4AB1E5
:101250004268094B42B11968FFF776FD0821304614
:1012600000F0A8FC012070BD1B6843605A609860C4
:1012700001234370F2E700BF34190020C28980893E
:10128000101A704708B5FFF731FEBDE80840FFF7B8
:10129000B3BE838910B504460BB34389043350F8B9
:1012A00023300B604378022B04D10021FFF71EFE90
:1012B000FFF7A2FEEFF31083EFF3108272B6A2895C
:1012C000013AA28103B962B66389E28901339BB214
:1012D0009A42638101D100236381042010BD184626
:1012E00010BD0000436870B504460E46002B4BD07D
:1012F0004578022D20D0032D0AD0012D61D1FFF7B2
:101300003BFD044632461021FFF76BFE65700EE090
:101310000846FFF72EFF0546002852D02046FFF76B
:101320002BFD29460446FFF753FE01236370204638
:10133000FFF7C8FD214622E0FFF71EFD002105460C
:10134000FFF746FE2389E9691A1D44F82210EFF3DE
:101350001082EFF3108172B6A1890131A18102B927
:1013600062B6E28901339BB29A42238104BF002313
:10137000238101236B702846FFF7A4FD29461148FD
:10138000BDE87040FFF7E0BC8089E189884213D254
:1013900023891A1D44F82260EFF31082EFF31085C1
:1013A00072B60130A08102B962B601339BB2994294
:1013B00008BF0023238170BD0320BDE87040FFF704
:1013C00075BC70BDE818002010B5038B4278194336
:1013D000062A04460183438B15D133EA010219D151
:1013E00021EA030121832046FFF76CFD01232046FB
:1013F0006370628B0821FFF7F4FD21460648BDE8C3
:101400001040FFF7A1BC052A04D111EA030201D064
:101410004283E5E710BD00BFE8180020034B00221F
:101420001A60034A1268DA80704700BF2019002052
:101430003C6C000808B50E4B5A680E4B1968914277
:101440000D4905D01A60DA880868013A02449A808A
:1014500098880A8890420AD1002205481A60FFF74E
:101460008BFCBDE8084001460148FFF76DBC08BD94
:10147000E8180020201900207C1900200B4A13686E
:1014800030B5002443B90360816013B19D68691AC7
:10149000996044B1206030BD9D68A942F3D31C46D9
:1014A000491B1B68EEE7106030BD00BF30190020FB
:1014B000C0B1431C11D00C4B984211D80B4B1B6888
:1014C0004FF47A715A1E01FB0020B0FBF3F34FF684
:1014D000FE70834206D898B270474FF6FF7070478F
:1014E0004FF6FE70704700BF00093D00F46B000826
:1014F00038B1830704D10378002B18BF0020704750
:1015000000207047B0B50E4D287800AFA8B90D4C3B
:10151000236893F8241000F06FFB2368DA78FF2A21
:1015200003D1DA6A203282F3098862680AB984E852
:101530000C0000F019FD01232B700020B0BD00BF8E
:101540002D19002034190020014B1878704700BF76
:101550002D19002010B5EFF3108434B9EFF3058492
:101560001CB9EFF31484E40702D4034B187810BDC0
:10157000DFF808C000DF10BD2D1900204915000854
:1015800090B589B000AFEFF31083002B37D1EFF3A4
:101590000583002B33D1FFF7DDFF28B9194C2468F0
:1015A00014B1646804B1A047EFF3148404F0030499
:1015B000022C18D0032C1CD0012C1ED007F12004C3
:1015C00084F30988104C2478E40710D5022484F3AE
:1015D0001488BFF34F8FBFF36F8FDFF830C000DF89
:1015E0002437BD4690BD084C2478E407F5D4032485
:1015F000EDE7054C2478E407EFD5FF20F0E78220E3
:10160000EEE700BF1C190020226C00080515000839
:1016100070B50B461646024610B90024204670BD30
:1016200000680028F9D0B2F90440E51CADB2062DDF
:10163000F3D8D168C1B11269043444EA012100F041
:1016400019FB0028E9D00A4B0A4A013853F8204018
:10165000E36A5A63084B1B6843B19B6833B1314658
:10166000E0789847E063D9E70A46E5E7E663D5E71F
:1016700050130020191800081C19002008B500F0AC
:10168000B3FA18B10138024B53F8200008BD00BF6F
:101690005013002010B5FFF72BFF044670B1084B24
:1016A0001B681BB1DB680BB1C06B9847E07800F09A
:1016B00037FBFF280CBF8120002010BD802010BD0B
:1016C0001C19002008B528B1FFF7F2FE00F08EFDCE
:1016D000402008BD08BD000010B5EFF3108434B9F8
:1016E000EFF305841CB9DFF80CC000DF10BD8220C9
:1016F00010BD0000C5160008830705D138B1436945
:1017000001691B681846704700231946FAE703462B
:10171000FBE7000010B504460846DFF80CC000DF08
:1017200084E80300204610BDF916000810B548B142
:10173000046824B1237823B9204600F05BFC2046DE
:1017400010BD002010BD70B510F0030405460E4614
:1017500011D180B10378032B0DD10846FFF7A8FE05
:101760000146284600F014FD012806D1002E14BFC2
:10177000C120812070BD802070BD204670BD8207D1
:1017800008B50AD148B10378032B06D100F090FCCC
:10179000FF280CBF8120002008BD802008BD10B5A7
:1017A00010F0030407D130B10378032B03D100F00C
:1017B00029FC204610BD802010BD000070B50546F4
:1017C000EFF3108494B9EFF305867EB9EFF3148438
:1017D000E40706D4064C24781CB9BDE87040FFF736
:1017E000A5BF2846DFF80CC000DF70BD002070BD2B
:1017F0002D1900202D17000810B5EFF3108434B90F
:10180000EFF305841CB9DFF80CC000DF10BD8220A7
:1018100010BD000047170008084808B54FF0FF3119
:101820000068FFF7E9FFDFF818C000DF0446FFF7A4
:101830004BFA2046DFF80CC000DFFEE72819002035
:101840007D1600089516000810B5EFF3108434B922
:10185000EFF305841CB9DFF80CC000DF10BD822057
:1018600010BD00007F1700082DE9F04180460F46AB
:101870001646EFF3108404BBEFF30583D3B9EFF3FF
:101880001483DB0706D40E4B1B781BB9BDE8F0416F
:10189000FFF7BEBE0B4D4FF0FF312868FFF7ACFFDE
:1018A000404639463246DFF820C000DF044628684B
:1018B000FFF7CAFF2046BDE8F0810024FAE700BF29
:1018C0002D19002028190020111600080022FFF70A
:1018D000CBBF000010B5EFF3108434B9EFF30584EB
:1018E0001CB9DFF80CC000DF10BD822010BD000065
:1018F0009F17000810B5044660B1016851B14068F7
:1019000048B1037833B90431890089B2FFF752FC3A
:10191000606810BD002010BD38B5114C23780BB99C
:1019200000F0A8FA0F4B25781B68FF229A708DB93A
:1019300029460D48FFF7DEFF0C4B2A461860294662
:101940000B48FFF765FE0B4B18600B48FFF736FF9F
:101950000A4B186001232370094B0020187038BD12
:101960002C19002034190020286C0008F0130020E6
:10197000446C0008E41800205C6C00082819002062
:101980002D19002010B5EFF3108474B9EFF305841E
:101990005CB9EFF31484E40703D4BDE81040FFF70B
:1019A000BBBFDFF80CC000DF10BD822010BD0000FF
:1019B000191900082DE9FF410C46804618B3037839
:1019C000012B25D10846FFF773FD02A902464046C8
:1019D000FFF7FEFB012811D10020002C0246034630
:1019E00018BF4020029904460D4616461F46204661
:1019F000294632463B4604B0BDE8F081002002464D
:101A000003461020EEE78024054606460746EEE72B
:101A1000002580242E462F46E9E770B50E46144671
:101A2000054660B15AB90378012B08D1FFF726FCAF
:101A300038B128463146FFF725FC204670BD80208E
:101A400070BD812070BD0000F8B5114E34682CB116
:101A5000A368104F013BA360A26802B1F8BD2568DE
:101A6000386835602146FFF7D8FF10B10420FFF732
:101A70001DF96379012B07D1E1682046FFF7FEFCD1
:101A8000002DEBD02C46E7E701232371F8E700BFD8
:101A900030190020F01300207FB504461646084692
:101AA00001B122B180232360204604B070BD0B78C1
:101AB000012BF7D102A9FFF7ECFB042808BF102384
:101AC00001AD14BF0196019395E8070084E8070073
:101AD000EAE7000038B504461546EFF3108010B968
:101AE000EFF3058028B12A462046FFF7D5FF2046B0
:101AF00038BD08461146DFF80CC000DF84E8070057
:101B0000F5E70000B51900087FB50A4C21684FF0D1
:101B1000FF3203A8FFF7DEFF039B102BF6D10499D9
:101B200001A8FFF7F7FD019B002BEFD00298984723
:101B3000ECE700BFF0130020054B58600223437010
:101B4000044B1B681BB11B690BB1C06B1847704776
:101B5000341900201C19002008B50348FFF70CF9C0
:101B6000BDE80840FFF7E8BFE818002070B504465C
:101B700018B9BDE87040FFF7EFBF0C4EA27830688F
:101B800083789A424FF0010508D9FFF707F93368C7
:101B90005D702046BDE87040FFF7CEBF65702146FE
:101BA0000348BDE87040FFF7CFB800BF34190020EC
:101BB000E818002038B50D46014680B14FF6FF7396
:101BC0009842074C02D02068FFF7F2F823680548D6
:101BD0005D70FFF7D1F8BDE83840FFF7ADBF38BD05
:101BE00034190020E8180020024B186800B1C078B2
:101BF000704700BF3419002010B5A8B9194B1B68F5
:101C0000997083F82410184843689B788B4201D858
:101C1000002010BD134C2168FFF796F823680122BD
:101C20005A70FFF799FFF3E7104B1B88984217D8BB
:101C300001380F4B53F8204094B10A4BA1701B6838
:101C400084F824109C42DED02046FFF723F9637805
:101C5000012BDDD10448FFF78FF8FFF787FFD7E7A7
:101C6000FF2010BD34190020E8180020246C000863
:101C7000501300202DE9F04711F0FF0F0D4680466C
:101C8000234816469A4608BF0135FFF772FA044604
:101C900020B94FF000094846BDE8F0871D4B0663A8
:101CA0001B881D4E280AA06200218B4201F1010908
:101CB000EFD006EB89020F4652F8042C4946002A61
:101CC000F3D1EDB2012384F80390C4F81CA0C4F84A
:101CD00038A022706370A57084F824506260A260FE
:101CE000E26022612262A282E2822283628384F81D
:101CF000252018B90948FFF73CFA206320464146E1
:101D0000FFF71AF9204646F82740FFF72FFFC2E7F2
:101D100018170020246C00085013002040110020E8
:101D20002DE9F84F4D4D18B12B68DB78984241D121
:101D30002C68DFF83C810023637002F08AFCE062CB
:101D4000FFF7E0F92B681C6A0127A4B92A68444907
:101D5000D3784448013B41F82340116BFFF716FA52
:101D6000296841480C63FFF711FA2C60FFF7F4FE75
:101D70002046BDE8F88F6368B3B12046FEF7FCFF4C
:101D800000210646FFF724F93046FFF79BF87770ED
:101D900031464046FEF7D8FFE368326A6780A660A6
:101DA000E26034621C46D0E7E2686380A360E360CF
:101DB0001446CAE72D4B1B8898424DD8284B471E26
:101DC000994653F82760002E46D03046FFF74CF86E
:101DD0003046FFF777F8DFF898B0346A4FF0010A21
:101DE000B4B9316B1F4849F82740FFF7CFF93146A6
:101DF00034631D48FFF7CAF91D48296843689A787B
:101E00008B789A42B4D901234B70FEF79DFFADE762
:101E10006368DBB12046FEF7AFFF00218046FFF785
:101E2000D7F84046FFF74EF888F801A041465846DB
:101E3000FEF78AFFE368D8F82020A4F802A0C4F8CF
:101E40000880E260C8F820401C46C9E7E268638069
:101E5000A360E3601446C3E7FF2489E73419002038
:101E6000501300204011002018170020246C000897
:101E7000E818002038B52C4B2C491A880023184646
:101E800093424DD32A4B2B4819882B4C4022FFF705
:101E90004BF92A4B2A481A882A4B42F0004219680B
:101EA000FFF742F9284B1988284B08221868FFF7DA
:101EB0003BF9FF230025E3702148A56201236370ED
:101EC0002570A57084F824506560A560E5602561E3
:101ED0002562A582E5822583658384F82550FFF776
:101EE00048F91B4920632046FFF726F8194B0422C6
:101EF0001A705D60184B1A70DD601D619D82174B72
:101F000020461C6002236370FFF716FE144A154B2F
:101F100012781D705D70DA70BDE83840FFF77EBA48
:101F200041F823000133ABE7246C00085013002074
:101F3000F06B0008181700203C190020406C0008C6
:101F400040110020EC6B0008F26B00087C040020BC
:101F5000A90C0008E81800200019002034190020FE
:101F6000216C00086C13002008B51E4B1A6842F45F
:101F70007F021A601B681B0203F07F43DB43B3FA46
:101F800083F3194A194812680168DBB2C3F10803E8
:101F9000C2F30222934298BF531C6FF0807202FA80
:101FA00003F303F07F4321F07F4213430360FFF705
:101FB00071F80F4B0028186012DB00F1604000F54B
:101FC0006440FF2202701A6853099B0003F16043CA
:101FD00003F5614302F01F02012101FA02F21A60C7
:101FE00008BD00BF20ED00E00CED00E01CED00E0BE
:101FF000181900200323037000234380436083608B
:10200000C3607047F8B5438804469BB18068036A93
:102010009C4228D1E368036290F82430026A52BBE4
:1020200082789A4206D083701F4B1B68984201D079
:10203000FEF730FF1D4F0126656825BB1B4843682E
:102040006BB1194E9A7831688B789A4207D9FEF7AE
:102050007BFE336801225A702846FFF787FD002077
:102060002070F8BD1346002BD6D0DA689442F9D11F
:10207000E268DA60D0E7516819B189788B4238BFDD
:102080000B46D268CBE72046FEF776FE00210546D8
:10209000FEF79EFF2846FEF715FF6E70294638466C
:1020A000FEF752FEC8E700BF34190020E8180020F0
:1020B0002DE9F84343880546002B63D0324F8168F1
:1020C0003A6891425ED1013B9BB243801BB1002430
:1020D0002046BDE8F8830B6A984229D1C3680B6299
:1020E00091F824300C6A5CBB8B706A68DFF89C80C6
:1020F000002A3BD02846FEF73FFE21460646FEF763
:1021000067FF3046FEF7DEFE336AEB604FF00109F1
:102110003968D8F80430A5F80290AE6035628A7844
:102120009B789A4214D33046FFF720FDD0E7134640
:10213000002BD5D0DA689542F9D1EA68DA60CFE7AA
:1021400062681AB19278934238BF1346E468CAE7CE
:102150004046FEF7F9FD31464046FEF7F5FD3B6887
:1021600083F8019086F801902046DDE7D8F8042036
:1021700092789A42ABD94046FEF7E6FD3B680122D1
:102180005A70F1E7FF24A3E734190020E818002073
:10219000438870B504460E46134D43B92A688260E1
:1021A000116AC160106201336380002070BD8068D5
:1021B0002A689042F7D081B1937882789A4202D20D
:1021C0008370FEF767FE62684AB129682046FEF711
:1021D000BBFD09213046FFF7EDFC012070BD2B68E7
:1021E00063605A609C60F4E7341900200321FFF714
:1021F000E1BC0000426810B57AB1FEF7BDFD0446AF
:10220000FEF760FE012161702046FEF7E1FE2146E7
:102210000448BDE81040FEF797BD42880132428075
:1022200010BD00BFE818002070B5134C23681A6970
:10223000950707D5DA68900704D56FF002021A6196
:10224000FEF74CFC23681A69510713D5DA68520768
:1022500010D56FF00402094E1A615D6A3368EB1AFB
:10226000B3F57A7F06D301F089FB236805F57A720E
:102270009A63356070BD00BF80190020F00C00200B
:1022800030B589B001A903A801F0B0FA01F07EFAD7
:10229000244B0190DA69244C42F00102DA61DA69D8
:1022A00002F001020292029A1A6942F001021A61D6
:1022B0001A6922F001021A61069A4FF080432360E6
:1022C0004FF0FF33E360194B4ABBB0FBF3F001382A
:1022D0000025606014482561A560656101F0F0FA91
:1022E00013491C2000F02AFD124B0F484FF080527A
:1022F0001A60294601F02CFB04210B4801F028FB51
:1023000023680D4A596A1160126802F57A729A635D
:10231000DA68284642F00402DA6009B030BD4000B5
:10232000D3E700BF001002408019002040420F0098
:102330002922000800E100E0F00C00204FF080436B
:10234000034A1360DA6822F00402DA60704700BFC3
:10235000801900204FF08043034A1360DA6842F08E
:102360000402DA60704700BF801900207FB505289D
:1023700043D8DFE800F003121E2A4236214B5A6987
:1023800042F400325A615B6903F400330193019B0C
:102390004FF0904007B05DF804FB1A4B1A485A6999
:1023A00042F480225A615B6903F480230293029B0A
:1023B000F0E7144B15485A6942F400225A615B69F0
:1023C00003F400230393039BE4E70E4B10485A6980
:1023D00042F480125A615B6903F480130493049BF6
:1023E000D8E7084B0B485A6942F480025A615B698E
:1023F00003F480030593059BCCE70748FEF720FC18
:102400000020C7E700100240000400480008004810
:10241000000C004800140048606C000810B5002152
:10242000044604F00F0400F03DF90120A04010BD67
:1024300070B504464B1C0E46218218D0C1F3031020
:10244000FFF794FF05463046FFF7E8FF238A084A66
:10245000656103F00F03206052F82330A36105F19A
:102460001003636005F118032835A360E56070BDB3
:10247000846C0008B0F9100000F096B910B58369BB
:10248000446971B9216893FAA3F2B2FA82F2032087
:10249000520000FA02F221EA020293FAA3F3226048
:1024A00010BD226893FAA3F1B1FA81F193FAA3F374
:1024B0000320490000FA01F1B3FA83F322EA010292
:1024C0005B00012101FA03F31343236010BD08B53B
:1024D000FFF734FF0121002000F050FCBDE8084068
:1024E000FFF738BF384B5A692DE9F041374CD20716
:1024F00023602AD59868364F9968364E9A68364DCB
:102500003840B84201EA060104BF01279F60B1428A
:1025100008BF2D4B02EA050204BF4FF480769E608F
:10252000AA4202BF284B4FF480359D60284B984249
:1025300005D0284B994202D0274B9A4205D1274B10
:10254000274A1B681068012198472368DA685B698D
:10255000970707D09E0705D5204B214A1B681068B6
:1025600000219847236899695A695B698D0709D5E5
:10257000900507D5190405D5184B194A1B68106832
:1025800005219847226896695569526916F0040634
:1025900005F4806508D03DB1120405D50F4B104AF3
:1025A0001B6810680721984723685B6956B14DB1D5
:1025B0001B0407D5094B0A4A1B6810680221BDE8B5
:1025C000F0411847BDE8F08100640040F40C0020A1
:1025D000030000040003000800000310380D002071
:1025E000340D0020FFF77EBFFFF77CBF054B186856
:1025F00038B901221A60044B4FF080421A60FFF78D
:102600003FBE70473C0D00208019002008B5044BE8
:102610001B680BB9FFF7EAFF4FF08043586A08BD0B
:102620003C0D00204FF08043034A13605863DA6882
:1026300042F00202DA607047801900204FF08043B8
:10264000034A1360DA6822F00202DA60704700BFC2
:1026500080190020034A4FF0804313606FF002029C
:102660001A6170478019002030B5C36891FAA1F44F
:10267000B4FA84F491FAA1F10325B1FA81F164006E
:1026800005FA04F4490023EA040302FA01F11943AC
:10269000C16030BD012A02D0022A18BF0022FFF714
:1026A000E3BF00002DE9F0413E4B00F00F08C0F3FE
:1026B00003100E4601F0070553F82840FFF756FEB9
:1026C000826894FAA4F3B3FA83F394FAA4F103278B
:1026D0005B00B1FA81F107FA03F322EA03034A002F
:1026E00007FA02F21343022D836028D0BD4241D085
:1026F000012D3FD00023026894FAA4F7B7FA87F7B8
:1027000094FAA4F14FF0030EB1FA81F17F000EFAB2
:1027100007F7490022EA07028B40013D1343012DD0
:10272000036005D8436832074CBF2343A34343608B
:10273000C6F301122146BDE8F041FFF7ABBFB8F187
:10274000070FC6F3032717D9426A230A93FAA3F1A6
:10275000B1FA81F193FAA3F34FF00F0EB3FA83F3BA
:1027600089000EFA01F19B0022EA010207FA03F345
:10277000134343622B46BEE7026A94FAA4F3B3FA0A
:1027800083F394FAA4F14FF00F0EB1FA81F19B009C
:102790000EFA03F3890022EA030207FA01F3134356
:1027A0000362E7E7846C000800F00F021C4B70B571
:1027B000C0F303100D4653F82240FFF7D7FD06681B
:1027C00094FAA4F1B1FA81F394FAA4F25900032324
:1027D000B2FA82F28B4033405200D340013B012BCE
:1027E00005D8EB1E022B436809D823434360032D11
:1027F00008D101222146BDE87040FFF74BBF23EA14
:1028000004034360012DF4D0052D01D0022D01D128
:102810000222EFE721460022BDE87040FFF724BF07
:10282000846C00084368184970225A4310B58B180D
:1028300004688C5082685A60C2689A600269DA60E3
:1028400042691A61C2699A610022A3F85220A3F872
:102850005020A3F85A20A3F85820B0F91A200132CA
:102860000AD108225A61184600F0F7FB58B1074810
:10287000BDE81040FEF7E4B9B0F9182001320CBFF2
:1028800004220C22EEE710BD5C0D0020C46C000891
:10289000F7B51C4F054657F8200000282FD07026AA
:1028A000194C6E43A359DA69520609D51B685906BB
:1028B00006D5164B01211B689847A35940221A627E
:1028C00070266E43A359DA6992060DD51B689806E7
:1028D0000AD50E4B57F825001B6800219847A359CD
:1028E0009B8C9BB20193019B70235D436359DA6912
:1028F000110704D59A68D20744BF08221A6203B0B0
:10290000F0BD00BF440D00205C0D0020400D0020F4
:102910000020FFF7BDBF0120FFF7BABF0220FFF77D
:10292000B7BF0000F0B50E4685B0044649493046B1
:102930001546FEF73BF9484907462846FEF736F9A3
:1029400001463846FEF714F9444B2060984251D1B5
:1029500003F55843DA6842F48042DA60DA6822F418
:102960008042DA609A6942F480429A619A6902F47C
:1029700080420192019A1A6B22F0030242F0010296
:102980001A630023636033493046FEF7D3F83249B7
:102990002846FEF7CFF8721C03D001213046FFF71E
:1029A00003FF6B1C03D001212846FFF7FDFE4FF407
:1029B0001653A3600023E36023616361E361268310
:1029C00065832046FFF72EFF2268254B9A420FD1E0
:1029D000244B01221A60244B04F120052068616811
:1029E0001A4603C20834AC421346F7D1206810607F
:1029F00005B0F0BD1A4B984214D103F5E6331A69BD
:102A000042F400321A611A6922F400321A61DA695A
:102A100042F40032DA61DB6903F400330293029B73
:102A20000123AFE7114B9842ADD103F5E4331A69A6
:102A300042F480221A611A6922F480221A61DA694A
:102A400042F48022DA61DB6903F480230393039B61
:102A5000022397E7246D0008DC6C00080038014071
:102A600000440040580D0020C019002000480040DC
:102A70008160FFF7D7BE0000034B19604168034B2C
:102A800043F82120704700BF400D0020440D002076
:102A900070B590E828000E4625498B4218D125498B
:102AA0002524702324486B431AB3C2581368EEB927
:102AB00043F020031360204600F040F9620901232F
:102AC00004F0070403FA04F41C4B43F8224070BDE1
:102AD0001B498B4202D11B492624E2E71A498B424B
:102AE00013BF0021194927240C46DAE743F04003BD
:102AF000E0E7C3581A6836B922F020021A601B6852
:102B00001A0606D570BD22F040021A601B689B06AB
:102B10000DD46309012204F0070402FA04F42033FF
:102B2000064A42F82340BFF34F8FBFF36F8F70BD4B
:102B300000380140112900085C0D002000E100E090
:102B40000044004017290008004800401D290008E3
:102B5000426870235343034AD358D869C0F34010E6
:102B6000704700BF5C0D002010B544680146084660
:102B7000FFF7EEFF0028FAD07023054AC9686343C7
:102B8000D358988C09B9C0B210BDC0F3080010BD6D
:102B90005C0D0020426870235343034AD358D86920
:102BA000C0F3C010704700BF5C0D002038B5456809
:102BB00004462046FFF7EEFF0028FAD07023054AAE
:102BC000E0686B43D35810B9C9B2198538BDC1F359
:102BD0000801FAE75C0D002008B500F005F8BDE833
:102BE000084000F0B9BE0000144A1549536803F0CC
:102BF0000C03042B10B501D0082B0AD0114B0B602D
:102C00005368114AC3F30313D25C0B68D3400B60C3
:102C100010BD53685068C00349BFD06A0B48094CC7
:102C200000F00F00C3F3834348BF013003F10203F8
:102C300048BFB4FBF0F04343E1E700BF001002409F
:102C4000C401002000127A006C6D000800093D00EC
:102C500030B591B00323069301230A931023002477
:102C60000B9302254FF4601306A807940D950E945C
:102C70000F9300F025FA80B90F23019303904FF4CE
:102C800080630590294601A80295049300F0BCFCDE
:102C9000B0FA80F0400911B030BD2046FBE708B51E
:102CA000FFF7D6FF00B9FEE708BD00001D4AD2F8C5
:102CB000883010B543F470031B4CC2F88830236889
:102CC00043F0010323606168184B0B406360236885
:102CD00023F0847323F480332360236823F4802358
:102CE0002360636823F4FE036360E36A23F00F0349
:102CF000E362216B0E4B0B4023630023A3604FF074
:102D0000006393600B4B0C4A1A6000F025FEFFF73E
:102D1000C6FF236943F001032361236923F0010304
:102D2000236110BD00ED00E0001002400CC07FF8F0
:102D3000CCFC00FFC401002000127A0030B50C4C1E
:102D4000A268A468B4F1006F13460CD1131F094C9C
:102D5000094A53F8045F42F8045FA242F9D1044AD9
:102D60004FF000539360103043F8201030BD00BF87
:102D700000ED00E084010020FCFFFF1F064A1369FC
:102D8000012923F00403136101D130BF704740BF14
:102D900020BF20BF704700BF00ED00E0704700007B
:102DA00038B5044605682169A368C26928680B43E1
:102DB00061690B434949134301400B432B606B6826
:102DC000E168206A23F440530B436B60A968A36950
:102DD00021F4306103430B43AB60414B9D4212D160
:102DE00003F558433F491B6B03F00303B2F5004F53
:102DF000CB5C3BD1082B36D8DFE803F00F2124351C
:102E00002D3535353000384B9D4203D003F58063B6
:102E10009D425ED1B2F5004F31D100F0B7FC616840
:102E20004A0802EB4003B3FBF1F39BB2002023F00E
:102E30000F022168C3F342031343CB6038BD00F097
:102E4000BDFCECE76068430803F5740303F5105319
:102E5000B3FBF0F3E9E700F0A5FBE0E760684308A7
:102E600003F58033F4E701200023E0E7082B33D893
:102E7000DFE803F005101B32273232322A0000F05F
:102E800085FC636800EB5300B0FBF3F080B2E860B0
:102E9000002038BD00F092FC636800EB5300B0FBEB
:102EA000F3F00F4B80B2D860F2E76268530803F585
:102EB000F40303F59053B3FBF2F3094A9BB2D360DA
:102EC000E6E700F06FFBE7E76268530803F50043AD
:102ED000F1E7B2F5004FC6D0012038BDF369FFEF2E
:102EE00000380140846D000800440040436ADA075E
:102EF00010B506D50168846A4A6822F4003222437C
:102F00004A609C0706D50168C46A4A6822F4803288
:102F100022434A60590706D50168046B4A6822F4C7
:102F2000802222434A601A0706D50168446B4A682A
:102F300022F4004222434A60DC0606D50168846B15
:102F40008A6822F4805222438A60990606D5016875
:102F5000C46B8A6822F4005222438A605A060FD555
:102F60000168046C4A6822F480122243B4F5801F81
:102F70004A6005D14A68446C22F4C00222434A6088
:102F80001B0606D50268816C536823F400230B43AB
:102F9000536010BD2DE9F041069D04460F461646CC
:102FA00098462168CA6937EA02030CBF0122002251
:102FB000B24202D00020BDE8F0816B1CF2D09DB976
:102FC00023681A6822F4D0721A609A6822F001020B
:102FD0009A60202384F8693084F86A30002384F8EA
:102FE00068300320BDE8F08100F0D0FCA0EB0800C1
:102FF0008542D6D2E4E773B504460026C66600F0E3
:10300000C5FC23681B681A07054617D423681B688C
:103010005B070AD56FF07E43009300222B464FF4E6
:1030200080012046FFF7B6FFA0B92023002084F8D6
:10303000693084F8680084F86A300CE06FF07E43F1
:103040000093324603464FF400112046FFF7A2FFDB
:103050000028DBD0032002B070BD10B5044660B379
:1030600090F8693003F0FF021BB980F86820FFF781
:1030700095FE2268242384F86930136823F0010345
:1030800013602046FFF78CFE012816D0636A13B147
:103090002046FFF72BFF23685A6822F490425A60BB
:1030A0009A6822F02A029A601A6842F001022046C9
:1030B0001A60BDE81040FFF79EBF012010BD000060
:1030C0000368DA072DE9F347054611D42B689B07FF
:1030D00000F188802B681C0700F1F8802B685807E6
:1030E00000F14181EA69002A40F0D781002021E007
:1030F000BA4C636803F00C03042B07D0636803F039
:103100000C03082B19D16368DF0316D54FF4003385
:1031100093FAA3F2216893FAA3F3B3FA83F303F0CB
:103120001F03012202FA03F30B42CFD06B68002B7E
:10313000CCD1012002B0BDE8F0876A68B2F5803FCB
:1031400025D1236843F480332360E36AA96823F020
:103150000F030B43E36252B300F018FC4FF4003648
:103160008046012796FAA6F3226896FAA6F3B3FAE8
:1031700083F303F01F0307FA03F31342A6D100F011
:1031800005FCA0EB08006428ECD90320D2E72368F3
:1031900032B923F480332360236823F48023D3E7F8
:1031A000B2F5A02FF5D143F480232360C9E700F0E6
:1031B000EDFB4FF400368046012796FAA6F322680D
:1031C00096FAA6F3B3FA83F303F01F0307FA03F3A7
:1031D00013423FF47BAF00F0D9FBA0EB080064285A
:1031E000EBD9D2E77D4C636813F00C0F07D063680E
:1031F00003F00C03082B21D16368DE031ED40223E5
:1032000093FAA3F2216893FAA3F3B3FA83F303F0DA
:103210001F03012202FA03F30B4202D02B699342EF
:1032200087D12168F82393FAA3F3B3FA83F26B6989
:10323000934021F0F802134323604BE72A690126EB
:103240000AB396FAA6F3B3FA83F303F1845303F5B2
:1032500084139B0002271E6000F098FB804697FABB
:10326000A7F3226897FAA7F3B3FA83F303F01F03D7
:1032700006FA03F31342D4D100F088FBA0EB080058
:103280000228ECD981E796FAA6F3B3FA83F303F1A7
:10329000845303F584139B0002271A6000F076FB29
:1032A000804697FAA7F3226897FAA7F3B3FA83F355
:1032B00003F01F0306FA03F313423FF40BAF00F0D1
:1032C00065FBA0EB08000228EBD95EE7AA69434E34
:1032D000434901241AB394FAA4F3B3FA83F30B44D9
:1032E0009B0002271C6000F051FB804697FAA7F371
:1032F00097FAA7F397FAA7F3726A97FAA7F3B3FAC4
:1033000083F303F01F0304FA03F313427FF4E6AEE2
:1033100000F03CFBA0EB08000228E7D935E794FA5F
:10332000A4F3B3FA83F30B449B0002271A6000F066
:103330002DFB804697FAA7F397FAA7F397FAA7F31E
:10334000726A97FAA7F3B3FA83F303F01F0304FA40
:1033500003F313423FF4C2AE00F018FBA0EB0800E9
:103360000228E7D911E71D4CE369D90034D4E36999
:1033700043F08053E361E36903F080530193019BC1
:103380000126184F3B68DA052ED5EB68012B3CD19E
:10339000236A43F00103236200F0F8FA0227824611
:1033A000B9464FF0010897FAA7F397FAA7F3002B55
:1033B0006BD0226A99FAA9F3B3FA83F303F01F03DF
:1033C00008FA03F3134257D0002E3FF48BAEE369A3
:1033D00023F08053E36185E60026D2E70010024027
:1033E00020819010007000403B6843F480733B6084
:1033F00000F0CCFA80463B68DB05C6D400F0C6FA84
:10340000A0EB08006428F6D9BFE63BBB236A23F093
:1034100001032362236A23F00403236200F0B6FA57
:1034200002278246B9464FF0010897FAA7F397FAA8
:10343000A7F373B3226A99FAA9F3B3FA83F303F0FB
:103440001F0308FA03F31342BED000F09FFA41F2C3
:103450008833A0EB0A009842E7D996E6052B236A49
:1034600003D143F00403236292E723F001032362B4
:10347000236A23F004038EE700F088FA41F28833D0
:10348000A0EB0A0098428ED97FE697FAA7F3626A0A
:1034900090E797FAA7F3626ACDE7414C636803F0BF
:1034A0000C03082B3FF445AE022A4FF0807352D133
:1034B00093FAA3F3B3FA83F303F1845303F584136C
:1034C0009B0000221A6000F061FA4FF000778046FE
:1034D000012697FAA7F3226897FAA7F3B3FA83F3C2
:1034E00003F01F0306FA03F313422DD162686B6ADF
:1034F000296A22F474120B43134363604FF0807304
:1035000093FAA3F3B3FA83F303F1845303F584131B
:103510009B004FF000751E6000F038FA0126074648
:1035200095FAA5F3226895FAA5F3B3FA83F303F0AD
:103530001F0306FA03F313427FF4D8AD00F026FA16
:10354000C01B0228ECD920E600F020FAA0EB08000E
:103550000228BED919E693FAA3F3B3FA83F303F171
:10356000845303F584139B0000221A6000F00EFAC6
:103570004FF000750746012695FAA5F3226895FAE3
:10358000A5F3B3FA83F303F01F0306FA03F3134220
:103590003FF4ACAD00F0FAF9C01B0228ECD9F4E519
:1035A0000010024010B5134C616801F00C03082BA9
:1035B0001ED14FF4701393FAA3F301F47012B3FA0F
:1035C00083F322FA03F30C4AD05CE36A0F2292FAE7
:1035D000A2F2B2FA82F203F00F03D340074AD25CA0
:1035E000CB034ABF064B074BB3FBF2F3584310BD66
:1035F000034810BD00100240886D0008986D000857
:1036000000127A0000093D005C4A136803F00703CA
:103610008B422DE9F04106460D4630D332689107C2
:103620003AD4D20740D4554A136803F007039D42A9
:10363000C0F092803268524C12F0040F40F0978034
:10364000130706D56368326923F4605343EAC20363
:103650006360FFF7A7FF6368F02292FAA2F2B2FA62
:1036600082F203F0F003D340464AD35CD840464B85
:1036700018600F20FEF704FE0020BDE8F0811368FB
:1036800023F007030B431360136803F00703994209
:10369000C4D00120BDE8F0813949B0684B6823F0FF
:1036A000F00303434B60BCE77268354C012A28D114
:1036B0004FF4003393FAA3F1216893FAA3F3B3FA1A
:1036C00083F303F01F0302FA03F30B42E1D06368B4
:1036D00023F003031A43626000F058F97368012B6A
:1036E000074641F288381FD1636803F00C03042BAE
:1036F00099D000F04BF9C01B4045F5D90320BDE837
:10370000F081022A0CBF4FF00073022393FAA3F159
:10371000206893FAA3F3B3FA83F303F01F030121A4
:1037200001FA03F30342D1E7022B10D1636803F0DF
:103730000C03082B3FF477AF00F028F9C01B40457D
:10374000F4D9DBE700F022F9C01B4045D6D8636806
:1037500013F00C0FF6D166E7136823F007032B4331
:103760001360136803F007039D4292D162E7636818
:10377000F16823F4E0630B43636061E700200240DB
:10378000001002406C6D0008C4010020084B4FF48B
:10379000E0625B6892FAA2F2B2FA82F203F4E063AA
:1037A000D340044AD35C044A1068D840704700BF35
:1037B000001002407C6D0008C4010020084B4FF44B
:1037C00060525B6892FAA2F2B2FA82F203F460539A
:1037D000D340044AD35C044A1068D840704700BF05
:1037E000001002407C6D0008C40100200F2303601C
:1037F0000B4B5A6802F0030242605A6802F0F00272
:1038000082605A6802F4E062C2605B68DB0803F41D
:10381000E0630361034B1B6803F007030B60704711
:10382000001002400020024070470000214A036857
:10383000904210B505D0B0F1804F02D01E4CA0428E
:103840000CD14C6823F07003904243EA040310D07B
:10385000B0F1804F0DD0184A90420AD0174A9042DA
:1038600007D002F58062904203D002F58062904258
:1038700003D1CA6823F4407313434A6923F08003D9
:10388000134303608B68C3620B688362094B9842E1
:103890000BD003F5A053984207D003F580639842FC
:1038A00003D003F58063984201D10B6903630123C0
:1038B000436110BD002C0140000400400040014065
:1038C00010B50446A0B190F83D3003F0FF021BB9DB
:1038D00080F83C20FFF7A8FF022384F83D302068E1
:1038E000211DFFF7A3FF012384F83D30002010BD08
:1038F000012010BD036A10B501248C4023EA0403A3
:103900000362036A8A401A43026210BD10B504467E
:1039100001220068FFF7EEFF23680C4A93420BD0A8
:1039200002F5A052934207D002F58062934203D081
:1039300002F58062934203D15A6C42F400425A6409
:103940001A6842F001021A60002010BD002C0140EC
:10395000FFF7DCBF70470000074A08B5136843F063
:1039600010031360032000F017F80F20FEF788FC07
:10397000FFF7F0FF002008BD00200240024A136854
:1039800001331360704700BFE4190020014B186831
:10399000704700BFE4190020074AD36823F4E063AE
:1039A0001B041B0C43F0BF63000243F4003300F41C
:1039B000E0600343D360704700ED00E00368DB691B
:1039C000184703685B69184703689B6A184700F04B
:1039D0004EBAA0F14C00FFF7FABF00F04BBAA0F1CD
:1039E0004C00FFF7FABF4FF0FF31603000F020BE0F
:1039F000A0F14C00FFF7F7BF603000F01CBEA0F153
:103A00004C00FFF7F9BF000038B504461D46049B83
:103A100000F038FA294604F14C0000F09BF8064B00
:103A200003F1080228332260E36404F1600000F02F
:103A3000E7FD204638BD00BFA86D000810B504465C
:103A4000FDF7CAF823682BB9E068FDF770F8012389
:103A500060602360BDE81040FDF7D4B838B5054676
:103A6000FDF7BAF82C6824B1E868FDF760F86C68D7
:103A7000041BFDF7C7F8204638BD38B50546FDF7ED
:103A8000ABF82846AC68FFF7E9FF0444FDF7BAF845
:103A9000204638BD08B5FFF7F0FF4FF47A7390FB6E
:103AA000F3F008BD10B50446FDF796F8E068FDF7A1
:103AB0003EF800236060A360BDE81040FDF7A2B8A7
:103AC000002310B50360436083600446FDF702F8ED
:103AD000E0602046FFF7E6FF204610BD70477047C4
:103AE000F8B503689B6B0E4604468F189847354619
:103AF000BD4207D0236815F8011B1B6C2046984770
:103B00000130F5D123682046DB6B9847A81BF8BD30
:103B1000F8B503689B6B0E4604468F1898473546E8
:103B2000BD4208D0236820465B6C9847431C02D0F6
:103B300005F8010BF4E723682046DB6B9847A81BC8
:103B4000F8BD002070470020704770470020704784
:103B5000002070471FB50446002200F085F8094B8D
:103B60002360002323612246074901A802F056F88A
:103B7000064901A801F064F8206100F02AFC204603
:103B800004B010BD706E0008606E0008646E00081E
:103B900010B5064B03600446006900F097FE044B25
:103BA0002360204600F084F8204610BD706E0008A7
:103BB000206E00080EB477B5036807AD044655F8CB
:103BC000046B9B6B98472069019500F039FF019ABF
:103BD0002069314601F022FC23680546DB6B204654
:103BE0009847284603B0BDE8704003B070470368AB
:103BF000184708B10B68036070477047884238B5B2
:103C000004460D460AD0FCF7B2FC3CB1EB681BB190
:103C10005B68294620469847EB68E360204638BD3C
:103C2000C36810B504460BB19B689847204610BD89
:103C3000007B7047036870B5044683B9094D4FF0A7
:103C4000FF312868FDF7D8FD23682BB9261D02D067
:103C5000304600F0D5FC26602868FDF7F5FD2068A9
:103C600070BD00BFF413002038B504460D4B03604F
:103C700000234360A16002730B480D46FFF7DAFF93
:103C80004FF0FF3100F0D4FC55B1084B1A68626068
:103C90001C600548FFF7CEFF00F0CDFC204638BD84
:103CA0006560F6E7CC6E0008900F00208C0F0020B6
:103CB000124B10B5036004461148FFF7BBFF4FF0ED
:103CC000FF3100F0B5FCA3682BB10E4A13689C428B
:103CD0000ED1636813600A48FFF7ACFF00F0ABFC3D
:103CE000237B13B9204600F0A7FB204610BD1346E6
:103CF0005A689442FBD162685A60ECE7CC6E0008C7
:103D0000900F00208C0F002010B50446FFF7D0FF65
:103D1000204600F08EFB204610BD0000F8B5074697
:103D200010480E46FFF786FF4FF0FF3100F080FC91
:103D30000D4B1C6864B1A5688DB1324639462846E2
:103D400002F011F858B9284602F005F8864206D16B
:103D50000448FFF76FFF00F06EFC2046F8BD646872
:103D6000E8E700BF900F00208C0F002010B5002363
:103D7000036043600A782F2A04460DD14A785AB16D
:103D8000481C2060194623681A782F2A06D101336F
:103D90002360FFF7C3FF6060204610BD002AF8D003
:103DA000013301312360EEE700687047406808B5D1
:103DB00020B1FFF73DFF431E5842584108BD10B5E2
:103DC0000446FFF7F3FF00B1606810BD406808B516
:103DD00020B1FFF72DFFB0FA80F0400908BD10B503
:103DE0000446FFF7F3FF00B1606810BD4068003083
:103DF00018BF01207047704710B5034B036004469D
:103E0000FCF72AFA204610BDDC6E000810B5044607
:103E1000FFF7F2FF204600F00CFB204610BD00002B
:103E200010B5044600F02EF8014B2360204610BD6B
:103E3000DC6E000870477047704700EB011202F11A
:103E40002800536B1B68184770B50546044655F8A3
:103E5000043B0E461B68984728463146FEF708FE8D
:103E60002368A66420465B68BDE8704018470430AC
:103E7000FEF77ABE10B504300C46FEF797FE2046DA
:103E800010BD00002DE9F04305461E461B4B45F8CA
:103E9000043B85B0044688469146002124222846EA
:103EA00001F0A2F80022626362646946A664144FBE
:103EB000144E009704F128000396FFF79FFE684612
:103EC000FCF755FB694604F1380000970396FFF7AD
:103ED00095FE6846FCF74BFB4A4641462846FEF7EE
:103EE00021FDA16C2846FEF7C3FD2846224606495F
:103EF000FEF7C2FD204605B0BDE8F083F46E000871
:103F0000353E0008B86E00083B3E00082DE9FF4131
:103F10000546884655F8043B1B68044616469847F4
:103F2000FCF75AFED8F80C70300197B128304146A2
:103F30002044FFF763FE012231462846FEF7A8FD24
:103F4000FCF760FE236820465B68984704B0BDE834
:103F5000F081074B00932830064B039369462044B9
:103F6000FFF74CFE6846FCF702FB3A46E4E700BF69
:103F7000353E0008B86E000838B5044648B15830E0
:103F8000A04206D0A0F12C051438FFF749FE2846C0
:103F9000F6E7204638BD000070B50E4C20460025DF
:103FA00028263246294640F8045B01F01DF83246C7
:103FB000294604F13000E56201F016F8A5652046B7
:103FC000E565054A84F860500449BDE8704000F09A
:103FD000FBB900BFAC0F002088010020793F00082A
:103FE00010B50446006930B1036861695B6A98479F
:103FF0000023236110BD6FF0150010BD30B40446DE
:10400000006903689D6A1346AC460A46616930BC84
:10401000604730B4044600690368DD6A1346AC4665
:104020000A46616930BC6047036941691A681846ED
:10403000126B1047036941691A681846526B1047A2
:1040400030B40446006903689D6B1346AC460A46CB
:10405000616930BC6047036941691A681846D26BD0
:104060001047036941691A681846126C10470369C2
:1040700041691A681846526C104770B50D460169BF
:10408000044641B929680E6A00F114012846B04778
:1040900018B9256170BD6FF0150070BD074B10B5E4
:1040A0000360036904460BB1FFF79AFF044B2360DA
:1040B0002046FFF7FDFD204610BD00BF0C6F000835
:1040C000206E000810B50446FFF7E8FF204600F018
:1040D000B0F9204610BD000010B50022044611467C
:1040E000FFF7C2FD034B2360002323616361204679
:1040F00010BD00BF0C6F000800F0CCBF01F028B865
:1041000000F07ABF70B50546FEF780FA4FF47A7476
:1041100095FBF4F4002C064602DDFCF757FD28B9A8
:10412000FEF774FA801BA842FAD370BD204600F057
:1041300065FAF5E707EE100ADFED047A67EE277AF5
:10414000FDEEE77A17EE900AFFF7DCBF0024744912
:104150004FF47A735843FFF7D5BF0000034B10B5F7
:1041600003600446FFF79AFF204610BD586F000811
:1041700008B5084B1B685BB9022107480F22FEF700
:10418000D1FB4FF416510448BDE80840FEF770BC5F
:1041900008BD00BF580D0020C0190020022810B52E
:1041A000044601DC002010BD00F038FB0923036049
:1041B000033C094B53F82400002243F8242040B16B
:1041C00003681B699847041EECDA00F027FB644281
:1041D00004604FF0FF3010BD10100020F8B5054608
:1041E0000E46144600F01AFB0923022D03600FDC73
:1041F000124B1B680BB9FFF7BBFF35463719104E42
:10420000BD4215D015F8011B3046FEF7CFFCF7E78D
:10421000033D0C4B53F8250060B103682246DB6870
:1042200031469847041E03DA00F0F8FA634203604F
:104230002046F8BD4FF0FF34FAE700BF580D0020CC
:10424000C01900201010002070B504460D46164617
:1042500000F0E4FA0923022C03600BDC0F4B1B680F
:104260000BB9FFF785FF0E48FEF77EFC012428708E
:10427000204670BD033C0B4B53F8240058B1036833
:1042800032469B6829469847041EF1DA00F0C6FAC8
:1042900063420360ECE74FF0FF34E9E7580D00207C
:1042A000C01900201010002010B5044600F0B6FA26
:1042B0000923022C036010DD033C0A4B53F8240051
:1042C00040B103689B699847041E08DA00F0A6FA1B
:1042D000644204604FF0FF3010BD012010BD00208B
:1042E00010BD00BF1010002070B504460D461646E4
:1042F00000F094FA0923022C03600BDD033C084B09
:1043000053F8240040B1036832462946DB69BDE812
:1043100070401847002070BD4FF0FF3070BD00BFE7
:1043200010100020022808B504DC4FF400534B6045
:10433000002008BD00F072FA092303604FF0FF303F
:1043400008BD08B5FEF748FCFCF7E2FC08BD704765
:1043500008B5FFF7FCFFBDE80840FCF769B80000AE
:104360000C4A136810B51844EFF30881884205D34E
:10437000094B0C221A604FF0FF3010BD07490C6842
:1043800024B10749096821448842F1D210601846D7
:1043900010BD00BFC8010020E81900202C1100202A
:1043A00030110020074C08B523680546986800F0D6
:1043B00047FB2368D86800F043FB0DB1FCF736FCDF
:1043C000FEE700BFCC0100200120704708B5FFF7D1
:1043D000E9FF002101F06CBB08B5FCF7A7FC08BDA4
:1043E00008B5FCF7ABFC08BD10B500F069FD04464C
:1043F00010B90248FCF724FC204610BDBB6F000832
:1044000010B500F05DFD044610B90248FCF718FC39
:10441000204610BD9C6F000808B100F059BD7047E0
:1044200010B50446FFF79AFE2046FFF7F5FF204639
:1044300010BDFFF7F1BF000010B504460C48FFF7B0
:10444000F9FB4FF0FF3100F0F3F80023094A194659
:1044500052F82300A04208BF42F823100133402B3A
:10446000F6D10348FFF7E6FBBDE8104000F0E3B8E3
:1044700010110020101000202DE9F34789464E4905
:10448000064601F05EFC044628B9FFF771FE20469F
:1044900002B0BDE8F0874949304601F052FC18B936
:1044A000FFF766FE0124F2E74549304601F049FC7A
:1044B00018B9FFF75DFE0224E9E700F0AFF9092320
:1044C00003604048404FFFF7B5FB4FF0FF3100F06D
:1044D000AFF80024B84657F82450002D54D00134CA
:1044E000402CF8D100F09AF9182303603548FFF703
:1044F000A1FB00F0A0F80DE031466846FFF736FC5E
:104500006846FFF773FC40B947F8240000F086F9CD
:10451000022303604FF0FF34B9E76846FFF756FC0B
:1045200020B16846FFF75BFC05463FE06846FFF7B1
:1045300046FC824630B900F071F90223036047F867
:1045400024A0E7E71820FFF74FFF0646FFF7C4FD5A
:104550001E4B33606846FFF727FC29F48033024680
:1045600051463046FFF789FD071E0BDA00F056F979
:104570007F4207601EB1336830465B68984748F851
:104580002450C7E7354611E04FF0FF330D4847F898
:104590002430FFF74FFB00F04EF833783A2BABD1C5
:1045A0006A460B49304601F05DFB009D002DE6D0C8
:1045B00048F8245003346AE7E06F0008E76F00080A
:1045C000D86F00081011002010100020586F00084C
:1045D000606E000838B50446FFF702FD05461CB1C1
:1045E000236820465B689847284638BD024B1B6805
:1045F00003B11847704700BF34110020FDF76CB8B5
:1046000038B500F10805044610220021284600F0C4
:10461000EBFC204640F8045FFDF7D0F8206010B9AD
:104620000248FCF70DFB204638BD00BFEF6F0008C5
:104630000068FDF7E1B80068FDF706B910B504465B
:104640000068FDF747F9204610BD000080F3098897
:104650007047EFF309807047684680F309885A482D
:104660000078C00714BF0220032080F3148870472D
:10467000DFF858C1EFF305831B0618BF6047EFF35F
:104680001483DB0708BF604700DF7047DFF840C1D5
:10469000EFF305831B0618BF6047EFF31483DB07B6
:1046A00008BF604700DF7047EFF30980816911F8A8
:1046B000021CE1BB90E80F1010B5E047BDE81040C8
:1046C000EFF3098C8CE80700424B93E80600914217
:1046D00008BF704741B91EF0100F16D13E49086857
:1046E00020F00100086010E01EF0100F06BF2CED56
:1046F000108A0120002081F825002CE9F00FC1F874
:104700002CC00CB4FCF7FEFC0CBC1A60D2F82CC018
:10471000BCE8F00F92F8250000280EBF6FF0020EE3
:104720006FF0120EBCEC108A8CF30988704710B53C
:104730002A4A1268914209D8294C54F8214090E83D
:104740000F10A047EFF3098C8CE80F0010BD10B5D7
:10475000FCF764FCBDE810401E4B93E80600914254
:1047600008BF7047EFF3098C1EF0100F06BF2CED49
:10477000108A0120002081F825002CE9F00FC1F8F3
:104780002CC00CB4FCF7BEFC0CBC1A60D2F82CC0D8
:10479000BCE8F00F92F8250000280EBF6FF0020E63
:1047A0006FF0120EBCEC108A8CF30988704710B5BC
:1047B000FCF78AFCFFF7CEBF10B5FCF783FCFCF7D3
:1047C00083FCFFF7C7BF0000226C000873110008CC
:1047D0008D1100083419002034EF00E000000000C3
:1047E000FCFFFFFFDFF820D0002103E0074B5B5800
:1047F000435004310648074B42189A42F6D3FEF75D
:1048000055FAFCF71FF9FEE700300020E8710008B8
:1048100088010020B0030020FEE70000014B18686B
:10482000704700BFCC01002070B505460C4611B999
:104830000026304670BD18B183690BB900F052F9FB
:104840001F4B9C4232D16C68B4F90C30002BEFD076
:104850002146284600F042F8236B064633B1216A10
:10486000284698470028B8BF4FF0FF36A3891B069B
:1048700003D521692846FFF743FC616B41B104F180
:104880004403994202D02846FFF73AFC00236363B1
:10489000A16C21B12846FFF733FC0023A36400F08C
:1048A0008DF90023A38100F08AF9C2E7054B9C42F1
:1048B00001D1AC68C8E7044B9C4208BFEC68C3E771
:1048C000347000085470000814700008024B014650
:1048D0001868FFF7A9BF00BFCC0100208A892DE925
:1048E000F041054610070C465AD44B68002B05DCF6
:1048F0000B6C002B02DC0020BDE8F081E66A002E84
:10490000F9D0002312F480522F682B6033D0606DF1
:10491000A3895A0705D56368C01A636B0BB1236C72
:10492000C01A00230246E66A216A2846B047431CA3
:10493000A38906D129681D294BD82B4ACA40D6071E
:1049400047D500226260D9042269226004D5421C46
:1049500001D12B6803B96065616B2F600029CAD053
:1049600004F14403994202D02846FFF7C9FB002016
:104970006063BDE8F081216A01232846B047411CED
:10498000C6D12B68002BC3D01D2B01D0162B01D113
:104990002F60B0E7A38943F04003A381BDE8F08115
:1049A0000F69002FA7D093070E6808BF4B690F60EF
:1049B00018BF0023A6EB07088B60B8F1000F9ADD43
:1049C00043463A46216AA66A2846B047002807DCD3
:1049D000A38943F04003A3814FF0FF30BDE8F0818D
:1049E0000744A8EB0008E8E70100402038B50B6950
:1049F00005460C46DBB118B183690BB900F072F8BB
:104A00000C4B9C4209D16C68B4F90C307BB1214647
:104A10002846BDE83840FFF761BF074B9C4201D1F3
:104A2000AC68F1E7054B9C4208BFEC68ECE700205E
:104A300038BD00BF347000085470000814700008BE
:104A4000014620B9044B0549186800F093B9044B9E
:104A50001868FFF7CBBF00BF74700008ED4900086D
:104A6000CC010020014900F085B900BFED490008E4
:104A7000002310B504460360436083608181436670
:104A8000C281036143618361194608225C3000F0F2
:104A9000ABFA054B6362054BA362054BE362054B22
:104AA0002462236310BD00BFB95C0008DF5C00080E
:104AB000175D00083B5D000870B54A1E6825554328
:104AC0000E4605F17401FFF717FB044640B10021C3
:104AD00080E842000C30A06005F1680200F084FA22
:104AE000204670BD836910B5044633BB8364C3643C
:104AF0000365124B124A1B688262984204BF01236D
:104B0000836100F01FF86060204600F01BF8A06091
:104B1000204600F017F80022E06004216068FFF7EB
:104B2000A7FF01220921A068FFF7A2FF022212219C
:104B3000E068FFF79DFF0123A36110BD74700008BA
:104B4000654A0008F8B51C4B1E68B369074613B9DF
:104B50003046FFF7C7FF4836B4687368013B03D59A
:104B6000336833B13668F7E7B4F90C506DB1683487
:104B7000F4E704213846FFF79FFF30600028F1D1A9
:104B80000C233B6004462046F8BD4FF6FF73E381DB
:104B90000123A38165662560A56065602561656167
:104BA000A5610822294604F15C0000F01DFA656346
:104BB000A563A564E564E6E7747000087047704774
:104BC000F7B50F46114601AA054601F06FFB0646F0
:104BD00018B90024204603B0F0BD2846FFF7B2FF05
:104BE00004460028F5D04FF4DB73019A3946284675
:104BF00000F00CFF002806DA0025FFF7DFFFA58193
:104C0000FFF7DDFFE5E70A4B63620A4BA3620A4B3D
:104C1000E3620A4B2363F305E081A6812462D9D5C0
:104C2000022300222146284600F012F8D2E700BFF6
:104C3000B95C0008DF5C0008175D00083B5D0008F8
:104C4000024B0A4601461868FFF7BABFCC010020A4
:104C500000F000B82DE9F8430C4691461E46054683
:104C600018B183690BB9FFF73DFF3F4B9C4212D14E
:104C70006C68A38903F48473B3F5847F03D1214660
:104C80002846FFF7B3FED4F82C80B8F1000F0CD102
:104C90001D232B6057E0354B9C4201D1AC68E8E7FF
:104CA000334B9C4208BFEC68E3E7012E30D0022E64
:104CB00001D0002E55D123691BB92146284600F0AA
:104CC000BFF821462846FFF791FE074600283AD153
:104CD00033464A46216A2846C047013033D0616BCB
:104CE00041B104F14403994202D02846FFF708FA83
:104CF0000023636323692360A389002123F40263F3
:104D00006160A381082204F15C0000F06DF91CE0F1
:104D100021462846FFF76AFEA28912F480520CD081
:104D2000606DA3895A0713D56368C01A636B0BB112
:104D3000236CC01A81440026BDE7216A3346284609
:104D4000C047411CEDD14FF0FF373846BDE8F8832E
:104D50001B07EFD52368002BECD022699B1A18445F
:104D6000E8E7162395E700BF347000085470000888
:104D7000147000082DE9F8438046894600F1480484
:104D8000002614B93046BDE8F883A5686768013F7E
:104D900001D52468F5E7AB89012B07D9B5F90E30A9
:104DA000013303D029464046C84706436835EEE73D
:104DB00070B50D4E0D4CA41BA4100025A54209D1C1
:104DC0000B4E0C4C01F026FEA41BA4100025A5429E
:104DD00005D170BD56F8253098470135EEE756F8F5
:104DE000253098470135F2E79C0300209C03002002
:104DF0009C030020A803002070B50E46B1F90E10E8
:104E0000002990B014461D4607DA00232B60B389B1
:104E10001A0610D44FF480630EE001AA01F07CFA68
:104E20000028F2DB029A02F47042A2F500535A42C3
:104E30005A412A60EEE740230020236010B070BD85
:104E40008B8973B59D0706460C4607D504F14703C9
:104E5000236023610123636102B070BD01AB6A4628
:104E6000FFF7CAFF009905463046FFF745F948B9F4
:104E7000B4F90C309A05EFD423F0030343F0020396
:104E8000A381E3E70D4BB362A389206043F0800365
:104E9000A381009B6361019B20615BB1B4F90E109B
:104EA000304601F04BFA28B1A38923F0030343F005
:104EB0000103A381A3891D43A581CDE7654A0008AD
:104EC000024B01461868FFF717B900BFCC0100205C
:104ED000024B01461868FFF713B900BFCC01002050
:104EE00001F0FF01102A2BDB10F0070F08D010F89B
:104EF000013B013A8B422DD010F0070F42B3F6D19F
:104F0000F0B441EA012141EA014122F007047FF0B7
:104F100000070023F0E80256083C85EA010586EA0E
:104F2000010685FA47F5A3FA87F586FA47F6A5FA4A
:104F300087F68EB9EED1F0BC01F0FF0102F0070256
:104F400032B110F8013B013A83EA010313B1F8D101
:104F50000020704701387047002D06BF35460338E2
:104F6000073815F0010F07D1013015F4807F02BF1B
:104F7000013015F4C03F0130F0BC0138704700BF6C
:104F800010B501390244904201D1002010BD10F843
:104F9000013B11F8014FA342F5D0181B10BD10B50D
:104FA000431E0A44914200D110BD11F8014B03F891
:104FB000014FF7E7884210B501EB020303D8421E08
:104FC00099420CD110BD9842F9D28118D21AD3421D
:104FD00000D110BD13F8014D01F8014DF7E711F8AC
:104FE000014B02F8014FEBE702440346934200D124
:104FF000704703F8011BF9E738B50546002945D08D
:1050000051F8043C0C1F002BB8BFE418FFF7E4F97B
:105010001F4A1368104633B9636014602846BDE820
:105020003840FFF7DDB9A3420CD9216862189342DA
:1050300004BF1A685B68636004BF52182260046092
:10504000ECE713465A680AB1A242FAD9196858180F
:10505000A0420BD120680144581882421960DDD16A
:10506000106852685A6001441960D7E702D90C23CE
:105070002B60D3E7206821188A4204BF1168526868
:10508000626004BF091821605C60C7E738BD00BFDB
:105090003811002070B5CD1C25F0030508350C2D06
:1050A00038BF0C25002D064601DBA94203D90C238D
:1050B0003360002070BDFFF78FF9234A1468214642
:1050C00091B9224C23681BB9304600F0B1FC206036
:1050D0002946304600F0ACFC431C26D10C2333603B
:1050E0003046FFF77DF9E4E70B685B1B1AD40B2B06
:1050F0000FD90B60CD50CC183046FFF771F904F191
:105100000B00231D20F00700C31A1BD05A42E250A7
:1051100070BD8C420DBF63684B686360136018BF3D
:105120000C46E9E70C464968CAE7C41C24F00304AE
:10513000A04205D0211A304600F07AFC0130CDD0D3
:105140002560D9E770BD00BF381100203C11002058
:10515000F8B5074614460E4621B91146BDE8F84099
:10516000FEF7CABF22B9FEF7CBFF25462846F8BD99
:1051700001F02AF984420FD921463846FEF7BCFFD8
:1051800005460028F2D031462246FFF708FF314697
:105190003846FEF7B5FFE9E73546E7E79368013B98
:1051A000002B10B4936009DA9469A34202DBCBB2FE
:1051B0000A2B03D15DF8044B00F096BF1368581C0E
:1051C00010601970C8B25DF8044B7047F8B5064618
:1051D0000F461446D518AC4201D1002007E03A46EC
:1051E00014F8011B3046FFF7D9FF431CF3D1F8BD7B
:1051F0002DE9F04F9DB00C4617460393064618B1B3
:1052000083690BB9FFF76EFC7C4B9C4257D17468E5
:10521000A38918075DD52369002B5AD00023099371
:1052200020238DF8293030238DF82A304FF0010BE0
:10523000B846454615F8013B002B55D1B8EB070A97
:105240000BD053463A4621463046FFF7BFFF0130A8
:1052500000F0C480099B5344099398F80030002B58
:1052600000F0BC8000234FF0FF32049307930592B7
:1052700006938DF853301A93052229786048FFF77A
:105280002FFE05F10108049B002831D1D90644BF47
:1052900020228DF853201A0744BF2B228DF853206B
:1052A0002A782A2A2CD0079A00210A20A8460135FC
:1052B00098F80030303B092B6DD971B326E0514B83
:1052C0009C4201D1B468A3E74F4B9C4208BFF468ED
:1052D0009EE72146304600F06BFF00289ED04FF03D
:1052E000FF301DB0BDE8F08F252BA7D0A846A0E762
:1052F000434A801A0BFA00F0184304904546BBE776
:10530000039A111D12680391002A01DB079204E041
:10531000524243F002030792049398F800302E2B78
:1053200010D198F801302A2B08F1010137D1039BE5
:105330001A1D1B680392002BB8BF4FF0FF3308F112
:1053400002080593314D98F8001003222846FFF714
:10535000C7FD40B14023401B03FA00F0049B034308
:10536000049308F1010898F8001029488DF82810D6
:10537000062208F10107FFF7B3FD002834D0254BC2
:1053800003BB039B073323F0070308330393099BF5
:105390004B4409934CE700FB0232012186E70023CE
:1053A000059318460A258846013198F80020303ABE
:1053B000092A03D9002BC5D00590C3E705FB0020BF
:1053C0000123F0E703AB00932246134B04A93046B8
:1053D000AFF30080B0F1FF3F8146D8D1A3895B06CF
:1053E0003FF57DAF09987CE703AB009322460A4B5B
:1053F00004A9304600F092F8ECE700BF34700008D2
:105400007870000854700008147000087E7000085E
:105410008270000800000000CD51000813460A46C3
:10542000014602480068FFF7E3BE00BFCC01002040
:105430002DE9F04791461F468A680B69DDF8208008
:105440009342B8BF1346C9F8003091F8432006468E
:105450000C4612B10133C9F800302368990642BFE7
:10546000D9F800300233C9F80030256815F0060578
:1054700007D104F1190AE368D9F800209B1A9D426C
:1054800029DB94F843302268003318BF01239206C9
:105490002ED404F1430239463046C047013021D0B2
:1054A0002368E568D9F8002003F00603042B08BF41
:1054B000AD1AA36822690CBF25EAE5750025934261
:1054C000C4BF9B1AED184FF000091A344D451BD18B
:1054D0000020BDE8F0870123524639463046C047D8
:1054E000013003D14FF0FF30BDE8F0870135C2E74E
:1054F000E1185A1C302081F84300224494F84510EA
:1055000082F843100233C4E701232246394630466D
:10551000C0470130E6D009F10109D7E72DE9F04392
:1055200017460A7E85B06E2A984606460C460C9BA6
:1055300001F1430E00F0BC801AD8632A2ED00AD89D
:10554000002A00F0C880582A00F08A8004F1420541
:1055500084F842202AE0642A01D0692AF6D1216821
:105560001A6811F0800F23D0111D1960136827E00D
:10557000732A00F0B48008D86F2A2AD0702AE5D1A7
:105580000A6842F020020A6003E0752A21D0782AD6
:10559000DCD1782284F845206E4964E01A6801F174
:1055A0004205111D1960136884F842300123A3E0FD
:1055B00011F0400F02F104011960D7D0B2F90030A8
:1055C000002B03DA2D225B4284F8432062490A2231
:1055D00017E02068196810F0800F03D0081D1860CC
:1055E0000B6806E010F0400F01F104001860F7D0DE
:1055F0000B8859496F2A14BF0A220822002084F818
:1056000043006568A560002DC0F29C80206820F0F2
:1056100004002060002B3FD1002D40F0958075469E
:10562000082A0BD12368DA0708D5236962689A42F1
:10563000DEBF302305F8013C05F1FF35AEEB050375
:105640002361CDF800803B4603AA21463046FFF790
:10565000EFFE013055D14FF0FF3005B0BDE8F083CB
:1056600081F845203C492268186812F0800F00F14B
:1056700004051D6001D0036802E05506FBD50388D0
:10568000D00744BF42F0200222601BB9226822F0FA
:10569000200222601022B1E77546B3FBF2F002FB54
:1056A0001033CB5C05F8013D03460028F5D1B7E780
:1056B00008681A68496910F0800F04D0101D18603E
:1056C0001368196007E010F0400F02F10400186041
:1056D0001368F6D01980002323617546B1E71A6874
:1056E000111D19601568626800212846FFF7F8FB54
:1056F00008B1401B606063682361002384F8433075
:105700009FE723692A4639463046C0470130A2D078
:1057100023689B0707D5002504F11909E368039A5C
:105720009B1A9D4205DBE068039B9842B8BF184670
:1057300093E701234A4639463046C04701308AD0B4
:105740000135EBE7002BA7D10B7884F8423004F148
:10575000420565E79A700008897000082DE9F0415C
:1057600015468A6880460C4632B98A69002A0CBF01
:1057700001224FF0FF328A602268D1065FBF1A68AB
:10578000111D196017680026A369DBB1012B07D131
:105790002B6862691B78D35CA3B9002E32D106E076
:1057A000022B07D0002E2DD1A369012B2AD1012075
:1057B000BDE8F08100F0D6FD2B681B7818444378D3
:1057C0001B07EFD42368DA065EBF2B681B783B709B
:1057D0002A686B6802F101022A60A26803F1FF33B4
:1057E00002F1FF326B6006F1010658BF0137A2607B
:1057F00042B1002BC8DCD4F8803129464046984796
:105800000028C1D0236813F0100305D1E2680132EB
:10581000E260A26902B13B7023691E442661002048
:10582000BDE8F0812DE9F04F9A46744B0C46834653
:10583000164693E8070087B003ABA76883E8070024
:105840006F4BA1696F4A032918BF1A467B1EB3F537
:10585000AE7F84BF40F25D13A3602368009243F4DF
:10586000506388BF6FF4AE7504F11C0923608CBFD0
:105870007F1900274B464FF000080193316803ABB6
:10588000022253F828000978FFF72AFB019B28B36E
:10589000B8F1010F56D162682AB908226260226805
:1058A00042F400722260226822F4A0622260A268A0
:1058B000511EA16092B13268511C316012781A7089
:1058C0005D1C7368013B002B736006DCD4F88031EB
:1058D000314658469847002876D12B4608F10108F2
:1058E000B8F1030FC9D162680AB90A22626062681E
:1058F000454960690193891A00F0AAF8019B4FF0AD
:1059000000081D46A368002B38D0316860690A780A
:10591000805C002832D0302A226821D110051FD5A2
:1059200008F1010817B10133013FA3607368013B1F
:10593000002B73601BDD336801333360A368013BC8
:10594000A360DFE7B8F1020FB1D1226802F4C061B1
:10595000B1F5007FC2D11021616042F48072A5E7E9
:1059600022F4106222600B782B700135DEE7D4F848
:1059700080313146584698470028DFD02368D90542
:105980000CD54D4508D915F8011CD4F87C313246A8
:10599000584698476F1E3D464D452CD0226812F060
:1059A00010021ED12A706368009E49465846B047CF
:1059B0002268DAF8003012F0200F08D01A1DCAF859
:1059C00000201B68186009E04FF00008D6E7D207F6
:1059D000F4D51A1DCAF800201B681880E36801334B
:1059E000E360A5EB0905A84425694544256100202D
:1059F00007B0BDE8F08F0120FAE700BFAC700008E7
:105A0000AD5F00088D5E0008C870000838B5074C0F
:105A1000054608461146002222601A46FEF72CFD74
:105A2000431C02D1236803B12B6038BDE819002064
:105A300038B5064C0023054608462360FEF790FC67
:105A4000431C02D1236803B12B6038BDE819002044
:105A500070B50B785E2B13BF4A1C8A1C4B78002153
:105A600008BF0121441E00F1FF0504F8011FA542F3
:105A7000FBD113B9013A104670BD81F00104C45442
:105A800011460D782D2D01F1010206D05D2DF2D0C9
:105A90000DB90A46EFE72B46F1E74E785D2EFAD0B6
:105AA000B342F8DC023101339E42C454FBDCE8E728
:105AB00000294FF480630CBF0222002200F000B8DE
:105AC0002DE9F7431D46514B1E6804460F4690468C
:105AD00026B1B36913B93046FFF704F84C4B9C422A
