:020000040800F2
:1000000000300020453B0008793B0008793B0008A0
:10001000793B0008793B0008793B000800000000AC
:10002000000000000000000000000000093A000885
:10003000793B000800000000AF3A00080F3B0008C1
:10004000793B0008793B0008793B0008793B0008C0
:10005000793B0008793B0008793B0008793B0008B0
:10006000793B0008793B0008793B0008793B0008A0
:10007000793B0008793B0008793B0008793B000890
:10008000793B0008793B0008793B0008ED1C00082B
:10009000F11C0008793B0008ED1B0008793B0008C3
:1000A000793B0008793B0008793B0008793B000860
:1000B000793B0008793B000800000000793B00080C
:1000C000793B00080000000000000000793B0008B8
:1000D00000000000793B0008793B0008793B0008EC
:1000E000793B0008793B0008000000000000000098
:1000F0000000000000000000000000000000000000
:1001000000000000000000000000000000000000EF
:100110000000000000000000793B0008793B000867
:1001200000000000000000000000000000000000CF
:1001300000000000000000000000000000000000BF
:10014000793B0008793B0008000000000000000037
:10015000000000000000000000000000000000009F
:10016000000000000000000000000000000000008F
:10017000000000000000000000000000000000007F
:1001800000000000793B000810B5054C237833B916
:10019000044B13B10448AFF300800123237010BD5A
:1001A0002802002000000000904500080C4B43B1DD
:1001B0000C480D4910B5AFF300800C48036823B913
:1001C00010BD0A48036833B97047094B002BF7D0BC
:1001D000BDE810401847064B002BF5D0184700BF6C
:1001E00000000000904500082C02002020020020A2
:1001F000000000002DE9F8432DED048B00F03CF9E0
:1002000033493448344C354D9FED359A354FDFF83E
:10021000C49001F04DFF00F045F900F02DF92C4994
:10022000314801F045FF00F03DF9DFED307AB5EEE1
:10023000007AC4ED007A85ED007A0026B0EE678A78
:10024000F0EE478AD4ED007A56B377EEC97A384695
:10025000C4ED007AD5ED007A77EE897AC5ED007AA3
:1002600003F072FAD4ED007AF4EEC87AF1EE10FAE7
:100270008CBF01260026D4F8008000F0FDF841462E
:10028000484601F075FD00F00DF9D5F8008000F04A
:10029000F3F84146144801F06BFD00F003F9D1E793
:1002A00077EE897A3846C4ED007AD5ED007A77EE9C
:1002B000C97AC5ED007A03F047FAD4ED007AF4EE7E
:1002C000E87AF1EE10FAACBF01260026D3E700BFB2
:1002D00017B7D138480200204402002060020020F5
:1002E0000AD7233CE0930400640200209A99193E47
:1002F00008B500F0C1F80621074801F053FE00F0F0
:10030000D1F800F0B9F80721044801F04BFEBDE830
:10031000084000F0C7B800BF480200206402002077
:100320000748084A08B5121A002103F0DFFD03F060
:10033000E3FA03F0B7FD03F0E6FA03F021FB00BF98
:1003400028020020EC170020014800F003B800BF8D
:10035000A0410008036870B5DB68044698476368ED
:100360005A6823681AB99B68BDE8704018475B68F3
:10037000156898476368281A00285A6807DC91684E
:1003800059601B68002BEAD050689847E7E723685C
:1003900010681B69BDE870401847000010B504469E
:1003A00001300DD110BD9C4209D12046896801F071
:1003B000ABFE20460021BDE8104001F027BF0C3104
:1003C000B1F900305A1CEED10248BDE8104000F0EF
:1003D00087B800BF0B420008884208B508D0431C0C
:1003E00006D0013106D0044800F07AF84FF0FF3112
:1003F000084608BD0146FBE7DA410008B1F90030C4
:100400005A1C01D118467047834201D14868704791
:100410000C31F3E7421C10B5044607D0FFF7EEFF9E
:10042000431C044602D1024800F05AF8204610BD91
:10043000EB410008B1F900305A1C01D11846704751
:10044000834201D1886870470C31F3E7421C10B534
:10045000044607D0FFF7EEFF431C044602D10248D2
:1004600000F03EF8204610BDBC410008EFF31080BC
:10047000C04300F00100704708B5FFF7F7FF72B600
:10048000064B1A6822B980F00100054AC0B210700C
:100490001A681A6801321A6008BD00BF880200207D
:1004A0008402002008B5074B1A6852B1FFF7DEFF3F
:1004B0001A68013A1A601B681BB9034B1B7803B911
:1004C00062B608BD880200208402002008B5FFF74C
:1004D000D3FF962003F050F9962003F04DF9F8E78A
:1004E0000FB4012008B503F04BFA01F073BB000014
:1004F00008B5024C23689847FCE700BF8C01002038
:1005000008B50B4800F09CFD0A4B18600A4800F043
:1005100097FD0A4B18600A4800F092FD094B1860DD
:1005200003F0C0FC00210846BDE8084003F0EBB929
:1005300068420008F4110020644200089402002080
:10054000604200088C020020FFF7D2BF10B50446BD
:1005500000F0E4FC21460246BDE810400148FFF7E8
:10056000BFBF00BF2842000803F016BA0B4A0C4B6D
:100570000C4830B41A60C2F1005303F54053B3F590
:10058000E07F194628BF4FF4E071074D074C01602A
:100590005B1A1A442A60236030BC7047EC170020B5
:1005A000300F0020980200209C0200202C0F002019
:1005B00000F01AFEFFF7DAFF0348002100F0C8FD43
:1005C00000F02EFCFEE7000090010020024B4FF0EF
:1005D000FF31186800F052BD94020020014B1868EA
:1005E00000F074BD9402002030B502788C78436826
:1005F000013AD2B213B19D78A54207D2022A4B60CC
:10060000416006D803B19960886030BD18465B68C8
:10061000F0E700238B6030BD02784368013A5968E7
:100620004160022A4FF0000205D809B188605A6083
:100630009A60184670475A60FBE70000034B5A68FF
:100640004260002282605860704700BFE8160020B8
:10065000104BDA6810B58AB19A8ADC688A420CD3EA
:10066000C460D860C468036104B12061521A92B2B8
:100670008282998A8A1A9A8210BD3CB900248A1A09
:10068000C460D86003619A82848210BDA38A1A4430
:100690002346E2E7001700202DE9F041174DEB68F3
:1006A00053B1AB8A164FDFF85C80013BAB8200266A
:1006B000AA8A0AB9EC680CB9BDE8F081A36833B125
:1006C00061685960616809B18B606260A66021460B
:1006D0003846FFF789FFA38AAB826378042B01BFFA
:1006E000D8F80030E28A9B18A38201236370E36884
:1006F000EB600BB11D61E6602661D9E700170020B1
:10070000E81600207C17002083682BB142685A60ED
:1007100042685AB193607047054B5A68904202D1C3
:1007200042685A6070471346002AF6D1704700BFEE
:10073000E816002010B5846801462CB94378012BD7
:100740000DD1074C03E0A4682378002BFBD00846AA
:10075000FFF7DAFF2046BDE81040FFF745BF10BDA8
:10076000E8160020036910B563B1C268DA60C26898
:100770004AB1998A848A2144998213610023C36013
:100780000023036110BD9A82FAE7000070B4114B98
:10079000DD78EFF31086EFF3108272B69A78954207
:1007A00011D901329A701A78541CA54208BF00244E
:1007B0001C7006B962B6954207D903EBC20370BC40
:1007C000586099607047002EF4D0022070BCFFF78B
:1007D000BDBE00BF6C110020836A9B0804BF224B82
:1007E0001B88F0B5056B08BF9B0805EB8302540717
:1007F00048BF043A4FF0807602E94200A2F140047B
:10080000A2F14406A2F10C074FF0000E46F804EFE7
:10081000BE42FBD1C66942F8206C41631249C462F2
:100820000968C90017D5112B15D9103B6FF00701C6
:100830005B084B43A3F138010A444FF0CC3021460A
:1008400091420BD108331C44231F9D423CBF4FF003
:10085000CC3344F8043C054B2B60F0BD41F8040C4C
:1008600041F8080DECE700BF70420008A52E5AE2DF
:1008700090F82520C36A12B16033196070472033A5
:10088000FBE710B590F82540C36A1CB1603383E8DC
:10089000060010BD2033FAE7054B1B7823B9054B42
:1008A0004FF080521A607047034B01221A70704754
:1008B000F00A002004ED00E0F10A002038B51A4BE0
:1008C0001A4C186801234370FFF7B8FE6578A378C7
:1008D0003BB917486570FFF79FFEBDE8384000F050
:1008E0005DBD04EBC503586802789AB9198900F018
:1008F000BBF9E37801359D4208BF0025EFF3108373
:10090000EFF3108272B6A278013AA270002BDED10A
:1009100062B6DCE7012A03D1996800F033F9E8E711
:1009200001F044F8E5E700BF341700206C11002007
:10093000E8160020084B1A68084B1A6000225A601B
:10094000072243F8042C064A136843F07F431360E0
:100950004FF0FF30704700BF8842000814E000E00D
:1009600020ED00E07047000008B50B4B186801232C
:100970004370FFF763FE00F0ADF9084A13680133D6
:100980001360FFF789FE00F091FC0548FFF744FE75
:10099000BDE8084000F002BD341700207C1700209D
:1009A000E8160020064B1A68136BD26A934203D8EC
:1009B0001A68044B9A4202D00120FFF7C7BD704766
:1009C00034170020A52E5AE2002ABBBF22F00042B5
:1009D0000732033222F00702A8BF22F0030210B54B
:1009E000B4BF10230C2392B1D4188C420FD8014409
:1009F000034454424160036082602144981881425C
:100A000002D300510346F9E70020186010BD012011
:100A100010BDEFF3108372B6026803F001030AB150
:100A20001168016003B962B61046704781420DD368
:100A3000436899420AD2EFF3108372B602680A60E3
:100A4000016013F0010003D162B6704701207047C6
:100A50000020704701231039037089080023437078
:100A600083704360038143818381C18170470000AB
:100A700070B5858904461646002D38D043891A1D65
:100A8000013350F822200A60C2899BB29A42438106
:100A900004BF002343814368F3B14378022B1BD189
:100AA000FFF7BAFD00210546FFF7E2FE2389E96959
:100AB0001A1D013344F82210E2899BB29A42238125
:100AC00008BF0023284608BF2381FFF74BFE2846B6
:100AD00000F07EFC002070BDEFF31080EFF3108378
:100AE00072B6013DA5810028F4D162B670BD4AB14D
:100AF0004268094B42B11968FFF776FD082130467C
:100B000000F08AFC012070BD1B6843605A60986049
:100B100001234370F2E700BF34170020C2898089A7
:100B2000101A704708B5FFF731FEBDE80840FFF71F
:100B3000B3BE838910B504460BB34389043350F820
:100B400023300B604378022B04D10021FFF71EFEF7
:100B5000FFF7A2FEEFF31083EFF3108272B6A289C3
:100B6000013AA28103B962B66389E28901339BB27B
:100B70009A42638101D100236381042010BD18468D
:100B800010BD0000436870B504460E46002B4BD0E4
:100B90004578022D20D0032D0AD0012D61D1FFF719
:100BA0003BFD044632461021FFF76BFE65700EE0F8
:100BB0000846FFF72EFF0546002852D02046FFF7D3
:100BC0002BFD29460446FFF753FE012363702046A0
:100BD000FFF7C8FD214622E0FFF71EFD0021054674
:100BE000FFF746FE2389E9691A1D44F82210EFF346
:100BF0001082EFF3108172B6A1890131A18102B98F
:100C000062B6E28901339BB29A42238104BF00237A
:100C1000238101236B702846FFF7A4FD2946114864
:100C2000BDE87040FFF7E0BC8089E189884213D2BB
:100C300023891A1D44F82260EFF31082EFF3108528
:100C400072B60130A08102B962B601339BB29942FB
:100C500008BF0023238170BD0320BDE87040FFF76B
:100C600075BC70BDE816002010B5038B427819439F
:100C7000062A04460183438B15D133EA010219D1B8
:100C800021EA030121832046FFF76CFD0123204662
:100C90006370628B0821FFF7F4FD21460648BDE82A
:100CA0001040FFF7A1BC052A04D111EA030201D0CC
:100CB0004283E5E710BD00BFE8160020034B002289
:100CC0001A60034A1268DA80704700BF20170020BC
:100CD0006C42000808B50E4B5A680E4B19689142D9
:100CE0000D4905D01A60DA880868013A02449A80F2
:100CF00098880A8890420AD1002205481A60FFF7B6
:100D00008BFCBDE8084001460148FFF76DBC08BDFB
:100D1000E8160020201700207C1700200B4A1368DB
:100D200030B5002443B90360816013B19D68691A2E
:100D3000996044B1206030BD9D68A942F3D31C4640
:100D4000491B1B68EEE7106030BD00BF3017002064
:100D5000C0B1431C11D00C4B984211D80B4B1B68EF
:100D60004FF47A715A1E01FB0020B0FBF3F34FF6EB
:100D7000FE70834206D898B270474FF6FF707047F6
:100D80004FF6FE70704700BF00093D002442000886
:100D900038B1830704D10378002B18BF00207047B7
:100DA00000207047B0B50E4D287800AFA8B90D4CA3
:100DB000236893F8241000F051FB2368DA78FF2AA7
:100DC00003D1DA6A203282F3098862680AB984E8BA
:100DD0000C0000F0FBFC01232B700020B0BD00BF15
:100DE0002D17002034170020014B1878704700BFE2
:100DF0002D17002010B5EFF3108434B9EFF30584FC
:100E00001CB9EFF31484E40702D4034B187810BD27
:100E1000DFF808C000DF10BD2D170020E90D000825
:100E200090B589B000AFEFF31083002B37D1EFF30B
:100E30000583002B33D1FFF7DDFF28B9194C246857
:100E400014B1646804B1A047EFF3148404F0030400
:100E5000022C18D0032C1CD0012C1ED007F120042A
:100E600084F30988104C2478E40710D5022484F315
:100E70001488BFF34F8FBFF36F8FDFF830C000DFF0
:100E80002437BD4690BD084C2478E407F5D40324EC
:100E9000EDE7054C2478E407EFD5FF20F0E782204A
:100EA000EEE700BF1C17002052420008A50D000805
:100EB00070B50B461646024610B90024204670BD98
:100EC00000680028F9D0B2F90440E51CADB2062D47
:100ED000F3D8D168C1B11269043444EA012100F0A9
:100EE000FBFA0028E9D00A4B0A4A013853F820409F
:100EF000E36A5A63084B1B6843B19B6833B13146C0
:100F0000E0789847E063D9E70A46E5E7E663D5E786
:100F1000501100209D1000081C17002008B500F09B
:100F200095FA18B10138024B53F8200008BD00BFF4
:100F30005011002010B5FFF72BFF044670B1084B8D
:100F40001B681BB1DB680BB1C06B9847E07800F001
:100F500019FBFF280CBF8120002010BD802010BD90
:100F60001C17002008B528B1FFF7F2FE00F01AFDAB
:100F7000402008BD08BD000010B5EFF3108434B95F
:100F8000EFF305841CB9DFF80CC000DF10BD822030
:100F900010BD0000650F0008830705D138B1436913
:100FA00001691B681846704700231946FAE7034693
:100FB000FBE7000010B504460846DFF80CC000DF70
:100FC00084E80300204610BD990F000810B548B111
:100FD000046824B1237823B9204600F03DFC204664
:100FE00010BD002010BD70B510F0030405460E467C
:100FF00011D180B10378032B0DD10846FFF7A8FE6D
:101000000146284600F0A0FC012806D1002E14BF9E
:10101000C120812070BD802070BD204670BD820738
:1010200008B50AD148B10378032B06D100F01CFCA7
:10103000FF280CBF8120002008BD802008BD0000D3
:1010400070B50546EFF3108494B9EFF305867EB9C9
:10105000EFF31484E40706D4064C24781CB9BDE8E9
:101060007040FFF7B3BF2846DFF80CC000DF70BD4B
:10107000002070BD2D170020CD0F000810B5EFF334
:10108000108434B9EFF305841CB9DFF80CC000DF1D
:1010900010BD822010BD0000E70F0008084808B509
:1010A0004FF0FF310068FFF7E9FFDFF818C000DFFD
:1010B0000446FFF759FA2046DFF80CC000DFFEE7D0
:1010C000281700201D0F0008350F000810B5EFF39A
:1010D000108434B9EFF305841CB9DFF80CC000DFCD
:1010E00010BD822010BD00001F1000082DE9F04146
:1010F00080460F461646EFF3108404BBEFF30583DA
:10110000D3B9EFF31483DB0706D40E4B1B781BB95E
:10111000BDE8F041FFF7CCBE0B4D4FF0FF31286822
:10112000FFF7ACFF404639463246DFF820C000DF0B
:1011300004462868FFF7CAFF2046BDE8F081002476
:10114000FAE700BF2D17002028170020B10E000875
:101150000022FFF7CBBF10B5044660B1016851B162
:10116000406848B1037833B90431890089B2FFF788
:1011700071FC606810BD002010BD000038B5114C36
:1011800023780BB900F0A8FA0F4B25781B68FF22D3
:101190009A708DB929460D48FFF7DDFF0C4B2A46A2
:1011A000186029460B48FFF783FE0B4B18600B486D
:1011B000FFF746FF0A4B186001232370094B0020FC
:1011C000187038BD2C170020341700205842000832
:1011D000F011002074420008E41600208C42000840
:1011E000281700202D17002010B5EFF3108474B9D4
:1011F000EFF305845CB9EFF31484E40703D4BDE88E
:101200001040FFF7BBBFDFF80CC000DF10BD82202D
:1012100010BD00007D1100082DE9FF410C468046FD
:1012200018B30378012B25D10846FFF791FD02A9D9
:1012300002464046FFF71CFC012811D10020002C7B
:101240000246034618BF4020029904460D46164642
:101250001F462046294632463B4604B0BDE8F08191
:101260000020024603461020EEE78024054606468D
:101270000746EEE7002580242E462F46E9E770B5A5
:101280000E461446054660B15AB90378012B08D1C1
:10129000FFF744FC38B128463146FFF743FC2046AF
:1012A00070BD802070BD812070BD0000F8B5114E6A
:1012B00034682CB1A368104F013BA360A26802B14F
:1012C000F8BD2568386835602146FFF7D8FF10B1B2
:1012D0000420FFF73BF96379012B07D1E168204631
:1012E000FFF71CFD002DEBD02C46E7E7012323710F
:1012F000F8E700BF30170020F01100207FB504464A
:101300001646084601B122B180232360204604B06E
:1013100070BD0B78012BF7D102A9FFF70AFC042856
:1013200008BF102301AD14BF0196019395E8070093
:1013300084E80700EAE7000038B504461546EFF3F5
:10134000108010B9EFF3058028B12A462046FFF738
:10135000D5FF204638BD08461146DFF80CC000DF37
:1013600084E80700F5E70000191200087FB50A4C71
:1013700021684FF0FF3203A8FFF7DEFF039B102B1D
:10138000F6D1049901A8FFF715FE019B002BEFD0C1
:1013900002989847ECE700BFF0110020054B586019
:1013A00002234370044B1B681BB11B690BB1C06B5C
:1013B00018477047341700201C17002008B5034851
:1013C000FFF72AF9BDE80840FFF7E8BFE81600205C
:1013D00070B5044618B9BDE87040FFF7EFBF0C4E7A
:1013E000A278306883789A424FF0010508D9FFF758
:1013F00025F933685D702046BDE87040FFF7CEBF29
:10140000657021460348BDE87040FFF7EDB800BFA6
:1014100034170020E816002038B50D46014680B18B
:101420004FF6FF739842074C02D02068FFF710F97F
:10143000236805485D70FFF7EFF8BDE83840FFF717
:10144000ADBF38BD34170020E8160020024B1868E5
:1014500000B1C078704700BF3417002010B5A8B99C
:10146000194B1B68997083F82410184843689B78BF
:101470008B4201D8002010BD134C2168FFF7B4F84F
:10148000236801225A70FFF799FFF3E7104B1B887E
:10149000984217D801380F4B53F8204094B10A4BAB
:1014A000A1701B6884F824109C42DED02046FFF710
:1014B00041F96378012BDDD10448FFF7ADF8FFF760
:1014C00087FFD7E7FF2010BD34170020E816002063
:1014D00054420008501100202DE9F04711F0FF0F91
:1014E0000D468046234816469A4608BF0135FFF749
:1014F00090FA044620B94FF000094846BDE8F0874D
:101500001D4B06631B881D4E280AA06200218B42DA
:1015100001F10109EFD006EB89020F4652F8042CC5
:101520004946002AF3D1EDB2012384F80390C4F8B0
:101530001CA0C4F838A022706370A57084F82450F1
:101540006260A260E26022612262A282E282228361
:10155000628384F8252018B90948FFF75AFA2063F6
:1015600020464146FFF738F9204646F82740FFF766
:101570002FFFC2E718150020544200085011002028
:10158000400F00202DE9F84F4D4D18B12B68DB7846
:10159000984241D12C68DFF83C810023637002F04F
:1015A00008FAE062FFF7FEF92B681C6A0127A4B96C
:1015B0002A684449D3784448013B41F82340116BE1
:1015C000FFF734FA296841480C63FFF72FFA2C60C3
:1015D000FFF7F4FE2046BDE8F88F6368B3B12046FC
:1015E000FFF71AF800210646FFF742F93046FFF7E9
:1015F000B9F8777031464046FEF7F6FFE368326A85
:101600006780A660E26034621C46D0E7E2686380CF
:10161000A360E3601446CAE72D4B1B8898424DD85F
:10162000284B471E994653F82760002E46D0304677
:10163000FFF76AF83046FFF795F8DFF898B0346A9C
:101640004FF0010AB4B9316B1F4849F82740FFF742
:10165000EDF9314634631D48FFF7E8F91D48296864
:1016600043689A788B789A42B4D901234B70FEF77D
:10167000BBFFADE76368DBB12046FEF7CDFF00217D
:101680008046FFF7F5F84046FFF76CF888F801A0B0
:1016900041465846FEF7A8FFE368D8F82020A4F892
:1016A00002A0C4F80880E260C8F820401C46C9E7E0
:1016B000E2686380A360E3601446C3E7FF2489E720
:1016C0003417002050110020400F00201815002072
:1016D00054420008E816002038B52C4B2C491A88D3
:1016E0000023184693424DD32A4B2B4819882B4C84
:1016F0004022FFF769F92A4B2A481A882A4B42F000
:1017000000421968FFF760F9284B1988284B082216
:101710001868FFF759F9FF230025E3702148A562F7
:10172000012363702570A57084F824506560A5605E
:10173000E56025612562A582E5822583658384F8BD
:101740002550FFF766F91B4920632046FFF744F850
:10175000194B04221A705D60184B1A70DD601D6110
:101760009D82174B20461C6002236370FFF716FE14
:10177000144A154B12781D705D70DA70BDE8384060
:10178000FFF79CBA41F823000133ABE7544200084D
:101790005011002020420008181500203C1700209E
:1017A00070420008400F00201C420008224200083E
:1017B0009002002049050008E816002000170020CC
:1017C00034170020514200086C11002008B51E4B50
:1017D0001A6842F47F021A601B681B0203F07F4301
:1017E000DB43B3FA83F3194A194812680168DBB284
:1017F000C3F10803C2F30222934298BF531C6FF057
:10180000807202FA03F303F07F4321F07F42134317
:101810000360FFF78FF80F4B0028186012DB00F110
:10182000604000F56440FF2202701A6853099B0073
:1018300003F1604303F5614302F01F02012101FA45
:1018400002F21A6008BD00BF20ED00E00CED00E0E0
:101850001CED00E0181700200323037000234380D1
:1018600043608360C36070472DE9F84343880546B1
:10187000002B63D0324F81683A6891425ED1013BC0
:101880009BB243801BB100242046BDE8F8830B6A5D
:10189000984229D1C3680B6291F824300C6A5CBB72
:1018A0008B706A68DFF89C80002A3BD02846FEF7E0
:1018B000B3FE21460646FEF7DBFF3046FEF752FF39
:1018C000336AEB604FF001093968D8F80430A5F8A5
:1018D0000290AE6035628A789B789A4214D3304683
:1018E000FFF776FDD0E71346002BD5D0DA68954296
:1018F000F9D1EA68DA60CFE762681AB19278934268
:1019000038BF1346E468CAE74046FEF76DFE31462D
:101910004046FEF769FE3B6883F8019086F8019027
:101920002046DDE7D8F8042092789A42ABD94046A9
:10193000FEF75AFE3B6801225A70F1E7FF24A3E745
:1019400034170020E8160020438870B504460E4680
:10195000134D43B92A688260116AC1601062013375
:101960006380002070BD80682A689042F7D081B102
:10197000937882789A4202D28370FEF7DBFE626827
:101980004AB129682046FEF72FFE09213046FFF7AD
:1019900043FD012070BD2B6863605A609C60F4E7D2
:1019A000341700200321FFF737BD0000426810B54F
:1019B0007AB1FEF731FE0446FEF7D4FE01216170D4
:1019C0002046FEF755FF21460448BDE81040FEF7CB
:1019D0000BBE42880132428010BD00BFE8160020D5
:1019E00070B5134C23681A69950707D5DA68900714
:1019F00004D56FF002021A61FEF7A6FC23681A698B
:101A0000510713D5DA68520710D56FF00402094E5A
:101A10001A615D6A3368EB1AB3F57A7F06D301F079
:101A20002FFD236805F57A729A63356070BD00BF9B
:101A300080170020040B002030B589B001A903A84D
:101A400001F050FB01F01EFB244B0190DA69244C9D
:101A500042F00102DA61DA6902F001020292029AAE
:101A60001A6942F001021A611A6922F001021A6130
:101A7000069A4FF0804323604FF0FF33E360194B29
:101A80004ABBB0FBF3F001380025606014482561C3
:101A9000A560656101F090FB13491C2000F0CAFDB0
:101AA000124B0F484FF080521A60294601F0D2FCC9
:101AB00004210B4801F0CEFC23680D4A596A1160DD
:101AC000126802F57A729A63DA68284642F00402D4
:101AD000DA6009B030BD4000D3E700BF001002401B
:101AE0008017002040420F00E119000800E100E0EB
:101AF000040B00204FF08043034A1360DA6822F0A1
:101B00000402DA60704700BF801700204FF0804366
:101B1000034A1360DA6842F00402DA60704700BFDB
:101B2000801700207FB5052843D8DFE800F00312B6
:101B30001E2A4236214B5A6942F400325A615B69CF
:101B400003F400330193019B4FF0904007B05DF820
:101B500004FB1A4B1A485A6942F480225A615B69A5
:101B600003F480230293029BF0E7144B15485A6953
:101B700042F400225A615B6903F400230393039B40
:101B8000E4E70E4B10485A6942F480125A615B69CF
:101B900003F480130493049BD8E7084B0B485A695D
:101BA00042F480025A615B6903F480030593059B4C
:101BB000CCE70748FEF794FC0020C7E7001002407E
:101BC0000004004800080048000C004800140048C9
:101BD0009042000808B5FFF78DFF0121002000F0BA
:101BE00049FDBDE80840FFF791BF0000384B5A6936
:101BF0002DE9F041374CD20723602AD59868364F3B
:101C00009968364E9A68364D3840B84201EA060166
:101C100004BF01279F60B14208BF2D4B02EA0502B5
:101C200004BF4FF480769E60AA4202BF284B4FF457
:101C300080359D60284B984205D0284B994202D0B0
:101C4000274B9A4205D1274B274A1B681068012170
:101C500098472368DA685B69970707D09E0705D520
:101C6000204B214A1B681068002198472368996916
:101C70005A695B698D0709D5900507D5190405D503
:101C8000184B194A1B681068052198472268966905
:101C90005569526916F0040605F4806508D03DB117
:101CA000120405D50F4B104A1B681068072198478E
:101CB00023685B6956B14DB11B0407D5094B0A4A2D
:101CC0001B6810680221BDE8F0411847BDE8F081AB
:101CD00000640040080B002003000004000300081B
:101CE000000003104C0B0020480B0020FFF77EBFC4
:101CF000FFF77CBF054B186838B901221A60044B06
:101D00004FF080421A60FFF797BE7047500B0020DB
:101D10008017002008B5044B1B680BB9FFF7EAFFDA
:101D20004FF08043586A08BD500B00204FF08043AD
:101D3000034A13605863DA6842F00202DA607047BF
:101D4000801700204FF08043034A1360DA6822F0C6
:101D50000202DA60704700BF80170020034A4FF08C
:101D6000804313606FF002021A61704780170020F1
:101D700030B507EE101A284B02681A60B5EEC07A2B
:101D8000F1EE10FA89B0054628D4F7EE007AB4EEE9
:101D9000677AF1EE10FAC8BFB0EE677AD5ED037A34
:101DA000F8EE677A602267EE877A0192FCEEE77AB6
:101DB000AA68C5ED047A17EE903AB3FBF2F30293EA
:101DC0000023039305930693049307932B7D013B14
:101DD000032B16D8DFE803F01B0517199FED0F7AC8
:101DE000DCE70424224601A90B4801F0D4FB10B122
:101DF0000B48FEF775FB6B7D074821464BB101F0A0
:101E0000B9FB09B030BD0824ECE70C24EAE7002454
:101E1000E8E701F0FDFAF4E7540B002000000000B1
:101E2000C6420008C368ABB107EE903AD0ED046A31
:101E3000B8EE677AF8EE666AC6EE877AB7EE007A91
:101E4000F4EE477AF1EE10FAC8BFF0EE477A17EEDB
:101E5000900A7047DFED017AF9E700BF000000004B
:101E60002DE9F0474A4C0268226086B000230E46F6
:101E700000930546FFF7D6FF116A41F2111319428C
:101E8000074608D1116A40F24443194202BF136861
:101E900023F001031360694601A801F023F93D48CE
:101EA0002968002380465FFA83F9013350F839200E
:101EB0008A42F8D111B93848FEF712FB08EBC9087D
:101EC00098F8043053BB01F0DDF8009004980099B5
:101ED0000123AB60314B30BBB1FBF3F3013B6360DB
:101EE00006F1FF3C2D4B6268B1FBF3FE4FEA41085F
:101EF0000021B8FBF3F8C4F80CC063468A464FF6DD
:101F0000FE79B3F5803F12D2B2F5803F0FD2BAF11D
:101F1000000F00D06260F1B1E3601CE001F0CAF88C
:101F200000900598D3E74A00B2FBF3F3D6E7AB681D
:101F30005B00AB6030BB0EFB03F2BCFBF3F34B4525
:101F400002F1FF3221D8B2F5803F1ED314486260FF
:101F5000E360FEF7C5FA00230D482361A36001F09A
:101F600045F910B10E48FEF7BBFAEE603946284637
:101F7000FFF7FEFE2268136843F00103136006B00A
:101F8000BDE8F08708FB03F2D7E701218A46B8E7EE
:101F9000540B002020430008B142000840420F00CB
:101FA000C642000830B50D46044687B03949284678
:101FB000FEF730FA374920602846FEF747FAC0F3AB
:101FC00004332375344A2368C0F34040934260755C
:101FD00018D102F56442916941F4006191619269FE
:101FE00002F400620092009A2C4A934225D12C4BB5
:101FF0009A6942F480229A619B6903F480230593D5
:10200000059B1AE0B3F1804F0AD1254AD16941F00E
:102010000101D161D26902F001020192019AE3E764
:10202000204A93421AD11E4BDA6942F00202DA6169
:10203000DB6903F002030293029B16492846FEF770
:10204000ADF90023E36023610123A580A36044F67A
:1020500020612046FFF704FF07B030BD124A9342CB
:102060000AD10F4B9A6942F480329A619B6903F45A
:1020700080330393039BE0E70C4A9342B4D1084BAF
:102080009A6942F400329A619B6903F40033049325
:10209000049BD2E770430008002C01400048014037
:1020A0000010024000040040004001400044014094
:1020B00007EE101ADFED047A67EE277AFDEEE77A75
:1020C00017EE901AFFF7CCBE0024744930B5C368F0
:1020D00091FAA1F4B4FA84F491FAA1F10325B1FACA
:1020E00081F1640005FA04F4490023EA040302FACA
:1020F00001F11943C16030BD012A02D0022A18BF84
:102100000022FFF7E3BF00002DE9F0413E4B00F055
:102110000F08C0F303100E4601F0070553F82840DE
:10212000FFF700FD826894FAA4F3B3FA83F394FAFC
:10213000A4F103275B00B1FA81F107FA03F322EA65
:1021400003034A0007FA02F21343022D836028D0EA
:10215000BD4241D0012D3FD00023026894FAA4F77C
:10216000B7FA87F794FAA4F14FF0030EB1FA81F1B0
:102170007F000EFA07F7490022EA07028B40013D73
:102180001343012D036005D8436832074CBF234336
:10219000A3434360C6F301122146BDE8F041FFF7B7
:1021A000ABBFB8F1070FC6F3032717D9426A230A5A
:1021B00093FAA3F1B1FA81F193FAA3F34FF00F0E62
:1021C000B3FA83F389000EFA01F19B0022EA0102BF
:1021D00007FA03F3134343622B46BEE7026A94FAFD
:1021E000A4F3B3FA83F394FAA4F14FF00F0EB1FA0B
:1021F00081F19B000EFA03F3890022EA030207FA39
:1022000001F313430362E7E7E042000800F00F0226
:102210001C4B70B5C0F303100D4653F82240FFF776
:1022200081FC066894FAA4F1B1FA81F394FAA4F25D
:1022300059000323B2FA82F28B4033405200D3405C
:10224000013B012B05D8EB1E022B436809D8234321
:102250004360032D08D101222146BDE87040FFF7FD
:102260004BBF23EA04034360012DF4D0052D01D0B8
:10227000022D01D10222EFE721460022BDE8704085
:10228000FFF724BFE04200084368184970225A4310
:1022900010B58B1804688C5082685A60C2689A60C6
:1022A0000269DA6042691A61C2699A610022A3F880
:1022B0005220A3F85020A3F85A20A3F85820B0F9D0
:1022C0001A2001320AD108225A61184600F041FB57
:1022D00058B10748BDE81040FEF702B9B0F9182020
:1022E00001320CBF04220C22EEE710BD980B002037
:1022F00058430008F0B50E4685B0044649493046BB
:102300001546FEF787F8484907462846FEF782F843
:1023100001463846FEF760F8444B2060984251D1A0
:1023200003F55843DA6842F48042DA60DA6822F44E
:102330008042DA609A6942F480429A619A6902F4B2
:1023400080420192019A1A6B22F0030242F00102CC
:102350001A630023636033493046FEF71FF83249A1
:102360002846FEF71BF8721C03D001213046FFF708
:102370004DFF6B1C03D001212846FFF747FF4FF4A8
:102380001653A3600023E36023616361E361268346
:1023900065832046FFF778FF2268254B9A420FD1CC
:1023A000244B01221A60244B04F120052068616847
:1023B0001A4603C20834AC421346F7D120681060B5
:1023C00005B0F0BD1A4B984214D103F5E6331A69F3
:1023D00042F400321A611A6922F400321A61DA6991
:1023E00042F40032DA61DB6903F400330293029BAA
:1023F0000123AFE7114B9842ADD103F5E4331A69DD
:1024000042F480221A611A6922F480221A61DA6980
:1024100042F48022DA61DB6903F480230393039B97
:10242000022397E7A84400086044000800380140F0
:1024300000440040940B0020C017002000480040DA
:102440008160FFF721BF0000426870235343034AB5
:10245000D358D869C0F34010704700BF980B0020D4
:1024600010B5446801460846FFF7EEFF0028FAD091
:102470007023054AC9686343D358988C09B9C0B220
:1024800010BDC0F3080010BD980B002042687023F7
:102490005343034AD358D869C0F3C010704700BFF4
:1024A000980B002038B5456804462046FFF7EEFF3C
:1024B0000028FAD07023054AE0686B43D35810B95E
:1024C000C9B2198538BDC1F30801FAE7980B00209D
:1024D00008B500F005F8BDE8084000F0BFBF0000F7
:1024E000144A1549536803F00C03042B10B501D0AE
:1024F000082B0AD0114B0B605368114AC3F3031326
:10250000D25C0B68D3400B6010BD53685068C003A9
:1025100049BFD06A0B48094C00F00F00C3F3834356
:1025200048BF013003F1020348BFB4FBF0F043435E
:10253000E1E700BF00100240A401002000127A0071
:10254000F044000800093D0030B591B00323069324
:1025500001230A93102300240B9302254FF46013E8
:1025600006A807940D950E940F9300F025FA80B9F4
:102570000F23019303904FF480630590294601A82F
:102580000295049300F0BCFCB0FA80F0400911B051
:1025900030BD2046FBE708B5FFF7D6FF00B9FEE7E0
:1025A00008BD00001D4AD2F8883010B543F470030E
:1025B0001B4CC2F88830236843F001032360616834
:1025C000184B0B406360236823F0847323F480333B
:1025D0002360236823F480232360636823F4FE03CD
:1025E0006360E36A23F00F03E362216B0E4B0B4041
:1025F00023630023A3604FF0006393600B4B0C4AEE
:102600001A6000F02BFFFFF7C6FF236943F00103B8
:102610002361236923F00103236110BD00ED00E075
:10262000001002400CC07FF8CCFC00FFA401002089
:1026300000127A0030B50C4CA268A468B4F1006FA7
:1026400013460CD1131F094C094A53F8045F42F892
:10265000045FA242F9D1044A4FF000539360103056
:1026600043F8201030BD00BF00ED00E084010020E1
:10267000FCFFFF1F064A1369012923F004031361BD
:1026800001D130BF704740BF20BF20BF704700BF9F
:1026900000ED00E07047000038B504460568216988
:1026A000A368C26928680B4361690B434949134316
:1026B00001400B432B606B68E168206A23F44053B0
:1026C0000B436B60A968A36921F4306103430B439A
:1026D000AB60414B9D4212D103F558433F491B6B00
:1026E00003F00303B2F5004FCB5C3BD1082B36D887
:1026F000DFE803F00F2124352D3535353000384B18
:102700009D4203D003F580639D425ED1B2F5004F38
:1027100031D100F0B7FC61684A0802EB4003B3FB1B
:10272000F1F39BB2002023F00F022168C3F34203B0
:102730001343CB6038BD00F0BDFCECE76068430894
:1027400003F5740303F51053B3FBF0F3E9E700F06E
:10275000A5FBE0E76068430803F58033F4E7012058
:102760000023E0E7082B33D8DFE803F005101B3225
:10277000273232322A0000F085FC636800EB5300F8
:10278000B0FBF3F080B2E860002038BD00F092FCAE
:10279000636800EB5300B0FBF3F00F4B80B2D860DE
:1027A000F2E76268530803F5F40303F59053B3FBB3
:1027B000F2F3094A9BB2D360E6E700F06FFBE7E76C
:1027C0006268530803F50043F1E7B2F5004FC6D045
:1027D000012038BDF369FFEF0038014008450008CB
:1027E00000440040436ADA0710B506D50168846AE0
:1027F0004A6822F4003222434A609C0706D50168E9
:10280000C46A4A6822F4803222434A60590706D5D6
:102810000168046B4A6822F4802222434A601A0746
:1028200006D50168446B4A6822F4004222434A609C
:10283000DC0606D50168846B8A6822F48052224344
:102840008A60990606D50168C46B8A6822F4005232
:1028500022438A605A060FD50168046C4A6822F444
:1028600080122243B4F5801F4A6005D14A68446C47
:1028700022F4C00222434A601B0606D50268816C1E
:10288000536823F400230B43536010BD2DE9F0413E
:10289000069D04460F46164698462168CA6937EADF
:1028A00002030CBF01220022B24202D00020BDE888
:1028B000F0816B1CF2D09DB923681A6822F4D072A3
:1028C0001A609A6822F001029A60202384F8693025
:1028D00084F86A30002384F868300320BDE8F08172
:1028E00000F0D6FDA0EB08008542D6D2E4E773B530
:1028F00004460026C66600F0CBFD23681B681A0755
:10290000054617D423681B685B070AD56FF07E4322
:10291000009300222B464FF480012046FFF7B6FFBC
:10292000A0B92023002084F8693084F8680084F876
:102930006A300CE06FF07E430093324603464FF45A
:1029400000112046FFF7A2FF0028DBD0032002B0D1
:1029500070BD10B5044660B390F8693003F0FF0213
:102960001BB980F86820FFF795FE2268242384F8BD
:102970006930136823F0010313602046FFF78CFED3
:10298000012816D0636A13B12046FFF72BFF236896
:102990005A6822F490425A609A6822F02A029A6099
:1029A0001A6842F0010220461A60BDE81040FFF7A5
:1029B0009EBF012010BD00000368DA072DE9F34730
:1029C000054611D42B689B0700F188802B681C07F3
:1029D00000F1F8802B68580700F14181EA69002A6C
:1029E00040F0D781002021E0BA4C636803F00C036B
:1029F000042B07D0636803F00C03082B19D163681C
:102A0000DF0316D54FF4003393FAA3F2216893FA4B
:102A1000A3F3B3FA83F303F01F03012202FA03F3D3
:102A20000B42CFD06B68002BCCD1012002B0BDE8A7
:102A3000F0876A68B2F5803F25D1236843F480337C
:102A40002360E36AA96823F00F030B43E36252B3E8
:102A500000F01EFD4FF400368046012796FAA6F3DB
:102A6000226896FAA6F3B3FA83F303F01F0307FA7A
:102A700003F31342A6D100F00BFDA0EB080064287D
:102A8000ECD90320D2E7236832B923F480332360E2
:102A9000236823F48023D3E7B2F5A02FF5D143F4C4
:102AA00080232360C9E700F0F3FC4FF40036804632
:102AB000012796FAA6F3226896FAA6F3B3FA83F3EF
:102AC00003F01F0307FA03F313423FF47BAF00F058
:102AD000DFFCA0EB08006428EBD9D2E77D4C6368EB
:102AE00013F00C0F07D0636803F00C03082B21D1FF
:102AF0006368DE031ED4022393FAA3F2216893FADB
:102B0000A3F3B3FA83F303F01F03012202FA03F3E2
:102B10000B4202D02B69934287D12168F82393FAA4
:102B2000A3F3B3FA83F26B69934021F0F8021343E5
:102B300023604BE72A6901260AB396FAA6F3B3FA93
:102B400083F303F1845303F584139B0002271E6073
:102B500000F09EFC804697FAA7F3226897FAA7F345
:102B6000B3FA83F303F01F0306FA03F31342D4D13D
:102B700000F08EFCA0EB08000228ECD981E796FA61
:102B8000A6F3B3FA83F303F1845303F584139B0094
:102B900002271A6000F07CFC804697FAA7F32268AF
:102BA00097FAA7F3B3FA83F303F01F0306FA03F3CC
:102BB00013423FF40BAF00F06BFCA0EB08000228BF
:102BC000EBD95EE7AA69434E434901241AB394FA4C
:102BD000A4F3B3FA83F30B449B0002271C6000F0BC
:102BE00057FC804697FAA7F397FAA7F397FAA7F34B
:102BF000726A97FAA7F3B3FA83F303F01F0304FA98
:102C000003F313427FF4E6AE00F042FCA0EB0800B1
:102C10000228E7D935E794FAA4F3B3FA83F30B4417
:102C20009B0002271A6000F033FC804697FAA7F356
:102C300097FAA7F397FAA7F3726A97FAA7F3B3FA8A
:102C400083F303F01F0304FA03F313423FF4C2AE0D
:102C500000F01EFCA0EB08000228E7D911E71D4C8C
:102C6000E369D90034D4E36943F08053E361E36955
:102C700003F080530193019B0126184F3B68DA054E
:102C80002ED5EB68012B3CD1236A43F0010323626C
:102C900000F0FEFB02278246B9464FF0010897FA82
:102CA000A7F397FAA7F3002B6BD0226A99FAA9F33E
:102CB000B3FA83F303F01F0308FA03F3134257D068
:102CC000002E3FF48BAEE36923F08053E36185E689
:102CD0000026D2E7001002402081901000700040D2
:102CE0003B6843F480733B6000F0D2FB80463B6856
:102CF000DB05C6D400F0CCFBA0EB08006428F6D9B5
:102D0000BFE63BBB236A23F001032362236A23F05F
:102D10000403236200F0BCFB02278246B9464FF051
:102D2000010897FAA7F397FAA7F373B3226A99FAFF
:102D3000A9F3B3FA83F303F01F0308FA03F3134272
:102D4000BED000F0A5FB41F28833A0EB0A00984208
:102D5000E7D996E6052B236A03D143F004032362E7
:102D600092E723F001032362236A23F004038EE732
:102D700000F08EFB41F28833A0EB0A0098428ED916
:102D80007FE697FAA7F3626A90E797FAA7F3626A79
:102D9000CDE7414C636803F00C03082B3FF445AECC
:102DA000022A4FF0807352D193FAA3F3B3FA83F35C
:102DB00003F1845303F584139B0000221A6000F092
:102DC00067FB4FF000778046012697FAA7F3226849
:102DD00097FAA7F3B3FA83F303F01F0306FA03F39A
:102DE00013422DD162686B6A296A22F474120B4374
:102DF000134363604FF0807393FAA3F3B3FA83F342
:102E000003F1845303F584139B004FF000751E609B
:102E100000F03EFB0126074695FAA5F3226895FAD5
:102E2000A5F3B3FA83F303F01F0306FA03F3134287
:102E30007FF4D8AD00F02CFBC01B0228ECD920E6B3
:102E400000F026FBA0EB08000228BED919E693FA91
:102E5000A3F3B3FA83F303F1845303F584139B00C4
:102E600000221A6000F014FB4FF00075074601269F
:102E700095FAA5F3226895FAA5F3B3FA83F303F064
:102E80001F0306FA03F313423FF4ACAD00F000FB5E
:102E9000C01B0228ECD9F4E50010024010B5134C19
:102EA000616801F00C03082B1ED14FF4701393FAE4
:102EB000A3F301F47012B3FA83F322FA03F30C4A7A
:102EC000D05CE36A0F2292FAA2F2B2FA82F203F025
:102ED0000F03D340074AD25CCB034ABF064B074BD4
:102EE000B3FBF2F3584310BD034810BD001002407D
:102EF0000C4500081C45000800127A0000093D003E
:102F00005C4A136803F007038B422DE9F041064643
:102F10000D4630D3326891073AD4D20740D4554A8F
:102F2000136803F007039D42C0F092803268524C50
:102F300012F0040F40F09780130706D563683269DA
:102F400023F4605343EAC2036360FFF7A7FF63689B
:102F5000F02292FAA2F2B2FA82F203F0F003D34026
:102F6000464AD35CD840464B18600F20FEF764FDFC
:102F70000020BDE8F081136823F007030B431360C2
:102F8000136803F007039942C4D00120BDE8F08123
:102F90003949B0684B6823F0F00303434B60BCE74A
:102FA0007268354C012A28D14FF4003393FAA3F10B
:102FB000216893FAA3F3B3FA83F303F01F0302FA31
:102FC00003F30B42E1D0636823F003031A4362600A
:102FD00000F05EFA7368012B074641F288381FD172
:102FE000636803F00C03042B99D000F051FAC01B66
:102FF0004045F5D90320BDE8F081022A0CBF4FF00F
:103000000073022393FAA3F1206893FAA3F3B3FAAF
:1030100083F303F01F03012101FA03F30342D1E715
:10302000022B10D1636803F00C03082B3FF477AF39
:1030300000F02EFAC01B4045F4D9DBE700F028FA77
:10304000C01B4045D6D8636813F00C0FF6D166E775
:10305000136823F007032B431360136803F007037F
:103060009D4292D162E76368F16823F4E0630B4309
:10307000636061E70020024000100240F044000855
:10308000A4010020084B4FF4E0625B6892FAA2F2C0
:10309000B2FA82F203F4E063D340044AD35C044AF8
:1030A0001068D840704700BF00100240004500087B
:1030B000A4010020084B4FF460525B6892FAA2F220
:1030C000B2FA82F203F46053D340044AD35C044A58
:1030D0001068D840704700BF00100240004500084B
:1030E000A40100200F2303600B4B5A6802F0030277
:1030F00042605A6802F0F00282605A6802F4E062AC
:10310000C2605B68DB0803F4E0630361034B1B6888
:1031100003F007030B6070470010024000200240DC
:1031200070477047214A0368904210B505D0B0F14E
:10313000804F02D01E4CA0420CD14C6823F070038B
:10314000904243EA040310D0B0F1804F0DD0184AEA
:1031500090420AD0174A904207D002F5806290420E
:1031600003D002F58062904203D1CA6823F4407311
:1031700013434A6923F08003134303608B68C362DF
:103180000B688362094B98420BD003F5A053984219
:1031900007D003F58063984203D003F5806398421B
:1031A00001D10B6903630123436110BD002C014071
:1031B000000400400040014010B50446A0B190F862
:1031C0003D3003F0FF021BB980F83C20FFF7A8FF59
:1031D000022384F83D302068211DFFF7A3FF01235F
:1031E00084F83D30002010BD012010BD10B504460C
:1031F000A0B190F83D3003F0FF021BB980F83C20ED
:10320000FFF78FFF022384F83D302068211DFFF770
:1032100089FF012384F83D30002010BD012010BD3E
:10322000036A23F001030362036A70B5446882698C
:103230000D6822F4803222F073022A438D6823F055
:1032400002032B43174DA8420BD005F5A055A84209
:1032500007D005F58065A84203D005F58065A84232
:103260001AD1CD6823F008032B430E4DA84223F05A
:1032700004030BD005F5A055A84207D005F58065DD
:10328000A84203D005F58065A84205D124F4407515
:103290008E694C6934432C43446082614A684263BE
:1032A000036270BD002C0140036A23F01003036227
:1032B000036A426870B584690D6824F0807424F450
:1032C000E64444EA05248D6823F0200343EA05130D
:1032D000104DA8420ED1CD6823F0800343EA0513B8
:1032E00023F040034D698E6922F44062354342EA7F
:1032F000850209E0084DA842F4D0084DA842F1D05B
:1033000005F58065A842EDD042604A688461826319
:10331000036270BD002C01400040014000440140A8
:10332000036A23F480730362036A426870B5C46958
:103330000D6824F4803424F073042C438D6823F446
:10334000007343EA0523114DA8420ED1CD6823F442
:10335000006343EA052323F480634D698E6922F4F8
:103360004052354342EA051209E0094DA842F4D023
:10337000084DA842F1D005F58065A842EDD0426025
:103380004A68C461C263036270BD00BF002C014083
:103390000040014000440140036A23F4805303626B
:1033A000026A30B54468C3690D6823F0807323F462
:1033B000E64343EA05238D6822F4005242EA0532CF
:1033C0000C4DA8420BD005F5A055A84207D005F535
:1033D0008065A84203D005F58065A84204D14D69F7
:1033E00024F4804444EA85144460C3614B68036458
:1033F000026230BD002C0140036A10B501248C40EC
:1034000023EA04030362036A8A401A43026210BD7E
:1034100010B5044601220068FFF7EEFF23680C4A4E
:1034200093420BD002F5A052934207D002F580627E
:10343000934203D002F58062934203D15A6C42F466
:1034400000425A641A6842F001021A60002010BD5E
:10345000002C0140FFF7DCBF70470000074A08B5A9
:10346000136843F010031360032000F01BF90F20D2
:10347000FEF7E2FAFFF7F0FF002008BD002002404F
:10348000024A136801331360704700BFE41700203D
:10349000014B1868704700BFE4170020036A10B59D
:1034A00004248C4023EA04030362036A8A401A431B
:1034B000026210BD036A23F480330362026A30B5EE
:1034C0004468436D0D6823F4803323F070032B436D
:1034D0008D6822F4003242EA05420D4DA8420BD01D
:1034E00005F5A055A84207D005F58065A84203D090
:1034F00005F58065A84204D14D6924F4803444EA7E
:103500000524446043654B688365026230BD00BF9B
:10351000002C0140036A23F480130362026A30B571
:103520004468436D0D6823F0807323F4E04343EA5D
:1035300005238D6822F4001242EA05520C4DA84280
:103540000BD005F5A055A84207D005F58065A84227
:1035500003D005F58065A84204D14D6924F4802488
:1035600044EA8524446043654B68C365026230BD0C
:10357000002C014010B5044604220068FFF78EFFBE
:1035800023685A6C42F400425A641A6842F00102FD
:103590001A60002010BD38B590F83C30012B04466D
:1035A0000D464FF0020010D00123082A84F83C3069
:1035B00084F83D0043D009D8FAB1042A2ED0012363
:1035C000002084F83D3084F83C0038BD102A47D0F4
:1035D000142A56D00C2AF2D12068FFF7DDFE2368AA
:1035E0002969DA6942F40062DA61DA6922F48062F8
:1035F000DA61DA6942EA012230E02068FFF710FE62
:10360000236829699A6942F008029A619A6922F04E
:1036100004029A619A690A439A61D0E72068FFF729
:1036200043FE236829699A6942F400629A619A69A3
:1036300022F480629A619A6942EA0122ECE72068EA
:10364000FFF76EFE23682969DA6942F00802DA6141
:10365000DA6922F00402DA61DA690A43DA61AEE774
:103660002068FFF727FF236809695A6D42F00802B6
:103670005A655A6D22F004025A655A6D0A435A651A
:103680009DE72068FFF746FF236809695A6D42F4F9
:1036900000625A655A6D22F480625A655A6D42EA98
:1036A0000122ECE7074AD36823F4E0631B041B0CF8
:1036B00043F0BF63000243F4003300F4E0600343CF
:1036C000D360704700ED00E0C36810B504460BB14D
:1036D0009B689847204610BD38B5044648B158301D
:1036E000A04206D0A0F12C051438FFF7EDFF2846C4
:1036F000F6E7204638BD000070B50E4C2046002588
:1037000028263246294640F8045B00F0EFFB32469B
:10371000294604F13000E56200F0E8FBA56520468B
:10372000E565054A84F860500449BDE8704000F042
:1037300025B900BFC80D002088010020D936000837
:1037400000F02ABC00F0DABB70B50546FEF7E2FADD
:103750004FF47A7495FBF4F4002C064602DDFCF776
:1037600085FE28B9FEF7D6FA801BA842FAD370BDB1
:10377000204600F019F9F5E74FF47A735843FFF744
:10378000E3BF000008B5084B1B685BB9022107487E
:103790000F22FEF7AFFD4FF416510448BDE8084074
:1037A000FEF74EBE08BD00BF940B0020C0170020DE
:1037B000022810B5044601DC002010BD00F0DEF93F
:1037C00009230360033C094B53F82400002243F80B
:1037D000242040B103681B699847041EECDA00F00E
:1037E000CDF9644204604FF0FF3010BD2C0E002074
:1037F000F8B505460E46144600F0C0F90923022D1F
:1038000003600FDC124B1B680BB9FFF7BBFF35469B
:103810003719104EBD4215D015F8011B3046FEF782
:1038200041FEF7E7033D0C4B53F8250060B10368F8
:103830002246DB6831469847041E03DA00F09EF901
:10384000634203602046F8BD4FF0FF34FAE700BF43
:10385000940B0020C01700202C0E002070B50446E9
:103860000D46164600F08AF90923022C03600BDC92
:103870000F4B1B680BB9FFF785FF0E48FEF7F0FDF5
:1038800001242870204670BD033C0B4B53F82400E4
:1038900058B1036832469B6829469847041EF1DAFE
:1038A00000F06CF963420360ECE74FF0FF34E9E7A6
:1038B000940B0020C01700202C0E002070B5044689
:1038C0000D46164600F05AF90923022C03600BDD61
:1038D000033C084B53F8240040B1036832462946A4
:1038E000DB69BDE870401847002070BD4FF0FF3025
:1038F00070BD00BF2C0E002008B5FEF7E9FDFCF7F7
:1039000057FE08BD704708B5FFF7FCFFBDE808404B
:10391000FCF770BC0C4A136810B51844EFF308812B
:10392000884205D3094B0C221A604FF0FF3010BDBE
:1039300007490C6824B10749096821448842F1D23B
:103940001060184610BD00BFA8010020E817002035
:103950002C0F0020300F0020074C08B523680546C7
:10396000986800F0C3F92368D86800F0BFF90DB17A
:10397000FCF7ACFDFEE700BFAC0100200120704762
:1039800008B5FFF7E9FF08B5FCF720FE08BD08B54C
:10399000FCF724FE08BD0000024B1B6803B118476A
:1039A000704700BF340F0020FDF7E6BA80F30988A6
:1039B0007047EFF309807047684680F309885A48DA
:1039C0000078C00714BF0220032080F314887047DA
:1039D000DFF858C1EFF305831B0618BF6047EFF30C
:1039E0001483DB0708BF604700DF7047DFF840C182
:1039F000EFF305831B0618BF6047EFF31483DB0763
:103A000008BF604700DF7047EFF30980816911F854
:103A1000021CE1BB90E80F1010B5E047BDE8104074
:103A2000EFF3098C8CE80700424B93E806009142C3
:103A300008BF704741B91EF0100F16D13E49086803
:103A400020F00100086010E01EF0100F06BF2CED02
:103A5000108A0120002081F825002CE9F00FC1F820
:103A60002CC00CB4FCF79EFF0CBC1A60D2F82CC022
:103A7000BCE8F00F92F8250000280EBF6FF0020E90
:103A80006FF0120EBCEC108A8CF30988704710B5E9
:103A90002A4A1268914209D8294C54F8214090E8EA
:103AA0000F10A047EFF3098C8CE80F0010BD10B584
:103AB000FCF704FFBDE810401E4B93E8060091425E
:103AC00008BF7047EFF3098C1EF0100F06BF2CEDF6
:103AD000108A0120002081F825002CE9F00FC1F8A0
:103AE0002CC00CB4FCF75EFF0CBC1A60D2F82CC0E2
:103AF000BCE8F00F92F8250000280EBF6FF0020E10
:103B00006FF0120EBCEC108A8CF30988704710B568
:103B1000FCF72AFFFFF7CEBF10B5FCF723FFFCF739
:103B200023FFFFF7C7BF000052420008130A000836
:103B30002D0A00083417002034EF00E000000000D8
:103B4000FCFFFFFFDFF820D0002103E0074B5B58AC
:103B5000435004310648074B42189A42F6D3FEF709
:103B600021FDFCF7DDFBFEE7003000209C4500084E
:103B70008801002024020020FEE70000014B1868A5
:103B8000704700BFAC0100208A892DE9F04105464D
:103B900010070C465AD44B68002B05DC0B6C002B2D
:103BA00002DC0020BDE8F081E66A002EF9D0002397
:103BB00012F480522F682B6033D0606DA3895A07AE
:103BC00005D56368C01A636B0BB1236CC01A002360
:103BD0000246E66A216A2846B047431CA38906D1FB
:103BE00029681D294BD82B4ACA40D60747D5002241
:103BF0006260D9042269226004D5421C01D12B687D
:103C000003B96065616B2F600029CAD004F14403D9
:103C1000994202D02846FFF795FD00206063BDE879
:103C2000F081216A01232846B047411CC6D12B6888
:103C3000002BC3D01D2B01D0162B01D12F60B0E774
:103C4000A38943F04003A381BDE8F0810F69002FF1
:103C5000A7D093070E6808BF4B690F6018BF0023F9
:103C6000A6EB07088B60B8F1000F9ADD43463A4691
:103C7000216AA66A2846B047002807DCA38943F0DA
:103C80004003A3814FF0FF30BDE8F0810744A8EB6B
:103C90000008E8E70100402038B50B6905460C46EE
:103CA000DBB118B183690BB900F072F80C4B9C4280
:103CB00009D16C68B4F90C307BB121462846BDE8C7
:103CC0003840FFF761BF074B9C4201D1AC68F1E778
:103CD000054B9C4208BFEC68ECE7002038BD00BFF4
:103CE0004C4500086C4500082C450008014620B9E9
:103CF000044B0549186800F0B7B8044B1868FFF783
:103D0000CBBF00BF8C450008993C0008AC010020E7
:103D1000014900F0A9B800BF993C0008002310B584
:103D2000044603604360836081814366C28103610E
:103D300043618361194608225C3000F0D7F8054BD7
:103D40006362054BA362054BE362054B2462236368
:103D500010BD00BF7540000897400008CF40000824
:103D6000F340000870B54A1E682555430E4605F11C
:103D70007401FFF7E5FC044640B1002180E84200F1
:103D80000C30A06005F1680200F0B0F8204670BD6C
:103D9000836910B5044633BB8364C3640365124B67
:103DA000124A1B688262984204BF0123836100F0BB
:103DB0001FF86060204600F01BF8A060204600F06D
:103DC00017F80022E06004216068FFF7A7FF0122D6
:103DD0000921A068FFF7A2FF02221221E068FFF785
:103DE0009DFF0123A36110BD8C450008113D000813
:103DF000F8B51C4B1E68B369074613B93046FFF788
:103E0000C7FF4836B4687368013B03D5336833B1E4
:103E10003668F7E7B4F90C506DB16834F4E7042163
:103E20003846FFF79FFF30600028F1D10C233B603C
:103E300004462046F8BD4FF6FF73E3810123A381BA
:103E400065662560A560656025616561A5610822DC
:103E5000294604F15C0000F049F86563A563A56498
:103E6000E564E6E78C4500082DE9F843804689467D
:103E700000F14804002614B93046BDE8F883A5686F
:103E80006768013F01D52468F5E7AB89012B07D9A5
:103E9000B5F90E30013303D029464046C8470643E2
:103EA0006835EEE770B50D4E0D4CA41BA41000252F
:103EB000A54209D10B4E0C4C00F066F9A41BA410CE
:103EC0000025A54205D170BD56F82530984701352B
:103ED000EEE756F8253098470135F2E7100200204A
:103EE00010020020100200201C02002002440346A1
:103EF000934200D1704703F8011BF9E738B5054636
:103F0000002945D051F8043C0C1F002BB8BFE41821
:103F1000FFF739FD1F4A1368104633B96360146018
:103F20002846BDE83840FFF732BDA3420CD92168CE
:103F30006218934204BF1A685B68636004BF52183A
:103F400022600460ECE713465A680AB1A242FAD92B
:103F500019685818A0420BD12068014458188242B1
:103F60001960DDD1106852685A6001441960D7E7C2
:103F700002D90C232B60D3E7206821188A4204BFA2
:103F800011685268626004BF091821605C60C7E76D
:103F900038BD00BF380F002070B5CD1C25F00305DB
:103FA00008350C2D38BF0C25002D064601DBA94233
:103FB00003D90C233360002070BDFFF7E4FC234AD3
:103FC0001468214691B9224C23681BB9304600F091
:103FD00041F820602946304600F03CF8431C26D1C9
:103FE0000C2333603046FFF7D2FCE4E70B685B1B21
:103FF0001AD40B2B0FD90B60CD50CC183046FFF7DD
:10400000C6FC04F10B00231D20F00700C31A1BD0CF
:104010005A42E25070BD8C420DBF63684B686360CA
:10402000136018BF0C46E9E70C464968CAE7C41C90
:1040300024F00304A04205D0211A304600F00AF80B
:104040000130CDD02560D9E770BD00BF380F00200A
:104050003C0F002038B5064C002305460846236077
:10406000FFF758FC431C02D1236803B12B6038BD15
:10407000E817002010B50C46B1F90E1000F072F8E8
:104080000028ABBF636DA3891B1823F48053ACBF1A
:104090006365A38110BD2DE9F0411F468B89DB05C7
:1040A00005460C46164605D502230022B1F90E102E
:1040B00000F046F8A389B4F90E1023F48053A381CD
:1040C00032463B462846BDE8F04100F017B810B52F
:1040D0000C46B1F90E1000F033F8431CA38915BF4C
:1040E000606523F4805343F48053A38118BFA381F8
:1040F00010BDB1F90E1000F013B8000038B5074C30
:10410000054608461146002222601A46FFF770FB5A
:10411000431C02D1236803B12B6038BDE81700208F
:1041200038B5064C0023054608462360FFF740FBE0
:10413000431C02D1236803B12B6038BDE81700206F
:1041400038B5074C054608461146002222601A463B
:10415000FFF7B4FB431C02D1236803B12B6038BDC9
:10416000E817002038B5074C0546084611460022DE
:1041700022601A46FFF772FB431C02D1236803B189
:104180002B6038BDE8170020F8B500BFF8BC08BCAC
:104190009E467047F8B500BFF8BC08BC9E46704705
:1041A000A84100087C020020F51C0008151D00082D
:1041B000451D00085D1D00082D1D000870696E6D0D
:1041C0006170206E6F7420666F756E6420666F720A
:1041D0002066756E6374696F6E0070696E6D6170D4
:1041E000206D69732D6D617463680070696E6D6117
:1041F00070206E6F7420666F756E6420666F72201B
:104200007065726970686572616C00636F756C646B
:10421000206E6F742070696E6F757400100200005C
:10422000CC010000E8030000525458206572726F00
:104230007220636F64653A203078253038582C201E
:104240007461736B2049443A203078253038580A1D
:10425000001001000700000004000000A002002080
:10426000C0020020D0020020E00200200500010072
:10427000000200016D1300080200000001000000B0
:1042800020030000F8110020FFF90000F40A0020CC
:1042900050696E6D6170206572726F723A2077722C
:1042A0006F6E6720706F7274206E756D6265722E0E
:1042B00000556E6B6E6F776E2050574D20696E7390
:1042C00074616E63650043616E6E6F7420696E6920
:1042D0007469616C697A652050574D0A00000000CE
:1042E00001000000020000000400000008000000BF
:1042F00010000000200000004000000080000000CE
:10430000000100000002000000040000000800009E
:1043100000100000002000000040000000800000AD
:104320000000004000000000000400400000000009
:10433000002C01400100000000400140010000008D
:10434000004401400100000000480140010000005D
:10435000000000000200000043616E6E6F7420696F
:104360006E697469616C697A6520554152540A001E
:10437000010000000040014012190200020000008C
:1043800000400140121900000300000000400140FD
:104390001229000004000000000400401222000066
:1043A0000600000000440140121100000700000058
:1043B000004801401211000008000000002C0140DC
:1043C0001216000009000000002C01401226000017
:1043D0000A000000002C0140123600000B00000013
:1043E000002C0140124B00000C0000000044014072
:1043F000121100000D0000000044014012110200E3
:1044000010000000002C01401226020011000000E4
:10441000002C01401236020014000000004401404C
:10442000121100001500000000480140121A00009F
:1044300016000000004401401211020017000000A5
:10444000004801401211020050000000002C014001
:1044500012360200FFFF0000FFFFFFFF0000000018
:104460000300000000440040120700000A000000A2
:1044700000380140120700000F0000000044004017
:104480001207000014000000004400401207000062
:10449000170000000038014012070000FFFF000075
:1044A000FFFFFFFF0000000002000000004400408A
:1044B0001207000009000000003801401207000048
:1044C0000E0000000044004012070000130000002E
:1044D00000440040120700001600000000380140B0
:1044E00012070000FFFF0000FFFFFFFF00000000B9
:1044F0000000000000000000010203040607080994
:104500000000000001020304000408020203040585
:10451000060708090A0B0C0D0E0F10100102030408
:1045200005060708090A0B0C0D0E0F10000000000D
:10453000000000000000000000000000000000007B
:10454000000000000000000000000000000000006B
:10455000000000000000000000000000000000005B
:10456000000000000000000000000000000000004B
:10457000000000000000000000000000000000003B
:10458000000000000000000000000000B00100205A
:044590000000000027
:0845940018F4FF7F0100000094
:10459C0000000000EB04000801050008000000000A
:1045AC000100000000080000F002002000A24A04F4
:1045BC00EC170020B0010020000000004C45000862
:1045CC006C4500082C4500080000000000000000AD
:1045DC0000000000000000000000000000000000CF
:1045EC0000000000000000000000000000000000BF
:1045FC0000000000000000000000000000000000AF
:10460C00000000000000000000000000000000009E
:10461C000000000000000000AD010008F1020008DD
:0C462C00F93600088901000800000000B9
:0400000508003B456F
:00000001FF
